:0200000490006A
:10000000C01600242904009059F9009021E40090C2
:1000100051F90090692300908924019000000000AC
:100020000000000000000000000000003B04009001
:10003000012E0090000000007D0500900B0500904F
:100040004304009043040090430400904304009054
:100050004304009043040090430400904304009044
:1000600043040090430400904304009071230090E7
:100070004304009043040090430400904304009024
:100080004304009043040090430400904304009014
:100090004304009043040090430400904304009004
:1000A00043040090430400904304009043040090F4
:1000B00043040090430400904304009043040090E4
:1000C00043040090430400904304009043040090D4
:1000D00043040090430400904304009043040090C4
:1000E000430400904304009000000000430400908B
:1000F00043040090430400904304009043040090A4
:1001000043040090C9FE0090430400904304009013
:10011000430400904304009043040090F9140190BC
:100120004304009043040090430400904304009073
:1001300043040090192F0090C132009043040090B6
:1001400000000000000000000000000000000000AF
:100150004304009043040090430400904304009043
:100160004304009043040090430400904304009033
:100170004304009043040090430400904304009023
:100180004304009043040090430400904304009013
:100190004304009043040090430400904304009003
:1001A00043040090430400904304009043040090F3
:1001B00043040090430400904304009043040090E3
:1001C00043040090430400904304009043040090D3
:1001D00043040090430400904304009043040090C3
:1001E00043040090430400904304009043040090B3
:1001F00043040090430400904304009043040090A3
:100200004304009043040090430400904304009092
:100210004304009043040090430400904304009082
:100220004304009043040090430400900000000049
:10023000430400904304009000000000111E009051
:100240004304009043040090430400904304009052
:100250004304009043040090430400904304009042
:100260004304009043040090430400904304009032
:1002700043040090430400904304009000000000F9
:1002800043040090430400904304009000000000E9
:10029000000000004304009000F002F800F0B4F801
:1002A0000AA090E8000C82448344AAF10107DA45D1
:1002B00001D100F0A9F8AFF2090EBAE80F0013F06F
:1002C000010F18BFFB1A43F0010318471476010011
:1002D000447601000A4410F8014B14F00F0508BFE2
:1002E00010F8015B240908BF10F8014B6D1E05D002
:1002F00010F8013B6D1E01F8013BF9D1641E03D0DB
:10030000641E01F8015BFBD19142E4D37047000009
:10031000103A24BF78C878C1FAD8520724BF30C831
:1003200030C144BF04680C60704700000023002403
:1003300000250026103A28BF78C1FBD8520728BFF5
:1003400030C148BF0B6070476E2900F08B84702964
:1003500000F0E185662917F04281652917F03F8199
:10036000672917F03C81612917F03B8103681B0A5C
:1003700028BF41F08001692900F03884642900F029
:100380003584752900F032846F2900F06F85782953
:1003900000F0AD85E92900F00985E42900F0068523
:1003A000F52900F00385EF2900F06C85F82900F0AD
:1003B000AC850368DB0928BF41F08001632901F0A7
:1003C0000B83732901F01083E32901F01B83F329C8
:1003D00001F02083002070471FB517F0F3F89DE867
:1003E000030000F06BFB01F0BDFB040000200021C6
:1003F00017F0BCF8401C60600020002117F0CCF81A
:10040000E0601FBD10B510BD01F086FB1146FFF77F
:10041000E3FF16F0ADFB01F069FC03B4FFF7F2FF58
:1004200003BC12F099F800000948804709480047CA
:10043000FEE7FEE7FEE7FEE7FEE7FEE7FEE7FEE794
:10044000FEE7FEE704480549054A064B70470000F1
:10045000A113019099020090C0100024C01600243E
:10046000C0120024C01200240000000000000000A0
:10047000180200240000002000000090D802002490
:10048000001000E0FF5207000000FF4000BF00BF67
:1004900072B65FF824005FF8241001F104010160D6
:1004A0004FF0E0205FF83010C0F8081D5FF834000E
:1004B0005FF83C10096801605FF83C00016841F09A
:1004C000010101604FF0E0205FF8481041614FF0FA
:1004D000070101614FF00001C0F8181D4FF07F4186
:1004E000C0F81C1D5FF86010C0F8201D7047FFF7B2
:1004F000FEBFFFF7FEBFFFF7FEBF01B512F0B8FB6E
:1005000012F0A6FCBDE80140704701B512F0B0FB47
:1005100000F0D6F812F09CFCBDE801407047FFF7F0
:10052000FEBFFFF7FEBF000000000000000000005B
:10053000EFF311804FF0F00181F311887047000054
:1005400080F31188704700000000000000000000E8
:100550004FF000003A4A1060EFF3148020F00400DE
:1005600080F3148862B64FF080504FF0E021C1F85C
:10057000040DBFF34F8FBFF36F8FFEE74FF0F00115
:1005800081F3118801B512F067FDBDE801404FF01D
:10059000000080F311882B482B4A4FF000030168BC
:1005A00091B10360EFF3098C2CE9F00F1EF0100FEE
:1005B00001D12CED108A254C4CF804ED2568C1F8CA
:1005C00008C00DB18D6123604FF0F00181F31188F7
:1005D0001168E9B101604FF0000484F311884F689D
:1005E0001A4C8D6907F101074F60256003B412F0C2
:1005F000CFFC03BCD1F808C05CF804EB1EF0100F70
:1006000001D1BCEC108ABCE8F00F8CF3098870476C
:100610004FF0F00181F311881168016021B94FF0AA
:10062000000484F31188F3E74FF000674FF0E028EF
:10063000C8F8047D4FF0000484F31188CFE77047B9
:1006400050020024400200244402002450080024E8
:10065000026922F00702A2F144026FF00203136064
:100660004FF0000353609360D36013615361936153
:10067000D361136253629362D362136353634FF087
:10068000FF339363D1634FF08073136482607047CC
:100690004FF080504FF0E021C1F8040DEFF30580DA
:1006A000002807D1EFF311814FF0000080F311888B
:1006B00081F3118870470000000000000000000076
:1006C0002249086800F101000860214B1A683AB11C
:1006D000A2F101021A601AB91E4B4FF00100186016
:1006E0001D490868026822B11C4B4FF001021A60D4
:1006F00008E000F104001A4B1A68904201D1194B2E
:1007000018680860134B1A6812B914490868D0B108
:100710002DE901401149086808B114F075FB0D4B33
:100720001A6872B114F044FA0F48016849B90F48C9
:1007300001680F4A13680F484FF08052994200D069
:100740000260BDE80140BFF34F8F7047880300246B
:1007500050080024EC020024E4020024E8020024F3
:100760007403002478030024500200244002002473
:100770004402002404ED00E0704770B5064600F026
:100780007DF9056806F10B0020F00704B4429CBF18
:10079000002070BD2B466A68BAB11068A04210D321
:1007A00004F1080188423CBF5068586007D3516883
:1007B000101941601168091B016058601460101D18
:1007C00070BD13465268002AE7D12146284600F042
:1007D00061F90028DED170BD70B50446051F00F038
:1007E0004DF90068002C14BF446870BD002C18BF80
:1007F000AC423CBF20466468F8D301680A18AA429C
:1008000018BF456003D12A68054611440160286875
:100810004119A1421CBF6C6070BD616869602168AC
:100820000844286070BD53EA020C00F069802DE98D
:10083000F04B4FF00006002B1FBFB3FA83F503FA0D
:1008400005F424FA05F65E4012BF1643B2FA82F5AB
:1008500002FA05F4C5F120051EBF22FA05FC44EAA0
:100860000C04203556EA044C4FEA144418BF641CAB
:100870004FF000084FF00009904271EB030C39D3A0
:10088000002919BFB1FA81F701FA07F6B0FA80F72B
:1008900000FA07F6C7F120071EBF20FA07FC46EA58
:1008A0000C062037B6FBF4FCA7EB0507103F07F05A
:1008B0001F0BCBF120062CFA06F60CFA0BFB44BFFB
:1008C000B3460026202FA4BF5E464FF0000B5BEA24
:1008D000060C08BF4FF0010B19EB0B0948EB06089B
:1008E000ABFB027C06FB02CC0BFB03CCC01B71EB09
:1008F0000C01C1E70B46024641464846BDE8F08B75
:1009000013B5084318BF4FF0FF300146AFF3008026
:10091000BDE81C40704700000FB4044910B503AA9D
:10092000029800F0D3F910BC5DF814FB800100249C
:100930000B460146184600F0C9B900007CB51D46BB
:1009400016460C00009007D04142A14202D3204439
:10095000401E01E04FF0FF30064B7B442A466946BB
:100960000190304600F097F9002C02D0009A002147
:1009700011707CBD5F03000070B5064600F082F880
:100980000468054630460A22002100F093FB2C60E3
:1009900070BD10B5431C02E010F8011B71B1810756
:1009A000FAD14FF0013202C88C1A8C4314EAC211FA
:1009B000F9D0C01A0A0603D0C01E10BDC01A10BD5F
:1009C0000A0401D0801E10BD0902FCD0401E10BDDB
:1009D00002F0FF0343EA032242EA024200F002B8B7
:1009E0004FF000020429C0F0128010F0030C00F058
:1009F0001B80CCF1040CBCF1020F18BF00F8012BD6
:100A0000A8BF20F8022BA1EB0C0100F00DB85FEAA3
:100A1000C17C24BF00F8012B00F8012B48BF00F86F
:100A2000012B70474FF0000200B5134694469646DE
:100A3000203922BFA0E80C50A0E80C50B1F12001F1
:100A4000BFF4F7AF090728BFA0E80C5048BF0CC09F
:100A50005DF804EB890028BF40F8042B08BF7047FD
:100A600048BF20F8022B11F0804F18BF00F8012B6F
:100A700070477047704770477047000000487047E4
:100A8000E800002400487047E000002470477047E9
:100A90007047704738B504460A4600206946AFF3F0
:100AA0000080002808BF38BD02460099204600F0AB
:100AB00045FB012038BD012001F027B8F8B5AFF3A0
:100AC0000080054600200C46102000BF0646A819ED
:100AD000A0420DD9324669460020AFF300800700DE
:100AE00008BF01F012F80098A04218BF0546C419CB
:100AF000FFF7C4FF05600746F01D20F00700461908
:100B0000284600F00AF8B44208BFF8BDA21B3146DF
:100B10003868BDE8F84000F011BB00210160C0E971
:100B2000011070471020704770B504468569006851
:100B3000C10601D5302600E02026C00707D070BDD1
:100B4000D4E9012130469047206A401C20626D1E86
:100B5000F6D570BD70B5044685690078C00707D129
:100B600070BDD4E9012120209047206A401C2062FA
:100B70006D1EF6D570BD09684A0501D540B27047B3
:100B8000C905FCD500B2704709684A0501D5C0B255
:100B90007047C905FCD580B2704770B50C46054654
:100BA000012A05D02878800600D5EA69002302E0F2
:100BB000012305E05B1C934202D2E05C0028F9D1DE
:100BC000A869E618C01AA861286A1844286228464D
:100BD000FFF7AAFF04E0D5E9012114F8010B9047C3
:100BE000B442F8D32846FFF7B5FF70BD2DE9F041B8
:100BF0000646002410687529314616A510D0FFF767
:100C0000BAFF002802DA404213A507E031688A07DC
:100C100001D512A502E0490704D511A5012401E080
:100C2000FFF7B2FF00210A2206F1240709E0B0FB1A
:100C3000F2FCB0FBF2F302FB1C0030307854184693
:100C4000491C0028F3D123462A463046BDE8F0412E
:100C500000F0D3BA000000002D0000002B000000BF
:100C60002000000011680268006A530501D5087071
:100C70000AE0D30501D5088006E0130603D5C217A4
:100C8000C1E9000200E008600120704701694A1CC8
:100C900002610878704700B58FB0CDE901310021BD
:100CA000059105497944CDE903101146684600F0E5
:100CB0003DF90FB000BD0000E5FFFFFFD1E90023C3
:100CC0009A4202D2531C0B6010707047074B70B5EC
:100CD0000D467B44FFF7DFFF0446284600F0EDFE9B
:100CE00010B14FF0FF3070BD204670BDE3590100D8
:100CF0002DE9FF5F15468A460446DFF8AC80F844CC
:100D00000027D8E900103E46CDE9001010E03AF87F
:100D100016106A4602A800F0D4FE411C07D02178C4
:100D2000890603D5E269391891420DD80744761C2B
:100D30002078800602D5E069B84205DDAE42E6DBE8
:100D40003AF816000028E2D1A069C01BA061204635
:100D5000FFF7EAFED8E90010CDE90010002017E007
:100D60003AF818106A4602A800F0ABFEB0F1FF3F57
:100D700081460BD000250DF1080B05E0D4E90121D7
:100D80001BF8050090476D1C4D45F7D308F1010095
:100D9000B0428046E4DB206A384420622046FFF7F8
:100DA000D9FEBDE8FF9F0000E66801002DE9F04193
:100DB0008046D21D22F007020025D2E90002F52963
:100DC00015A614D0011E72F1000106DA0023D0EB43
:100DD000030063EB020211A608E0D8F800108B07AD
:100DE00001D50FA602E0490701D50EA6012511463F
:100DF000002408F1240704E000F0BAF930323A5533
:100E0000641C50EA0102F7D12B4632462146404687
:100E1000BDE8F04100F0F1B9000000002D00000035
:100E20002B0000002000000030B4002100F1240459
:100E300008E002F00705D208303542EA4372DB08C9
:100E40006554491C52EA0305F3D10468002310A23B
:100E5000250708D504F020040C4304D0C4690123FD
:100E60000CA2641EC46130BC00F0C7B910B50446C2
:100E700021461068FFF788FE02462046BDE8104074
:100E80000023D1E7D21D22F00701D1E90023CBE7EF
:100E90000000000030000000F0B40D460188090594
:100EA00002D5214C7C4402E01F4C7C440E340021CE
:100EB00000F1240608E002F00F071209E75D42EA9C
:100EC00003721B097754491C52EA0307F3D10278D5
:100ED0000023120704D5702D06D009B10223113466
:100EE0002246F0BC00F089B901231034F8E770B550
:100EF00004460D4621461068FFF746FE0246294685
:100F00002046BDE870400023C6E7D21D22F007034B
:100F1000D3E90023C0E70368126843F020030360AD
:100F20000823C3610023B7E7486701002DE9F05F9C
:100F3000894604464FF0000ADFF874B1FB44C0F85C
:100F400020A02046E1688847002874D0252806D0D4
:100F5000D4E901219047206A401C2062F1E7002675
:100F60005F462046E16888472028054607DB312D8B
:100F700005D2781910F8200C08B10643F1E7B00744
:100F800001D526F00406C4F81CA00027C4F818A058
:100F90002A2D09D0284616F0E1FA38B304EB870869
:100FA000303DC8F8185019E059F8041B204604EBEE
:100FB00087029161E1688847012F054618D1E069F1
:100FC000002820DA26F020061DE0D8F8180000EBF3
:100FD000800005EB40003038C8F818002046E16872
:100FE0008847054616F0BAFA0028EED1012F0AD03C
:100FF0002E2D08D12046E16888477F1C0546022F28
:1010000046F02006C4DBA069002803DA404246F01F
:101010000106A061F00701D026F010066C2D0BD060
:10102000682D09D04C2D39D06A2D35D0742D35D08E
:101030007A2D33D016E038E0E1682F462046884705
:10104000B842054609D16C2F26D04FF48060E16884
:10105000064320468847054604E06C2F1AD04FF41B
:10106000807006430DB3A5F14100192802D8203540
:1010700046F400664A462946204626604E46FFF75B
:1010800063F980B101280BD0F61D26F0070000F1AE
:10109000080956E74020E4E78020D8E70020D6E79B
:1010A00006F104094DE7284652E7206ABDE8F09FA3
:1010B000D86601002DE9F04791460F468046044668
:1010C000002614F8015B2DB100F030F80068405D97
:1010D000C007F6D12B2D02D02D2D18D0641E4A4604
:1010E0003946204600F09AFC27B13968A14201D167
:1010F000C7F800804FF0020471050BD5404200286C
:1011000003DDFFF7BFFC0460A007BDE8F08746F4ED
:101110008066E4E70028F8DAFFF7B4FC04606FF0BB
:101120000040F2E700487047E000002410B500F0EE
:1011300019FD001D10BD00BF356401000346406865
:101140008C46002818BF88423CBF03464068F8D34D
:1011500018681844884207D00CF1030020F00700FB
:10116000001D411A521A0146081D0A60FFF734BBE0
:1011700030B5B0F10A0271F100034FEA900E4EEA69
:10118000817EB0EB0E0061EB91014FEA101E4EEA3A
:10119000017E10EB0E0041EB11114FEA102E4EEACA
:1011A000016E10EB0E0041EB11214FEA104E4EEA9A
:1011B000014E10EB0E0041EB1141401841F10001CE
:1011C0004FEAD00040EA41704FEAD1014FEA810472
:1011D00044EA907410EB800544EB01046D1944EB74
:1011E0000404521BA3414FF0000348BF0A3200D54C
:1011F00030BD401C41F1000130BD2DE9F0470D46E6
:1012000099469246044600F124080168880604D5F0
:10121000E06921F01001216000E00120A84201DD19
:10122000471B00E00027A1697A1902EB0900081AA0
:10123000A0612078C00602D42046FFF775FC002686
:1012400008E0D4E901211AF806009047206A401C02
:10125000761C20624E45F4DB2078C0060AD5204675
:10126000FFF762FC06E0D4E9012130209047206AB4
:10127000401C2062381EA7F10107F4DC07E0D4E926
:10128000012118F805009047206A401C2062281EA2
:10129000A5F10105F3DC2046FFF75CFC2078000691
:1012A00002D50220BDE8F0870120FBE72DE9FF4FC2
:1012B0000C461E464FF0FF378BB0D2E90001DDF837
:1012C00060800A908A46C1F30A5505B93D4600215F
:1012D00008464FF00000BAF1000F00F4400005DAB4
:1012E00000EB80004FF4400101EA50004FEA9059B2
:1012F000B9F1010F00DDB9460A9850EA4A000ED054
:1013000044F61050A5F2FF3545432F14B8F1000FF5
:101310001ED07542291E1EDDC9F100021CE0B8F185
:10132000010F4FF0000001D0302103E0F24305E04F
:101330002154401CB042FBDB3046002200212154E6
:101340000B99C1F80880C1E900200FB0BDE8F08F0B
:10135000BD1B6D1CDEE74A4600DA694206A800F0B4
:1013600053FC06AB93E8070003AB83E80700504645
:101370000A9915F013FD8DE80700A0F500501F38FD
:1013800000900398002D0ADD42F21F014A460844EE
:10139000002303A90390684615F07CFF09E0A0F53F
:1013A00000504A461F38002303A90390684615F0F1
:1013B00086FF8DE807000004000C03D04FF0FF30DB
:1013C000410800E01046B8F1000F03D0002200925F
:1013D00015461EE0751E05D4FFF7CAFE3032625571
:1013E0006D1EF9D5B3460122084302D000227F1CAE
:1013F00004E02078302801D100227F1E002A0997BE
:1014000084D01DE0112D07DAFFF7B2FE30326255AD
:101410006D1C50EA0102F5D1084302D00098C8B112
:101420000EE00021681E05E0235C625C63542254D8
:10143000401E491C8142F7DBAB46A81B401E0990A9
:10144000002004F80B000B98099AC0F80880C0E946
:10145000002B7AE711264FF0000857E72DE9F04FEF
:1014600088460446D21D22F0070191B0D1E900015F
:10147000CDE90A0116F05AF802460B98C00F01D0C8
:101480002D2007E02068810701D52B2002E02021D4
:1014900001EAC000032A099001D0072A05DB0346B0
:1014A0004146204600F062FB0BE12078800601D522
:1014B000E06900E00620B8F1650F814606D0B8F17A
:1014C000660F18D0B8F1670F70D131E00020B9F184
:1014D000110F009001DB112301E009F101030AAAB9
:1014E00001A90CA8FFF7E2FEDDE90C70002609F166
:1014F0000105834647E001204B4600904FF000472E
:101500000AAA01A90CA8FFF7D1FEDDE90DB00C99DC
:101510005D46002610B909F101000D18B9EB050070
:1015200003D4C0F1FF3609F10105A5EB09002BE05A
:10153000B9F1010F01DA4FF001090020B9F1110FE3
:101540000090484601DD112300E003460AAA01A9E4
:101550000CA8FFF7ABFEDDE90C704D460026834674
:10156000207800070AD4AB4500DA5D4601A8012DBA
:1015700004DD411911F8011C302907D04F4502DA6A
:1015800017F1040F04DA012082460FE06D1EEEE72A
:10159000002F02DCED1B3E4403E0781CA84200DD76
:1015A0007D1CB81B00F1010A4FF0004720780007AE
:1015B00003D4AA4501DB4FF0FF3A0021B7F1004FF9
:1015C0000DF143088DF8431024D002202B23002F67
:1015D00001DA7F422D230A21021EA0F1010000DC66
:1015E0005FB197FBF1FC97FBF1F201FB1C7C174606
:1015F0000CF1300C08F801CDEEE7A8F10100037002
:101600002188090501D5452100E06521A0F10108E7
:1016100000F8011C09980FA9A1EB0807FF1D00B1F4
:101620000120411901EBEA70A1693844081A401EF3
:10163000A0612078C00602D42046FFF775FA099809
:1016400028B1D4E901219047206A401C206220780B
:10165000C00622D52046FFF767FA1EE0002E04DB05
:10166000B34502DD01A8805D00E03020D4E901210E
:101670009047206A401C2062761CAAF101005FEAB4
:10168000000A0AD100F06EFAC0680168405CD4E933
:1016900001219047206A401C2062281EA5F1010507
:1016A000DCDC07E0D4E9012118F8010B9047206A3F
:1016B000401C2062381EA7F10107F3DC2046FFF72B
:1016C00049FA032011B041E62DE9F04F04460D46DA
:1016D000D21D22F0070089B0D0E90097484639466C
:1016E00015F024FF0246F80F01D02D2307E02068F3
:1016F000810701D52B2302E0202101EAC0038DF8E8
:1017000020300BB1012000E00020032A824601D0E6
:10171000072A04DB2946204600F028FA3FE120781A
:10172000800601D40D2500E0E569C7F30A560D2DAA
:1017300049DA00214FEA175B08464FF00000002FFE
:1017400000F4400007DA00EB80004FF4400100EBAA
:10175000D07001EA60008115012901DD4FF0FF31F1
:1017600000224FEA850CBCF1180F06D31346ACF1EA
:1017700018004FF08052C24003E04FF4801323FA68
:101780000CF30CF10C0CBCF1200F04D3ACF1200CC9
:1017900009FA0CF001E007FA0CF000294FF00048BC
:1017A00001DD18B90FE00ED140450CD319EB020949
:1017B0005F4121B9404502D19F4329EA0209BBEBB1
:1017C000175F00D0761C2088000502D57B4878443E
:1017D00002E07A487844193808AA302302F80A301F
:1017E000037C0AF10101002E0AF1020A53546A46F1
:1017F00002DC4FF0300101E04FF031014FF0010801
:101800008DF8001002D0A6F2FF3603E059EA470136
:1018100000D06B4E002D02DC2178090704D54FF073
:1018200002082E218DF80110C44600210BE0C7F3F9
:1018300003433F01C35C491C6D1E02F808300529B3
:1018400008F1010801DA002DF1DC00210CE000EBC9
:101850001973491C1B786D1E082902F808304FEADD
:10186000091908F1010801DA002DF0DC21688B0666
:1018700002D516E0A8F10108E04505DD02EB0803FA
:1018800013F8013C302BF5D0B8F1000F09DD02EB65
:10189000080313F8013C2E2B03D1090701D4A8F14A
:1018A0000108002D05DD3E2102F808106D1E08F12B
:1018B0000108407C002E02F8080008F1010804DA53
:1018C0002D20764202F8080002E02B2002F80800E2
:1018D0000A214FF47A70864208F101080BDB96FB6F
:1018E000F0F3303302F8083096FBF0F308F101080A
:1018F00000FB136601E0642E0CDB642096FBF0F322
:10190000303302F8083096FBF0F308F1010800FBD1
:10191000136601E00A2E06DB96FBF1F0303002F888
:10192000080008F1010896FBF1F001FB106030306F
:1019300002F80800A16908F1010808EB050202EBB2
:101940000A00081AA0612078C00602D42046FFF7DA
:10195000EBF8216A08AE01EB0A00206204E0D4E94A
:10196000012116F8010B9047BAF1010AF7D220784D
:10197000C00602D52046FFF7D7F86E4609E016F8F4
:10198000010B3E280FD0D4E901219047206A401C6A
:101990002062B8F10108F2D22046FFF7DBF809B067
:1019A0000320BDE8F08F206A2844206203E0D4E9D8
:1019B0000121302090476D1EEBD3F8E76A5E0100ED
:1019C00002FCFFFF10B5436913B1AFF3008001E0E3
:1019D000FFF7E3F8012010BD127800F124010A702E
:1019E00000224A700122EDE711684FF0FF32E9E76B
:1019F00010B5436913B1AFF3008001E0FFF778F948
:101A0000012010BD128800F1240182840022C284CA
:101A10000122EDE711684FF0FF32E9E72DE9F05FB1
:101A2000824615468B4600270AF10104B946007824
:101A3000302801D09DB113E014F8010B012778285C
:101A400003D0582801D045B10AE00DB1102D07D1BF
:101A5000002714F8010B102502E0082500E00A25F4
:101A60000026B0460EE005FB080005FB06F1012745
:101A70001FFA80F801EB1046B6F5803F00D3B94657
:101A800014F8010B294600F0B1F80028EBDABBF19D
:101A9000000F05D00FB1641E00E05446CBF80040A3
:101AA000B9F1000F06D0FEF7EDFF02210160C81E5C
:101AB000BDE8F09F48EA0640FAE7007B00F08000AE
:101AC00070472DE9F04116460C460546FFF72EFB00
:101AD000036893F80101012807D0FF2C12D8185D84
:101AE00080B101202C70BDE8F081D3F807013246A7
:101AF000214603F20713C7182846BC46BDE8F0414B
:101B0000002360474FF0FF30EDE710B500F0FCF820
:101B1000BDE8104000F0F3B87546FFF703FBAE4692
:101B200005006946534620F00700854618B020B5E9
:101B3000FEF788FCBDE820404FF000064FF000079C
:101B40004FF000084FF0000BAC46ACE8C009ACE821
:101B5000C009ACE8C009ACE8C00921F007018D4616
:101B60007047000000487047000100242DE9F04153
:101B70001F46044603260168072A01F4006004DBBF
:101B800008B116A505E016A503E008B115A500E00B
:101B900015A521F010002060A069C01EA0610FB142
:101BA000401EA0612046FEF7BFFF4FB1D4E90121DE
:101BB00038469047206A401C2062C01C206206E024
:101BC000206AFAE7D4E9012115F8010B9047761E47
:101BD000F8D22046FEF7BEFFBDE8F0814E414E0030
:101BE0006E616E00494E4600696E66003A2800D26A
:101BF000303820F02002412A01D3A2F13700884278
:101C000001D34FF0FF3070472DE9F047814616466B
:101C10008AB0354878440DC88DE80D0032487844C4
:101C2000801C03AC0DC884E80D0041F69B300844CD
:101C3000372190FBF1F290FBF1F5A5F1800501FB56
:101C400012041B3C02D56442012000E00020DFF8B2
:101C500098A080460027FA44AAF1BE0A0EE0E007E9
:101C60000AD03246684607EB470101230AEB81019F
:101C700015F025FB8DE8070064107F1C002CEED1C9
:101C8000194F7F44AE3F19E0E80715D007EB041069
:101C90000DF1180A90E80E008AE80E00C068F042C4
:101CA00001D1981908903246012306A903A815F01E
:101CB00006FB03AB83E807006D10641C002DE3D125
:101CC0004FF0010332466946B8F1000F03A802D075
:101CD00015F0E0FA01E015F0F2FAC9E90001C9F8DF
:101CE00008200AB0BDE8F087B45A010010B50446D8
:101CF000AFF300802046BDE81040FEF78EBB002801
:101D000001D010F029BC704710B5012805D0002182
:101D100003A000F021F8012010BD09A1F8E70000A0
:101D200053494752544D454D3A204F7574206F66C4
:101D30002068656170206D656D6F7279000000002C
:101D40003A2048656170206D656D6F727920636F10
:101D5000727275707465640070B505460C460A2091
:101D600000E06D1C10F0FCFB35B128780028F8D19C
:101D700002E0641C10F0F4FB14B120780028F8D1C4
:101D8000BDE870400A2010F0EBBB0000000000002E
:101D900030B44FF0013C50F8042BCCFA52F451F817
:101DA000043BD51A20D1FCB950F8042BCCFA52F4DC
:101DB00051F8043BD51A17D1B4B950F8042BCCFA1A
:101DC00052F451F8043BD51A0ED16CB950F8042BDB
:101DD000CCFA52F451F8043BD51A05D1002CDAD0D4
:101DE00030BC4FF00000704729BAB1FA81F111F010
:101DF0001801D1F120008440F2D1CA40CB4012F04A
:101E0000FF0213F0FF0330BCD01A7047000000003F
:101E100080B540F6BC10C2F2004001F08DFF80BDDD
:101E200080B584B003900398006842F20001C4F2C8
:101E30000201884209D0FFE70398006842F20011CE
:101E4000C4F20201884209D1FFE742F20830C4F22D
:101E50000200006810F4403F09D129E046F2083042
:101E6000C5F60200006810F4403F21D0FFE709F0FA
:101E70003FFC0290039840680190B0F5803F0AD083
:101E8000FFE70198B0F5003F05D0FFE70198B0F5F6
:101E9000403F07D00AE00398C1880298B0FBF1F0F8
:101EA000029004E002988008029000E0FFE75FE003
:101EB0004FF40020002107F013FB029003984068C4
:101EC0000090B0F5802F32D0FFE70098B0F5002FDA
:101ED0002DD0FFE70098B0F5402F28D0FFE70098FD
:101EE000B0F5801F23D0FFE70098B0F5A01F1ED0EB
:101EF000FFE70098B0F5C01F19D0FFE70098B0F5D4
:101F0000E01F1FD0FFE70098B0F5001F1ED0FFE7CD
:101F10000098B0F5101F1DD0FFE70098B0F5201F06
:101F20001CD0FFE70098B0F5301F1BD01EE00398CF
:101F300041686FF0010000EA51410298B0FBF1F0F6
:101F4000029014E002980009029010E00298400903
:101F500002900CE002988009029008E00298C00903
:101F6000029004E00298000A029000E0FFE7FFE719
:101F700005F0D2FD41F20301884217D8FFE702982D
:101F800042F60151C0F23111884207D3FFE70398AE
:101F90000168886840F48070886006E003980168F2
:101FA000886820F480708860FFE743E0029840086A
:101FB0000290029845F61061C0F25F01884209D88C
:101FC000FFE703980068806820F44070039909686F
:101FD00088602EE002984BF62041C0F2BE01884294
:101FE0000AD8FFE7039800688068012161F309209F
:101FF0000399096888601BE0029847F64001C0F227
:102000007D1188420AD8FFE70398006880680221A2
:1020100061F3092003990968886008E00398006863
:10202000806840F44070039909688860FFE7FFE723
:10203000FFE7FFE704B080BD80B582B00190019852
:10204000806B00900098406D10F0500F4AD1FFE770
:102050000099486D40F40070486500980068006879
:102060000007002821D5FFE7009800680CF084FDE8
:10207000D0B1FFE700980068C0688004002812D43F
:10208000FFE70099486D20F4807048650098406D26
:10209000C004002806D4FFE70099486D40F0010015
:1020A0004865FFE7FFE7FFE718E000980068C068B1
:1020B000800790B9FFE70099486D20F4807048656B
:1020C0000098406DC004002806D4FFE70099486DD1
:1020D00040F001004865FFE7FFE7FFE7009801F0E7
:1020E0009FFD10E00098406DC006002804D5FFE772
:1020F000009801F01DFE05E00098C06CC16C0198CD
:102100008847FFE7FFE702B080BD00000000000045
:1021100080B582B001900198806B00900099486D65
:1021200040F0400048650099886D40F004008865E3
:10213000009801F0FDFD02B080BD0000000000002D
:1021400080B582B001900198806B0090009801F0FA
:10215000ABFD02B080BD000080B584B00290029853
:1021600000680CF0E9FC0090029800680CF0ECFCB0
:1021700000284BD0FFE70098002847D1FFE70298DE
:102180000068806800F00D00012809D1FFE702987F
:1021900000680CF059FC02980168032008600DE00B
:1021A0000299486D40F0100048650299886D40F032
:1021B0000100886501208DF80F002BE005F0B4FCCC
:1021C0000190FFE7029800688068C007E8B1FFE768
:1021D00005F0AAFC0199401A032815D3FFE70298DD
:1021E00000688068C00770B1FFE70299486D40F051
:1021F000100048650299886D40F001008865012053
:102200008DF80F0006E0FFE7DCE7FFE700208DF820
:102210000F00FFE79DF80F0004B080BD0000000034
:1022200080B586B00490049800680CF08DFC0028FE
:1022300040F09280FFE70498006880683F21C8F270
:10224000000108420ED0FFE70499486D40F01000ED
:1022500048650499886D40F00100886501208DF87B
:1022600017007DE0049800680CF00AFC05F05CFCA7
:10227000039004980168012042F20002C4F20202B5
:10228000914201900CD0FFE7049800684DF6007170
:10229000CBF6FD710844B0FA80F040090190FFE7E9
:1022A0000198C10746F20030C5F6020000291CBFA4
:1022B00042F20030C4F202000CF012FC02900498CA
:1022C000006842F20011C4F20201884206D1FFE721
:1022D00042F20000C4F20200009003E0049800689B
:1022E0000090FFE7009804990968884203D0FFE74F
:1022F000029880BBFFE7FFE7049800680068C0070A
:1023000040BBFFE7049800680CF01EFC28B9FFE70B
:10231000049800680CF0B4FBFFE705F005FC039996
:10232000401A032815D3FFE7049800680068C00727
:1023300070B9FFE70499486D40F0100048650499B2
:10234000886D40F00100886501208DF8170007E0D6
:10235000FFE7D1E7FFE7FFE700208DF81700FFE771
:102360009DF8170006B080BDFFE7FEE70000000003
:1023700080B540F68820C2F2004002F025FC80BD06
:1023800083B002900298016801201022C4F2020278
:102390009142009000F0A380FFE7029801680120BD
:1023A0002822C4F202029142009000F09880FFE7D8
:1023B0000298016801204022C4F20202914200907A
:1023C00000F08D80FFE70298016801205822C4F2D6
:1023D00002029142009000F08280FFE702980168BB
:1023E00001207022C4F202029142009077D0FFE7F0
:1023F0000298016801208822C4F2020291420090F2
:102400006DD0FFE7029801680120A022C4F2020209
:102410009142009063D0FFE7029801680120B82242
:10242000C4F202029142009059D0FFE7029801687D
:10243000012040F21042C4F20202914200904ED0BC
:10244000FFE702980168012040F22842C4F202022C
:102450009142009043D0FFE702980168012040F2CA
:102460004042C4F202029142009038D0FFE7029845
:102470000168012040F25842C4F2020291420090E9
:102480002DD0FFE702980168012040F27042C4F2AB
:1024900002029142009022D0FFE7029801680120D9
:1024A00040F28842C4F202029142009017D0FFE746
:1024B00002980168012040F2A042C4F20202914257
:1024C00000900CD0FFE7029800684FF64831CBF639
:1024D000FD710844B0FA80F040090090FFE70098D1
:1024E000C00740B3FFE70298007810384AF6AB21E6
:1024F000CAF6AA21A0FB011000090190019800F082
:10250000070147F2F460C9F20100405C0299C86516
:102510000198042807D3FFE702990868042262F3B0
:102520000900886506E00299086840F2FF3290438E
:102530008865FFE705E00299086820F0FF008865DC
:10254000FFE70298806D03B07047000000000000B4
:1025500084B00390039800680190039801680120FB
:1025600045F20842C5F60202914200904ED0FFE7C4
:1025700003980168012045F21C42C5F6020291420F
:10258000009043D0FFE703980168012045F23042F4
:10259000C5F602029142009038D0FFE70398016827
:1025A000012045F24442C5F60202914200902DD02E
:1025B000FFE703980168012045F25842C5F6020280
:1025C0009142009022D0FFE703980168012045F274
:1025D0006C42C5F602029142009017D0FFE70398C3
:1025E0000168012045F28042C5F602029142009046
:1025F0000CD0FFE7039800684AF66C31CAF2FD710F
:102600000844B0FA80F040090090FFE70098C00746
:1026100010B3FFE70398007808384CF6CD41CCF6AC
:10262000CC41A0FB011000090290029945F6000080
:10263000C5F6020000EB810003990866039945F690
:102640008000C5F602004866029800F01F010120D4
:1026500088400399886635E00398007810384AF678
:10266000AB21CAF6AA21A0FB011000090290019833
:1026700040F2B841C4F2020188420CD8FFE7019849
:1026800040F21041C4F20201884204D3FFE70298ED
:1026900008300290FFE7029940F60000C4F2020001
:1026A00000EB810003990866039940F68000C4F2AC
:1026B00002004866029800F01F010120884003993B
:1026C0008866FFE704B0704783B0029002980079F3
:1026D00001900198002800F08A80FFE701980828FF
:1026E00000F28580FFE702980168012045F2084268
:1026F000C5F60202914200904ED0FFE702980168B1
:10270000012045F21C42C5F602029142009043D0DE
:10271000FFE702980168012045F23042C5F6020247
:102720009142009038D0FFE702980168012045F2FD
:102730004442C5F60202914200902DD0FFE7029874
:102740000168012045F25842C5F60202914200900C
:1027500022D0FFE702980168012045F26C42C5F6DD
:1027600002029142009017D0FFE702980168012011
:1027700045F28042C5F60202914200900CD0FFE77C
:10278000029800684AF66C31CAF2FD710844B0FA4A
:1027900080F040090090FFE70098C00780B1FFE794
:1027A000019945F6FC00C5F6020000EB8100029994
:1027B000C866029945F64010C5F6020008670FE0AA
:1027C000019940F6FC00C4F2020000EB810002997E
:1027D000C866029940F64010C4F202000867FFE79D
:1027E0000198411E0120884002994867FFE703B025
:1027F000704700000000000085B0049000208DF8B4
:102800000F000498806918BBFFE70498806A029063
:1028100003281BD80299DFE801F0020D0218049882
:1028200090F82F00C00720B1FFE701208DF80F00BE
:10283000FFE70CE00498C06AB0F1C07F04D1FFE765
:1028400001208DF80F00FFE701E000E0FFE747E01F
:1028500004988069B0F5005F26D1FFE70498806A8C
:10286000019003281ED80199DFE801F00206021149
:1028700001208DF80F0016E0049890F82F00C00793
:1028800020B1FFE701208DF80F00FFE70BE004986F
:10289000C06AB0F1C07F04D1FFE701208DF80F00BE
:1028A000FFE700E0FFE71AE00498806A0090032841
:1028B00004D3FFE70098032804D00EE001208DF830
:1028C0000F000BE0049890F82F00C00720B1FFE73D
:1028D00001208DF80F00FFE700E0FFE7FFE7FFE7CB
:1028E0009DF80F0005B0704789B0089007910692D7
:1028F00005930898806D04900898806D039008985F
:10290000016801201022C4F202029142029000F0FC
:102910000381FFE70898016801202822C4F202021F
:102920009142029000F0F880FFE7089801680120CA
:102930004022C4F202029142029000F0ED80FFE7D3
:102940000898016801205822C4F2020291420290C4
:1029500000F0E280FFE70898016801207022C4F2CD
:1029600002029142029000F0D780FFE708980168C8
:1029700001208822C4F202029142029000F0CC8031
:10298000FFE7089801680120A022C4F202029142E8
:10299000029000F0C180FFE7089801680120B8228A
:1029A000C4F202029142029000F0B680FFE708985C
:1029B0000168012040F21042C4F2020291420290EA
:1029C00000F0AA80FFE708980168012040F2284241
:1029D000C4F202029142029000F09E80FFE7089844
:1029E0000168012040F24042C4F20202914202908A
:1029F00000F09280FFE708980168012040F25842F9
:102A0000C4F202029142029000F08680FFE708982B
:102A10000168012040F27042C4F202029142029029
:102A20007AD0FFE708980168012040F28842C4F29A
:102A30000202914202906FD0FFE7089801680120DE
:102A400040F2A042C4F202029142029064D0FFE739
:102A500008980168012040F2B842C4F20202914293
:102A6000029059D0FFE708980168012045F208421A
:102A7000C5F60202914202904ED0FFE70898016825
:102A8000012045F21C42C5F602029142029043D059
:102A9000FFE708980168012045F23042C5F60202BE
:102AA0009142029038D0FFE708980168012045F272
:102AB0004442C5F60202914202902DD0FFE70898E9
:102AC0000168012045F25842C5F602029142029087
:102AD00022D0FFE708980168012045F26C42C5F654
:102AE00002029142029017D0FFE708980168012086
:102AF00045F28042C5F60202914202900CD0FFE7F7
:102B0000089800684AF66C31CAF2FD710844B0FAC0
:102B100080F040090290FFE70298C00770B1FFE71C
:102B20000898416E806E48600898C06E28B1FFE733
:102B30000898016F406F4860FFE7FFE70898016859
:102B400001201022C4F202029142019000F0A38001
:102B5000FFE70898016801202822C4F2020291428E
:102B6000019000F09880FFE708980168012040225A
:102B7000C4F202029142019000F08D80FFE70898B4
:102B8000016801205822C4F202029142019000F033
:102B90008280FFE70898016801207022C4F20202D7
:102BA0009142019077D0FFE70898016801208822C0
:102BB000C4F20202914201906DD0FFE708980168CB
:102BC0000120A022C4F202029142019063D0FFE7EB
:102BD000089801680120B822C4F2020291420190D3
:102BE00059D0FFE708980168012040F21042C4F272
:102BF0000202914201904ED0FFE70898016801203F
:102C000040F22842C4F202029142019043D0FFE711
:102C100008980168012040F24042C4F20202914249
:102C2000019038D0FFE708980168012040F258422F
:102C3000C4F20202914201902DD0FFE7089801688A
:102C4000012040F27042C4F202029142019022D06F
:102C5000FFE708980168012040F28842C4F20202AE
:102C60009142019017D0FFE708980168012040F2D7
:102C7000A042C4F20202914201900CD0FFE70898F2
:102C800000684FF64831CBF6FD710844B0FA80F089
:102C900040090190FFE70198C00750B3FFE708988B
:102CA000C06D00F01F013F2088400499886008989B
:102CB0000168086820F48020086005980899096870
:102CC000486008988068402809D1FFE7069808996D
:102CD00009688860079808990968C86008E007983B
:102CE000089909688860069808990968C860FFE72C
:102CF00082E008980168012045F20842C5F6020208
:102D0000914200904ED0FFE708980168012045F2FB
:102D10001C42C5F602029142009043D0FFE708989A
:102D20000168012045F23042C5F60202914200904E
:102D300038D0FFE708980168012045F24442C5F603
:102D40000202914200902DD0FFE70898016801200F
:102D500045F25842C5F602029142009022D0FFE7A8
:102D600008980168012045F26C42C5F602029142C2
:102D7000009017D0FFE708980168012045F28042D3
:102D8000C5F60202914200900CD0FFE70898006857
:102D90004AF66C31CAF2FD710844B0FA80F040097D
:102DA0000090FFE70098C00720B3FFE70898C06DC8
:102DB00000F01F0101208840039948600598089998
:102DC0000968486008988068402809D1FFE706989C
:102DD000089909688860079808990968C86008E038
:102DE0000798089909688860069808990968C86072
:102DF000FFE700E0FFE7FFE709B0704700000000D1
:102E0000704700000000000083B002900020009096
:102E1000FFE70098032820D8FFE70298006900998F
:102E200001EB410100EBC100019001990020086015
:102E300001994860019988600199C8600199086109
:102E40000199486101980299009A01EB8201886416
:102E5000FFE7009801300090DBE702990020C86589
:102E600002990866029988660299C866029988657F
:102E70000298016841F230120320885002980168DC
:102E8000006941F21C1288500298016800694830BC
:102E900041F22812885003B0704700000000000083
:102EA00083B0029000200090FFE7009803281CD810
:102EB000FFE70298C068009901EB410100EBC100F7
:102EC000019001990020086001994860019988608B
:102ED0000199C86001980299009A01EB820188610A
:102EE000FFE7009801300090DFE702990020886238
:102EF0000298016841F22C12032088500298016860
:102F0000C06841F21412885002980168C0684FF4FA
:102F10008952885003B0704780B540F60430C2F241
:102F2000004003F095FF80BD80B5A6B0259001203C
:102F300001908DF83F000021029115918DF84D1000
:102F40008DF84F108DF834008DF862008DF83E003A
:102F50008DF858108DF890004FF4005212928DF8B1
:102F600068101B918DF891108DF892104FF4C36288
:102F700019928DF83C100E918DF841008DF8421099
:102F80008DF84C1020911E9117918DF870108DF8CE
:102F900086108DF84E00202223928DF850008DF877
:102FA00061104FF040520C924FF4804211928DF814
:102FB0003D10022222928DF884108DF885108DF834
:102FC00060108DF840001D918DF87C0025980CA9AB
:102FD00000F08AF8019902988DF81010059103907D
:102FE0008DF828008DF819008DF818004FF40011A5
:102FF00009918DF8200007918DF829004FF4067093
:103000000B90259803A900F003F826B080BD0000BE
:1030100083B002900191029800684FF4805280586A
:1030200047F6020188430199096808430299096833
:10303000885001990A79886840EA0230097B40EAA1
:10304000C13000900298006841F2040280584DF2AD
:103050000101884300990843029909688850019842
:10306000417B006A40EA01400090029800684FF4FA
:10307000885280584CF20001CFF6FE71084000994A
:103080000843029909688850019908690A7D40EA55
:103090000210497F40EA013000900298006841F236
:1030A000041280584EF6EF71CFF6C07108400099B7
:1030B00008430299096888500198017F806940EAB5
:1030C000C17000900298006841F2081280584FF6D3
:1030D000FF71C7F6C071084000990843029909685A
:1030E000885003B07047000083B0029001910199AD
:1030F00088680A6810430A7940EAC2600A7B40EA9D
:10310000C2504A7B40EA82508A7B40EA4250CA7BE6
:1031100040EA02500B7C40F40022002B08BF10460E
:103120004B7C40F40032002B08BF10468A7C40EAFA
:1031300002404A6910438A6910430A7F40EA02301C
:103140004A7F40EAC2208B7F40F48062002B08BF98
:103150001046CA7F40EA422091F8203040F4807245
:10316000002B08BF10464A6A104391F8282040EA15
:103170000210C96A0843009002980068006848F28B
:103180008301C0F2040108400099084302990968CC
:1031900008600199C86B400691F8382040EA026047
:1031A00091F830C091F8312091F8323040EA8C40EB
:1031B00040EA424000F58032002B08BF1046496BC0
:1031C0000843009002980068406848F20001CCF281
:1031D000F80108400099084302990968486001987D
:1031E00090F84010406C40EA01200090029800687E
:1031F000C06840F20F11884300990843029909689A
:10320000C860019991F85420086D40EA420091F895
:103210004C3040F08002002B08BF1046896C40EA19
:103220000140009002980068006F4FF60D71084051
:1032300000990843029909680867019890F85510A9
:1032400090F8560040EA4100009002980068D0F8DB
:10325000900020F003000099084302990968C1F822
:10326000900002980068D0F8000D20F072000199DB
:10327000896D084302990968C1F8000D0199C86D6C
:1032800091F8603040F04002002B08BF104691F8E2
:10329000612040EA021091F8621040EAC1000090FB
:1032A00002980068D0F8300D20F07B0000990843A8
:1032B00002990968C1F8300D03B0704700000000A2
:1032C00080B540F60430C2F2004003F0C1FD80BD7D
:1032D00080B582B0EFF3108072B6019047F224708F
:1032E000C9F20100FDF718FBFFE7FEE70000000050
:1032F00080B586B004900391029200200090FFE711
:10330000049890F85000012804D1FFE702208DF8BE
:1033100017005BE00499012081F85000FFE7FFE708
:103320000498FEF719FF8DF807009DF80700E0BB31
:10333000FFE70498406D40F0020020F488500499A3
:103340004865049800680399029A0BF0FDFCFFE7BA
:10335000049800680BF0E0FBF0B1FFE70098013043
:10336000009000984FF60001C2F2C351884212D378
:10337000FFE70498406D40F0100020F0020004992F
:103380004865FFE70499002081F85000FFE701201D
:103390008DF817001AE0DBE70498406D40F001005B
:1033A00020F002000499486505E00499486D40F05A
:1033B00010004865FFE7FFE70499002081F85000FE
:1033C000FFE79DF807008DF81700FFE79DF817004D
:1033D00006B080BD0000000081B0009001B07047D1
:1033E00081B0009001B0704781B0009001B070478B
:1033F00081B0009001B0704781B0009001B070477B
:1034000080B5B0B01E901D9100208DF8730019900A
:103410001E9890F83800012801D1FFE700E0FFE78F
:103420001D98C0680021C4F2FF71884201D0FFE7F7
:103430001EE01E98006842F20001C4F202018842B8
:1034400001D1FFE7FFE71E98006842F20011C4F2C5
:103450000201884201D1FFE7FFE71E98006846F2AB
:103460000001C5F60201884201D1FFE7FFE7FFE74F
:10347000FFE71E9890F85000012804D1FFE70220D2
:103480008DF87F00C6E31E99012081F85000FFE708
:10349000FFE71E9800680BF067FB002840F0A6834A
:1034A000FFE71D980068000330B9FFE71D9800682A
:1034B000C0F38460169015E01D98006890FAA0F0A3
:1034C0002E902E9820B9FFE720208DF8BF0005E050
:1034D0002E98B0FA80F08DF8BF00FFE79DF8BF008E
:1034E0001690FFE7169800F01F01012000FA01F284
:1034F0001E980168C8691043C8611E9800681D992C
:103500000A6849680BF054FB1E9800680BF02CFB0E
:1035100018901E9800680BF0EBFA17901898002886
:1035200040F0B580FFE71798002840F0B080FFE733
:103530001E9800681D9A116892680BF069FB41F2B1
:103540000000C5F60040006800F07040B0F1805FF8
:103550000BD1FFE71D9840691E990968C96801F001
:103560001C014908884015901FE01E980068C0683B
:10357000C00600280BD4FFE71D9840691E99096812
:10358000C96801F01C014908884014900AE01D98A0
:1035900040691E990968C96801F01001490888400E
:1035A0001490FFE714981590FFE715981B901D984D
:1035B0000069042821D0FFE71E9800681D990A6859
:1035C00009691B9B0BF090FB1E9800681D9A1169FE
:1035D000527E013AB2FA82F25209D2070BF0A0FBF6
:1035E0001E9800681D9A1169127E013AB2FA82F2A1
:1035F0005209D2020BF064FB48E01E980068006E8E
:1036000000F0F8401D990968B0EB816F07D1FFE722
:103610001E980168086E20F000400866FFE71E98BB
:103620000068406E00F0F8401D990968B0EB816FAA
:1036300007D1FFE71E980168486E20F000404866F9
:10364000FFE71E980068806E00F0F8401D99096839
:10365000B0EB816F07D1FFE71E980168886E20F0FC
:1036600000408866FFE71E980068C06E00F0F840D2
:103670001D990968B0EB816F07D1FFE71E980168BB
:10368000C86E20F00040C866FFE7FFE7FFE71E981E
:1036900000680BF059FA002840F0A782FFE71E9857
:1036A00000681D9A1168D2680BF0CEFA1D98C068A8
:1036B0000021C4F2FF71884240F03381FFE71E9879
:1036C000006813901D980068000330B9FFE71D984B
:1036D0000068C0F38460129015E01D98006890FAAD
:1036E000A0F02C902C9820B9FFE720208DF8B7008F
:1036F00005E02C98B0FA80F08DF8B700FFE79DF850
:10370000B7001290FFE71298013000F01F0009285F
:103710007DD8FFE71D980068000330B9FFE71D98CA
:103720000068C0F38460119015E01D98006890FA5D
:10373000A0F02A902A9820B9FFE720208DF8AF004A
:1037400005E02A98B0FA80F08DF8AF00FFE79DF809
:10375000AF001190FFE71198013000F01F008006C4
:1037600010901D980068000330B9FFE71D980068AD
:10377000C0F384600F9015E01D98006890FAA0F0E7
:103780002890289820B9FFE720208DF8A70005E0B1
:103790002898B0FA80F08DF8A700FFE79DF8A70001
:1037A0000F90FFE710980F99013101F01F020121DE
:1037B000914008430E901D980068000330B9FFE760
:1037C0001D980068C0F384600D9015E01D98006896
:1037D00090FAA0F02690269820B9FFE720208DF8D7
:1037E0009F0005E02698B0FA80F08DF89F00FFE773
:1037F0009DF89F000D90FFE70E980D99013101F0A3
:103800001F0101EB410140EA01500C9082E01D983C
:103810000068000330B9FFE71D980068C0F38460BA
:103820000B9015E01D98006890FAA0F02490249861
:1038300020B9FFE720208DF8970005E02498B0FA22
:1038400080F08DF89700FFE79DF897000B90FFE759
:103850000B98013000F01F0080060A901D98006848
:10386000000330B9FFE71D980068C0F38460099039
:1038700015E01D98006890FAA0F02290229820B9D7
:10388000FFE720208DF88F0005E02298B0FA80F045
:103890008DF88F00FFE79DF88F000990FFE70A98E9
:1038A0000999013101F01F0201219140084308905C
:1038B0001D980068000330B9FFE71D980068C0F349
:1038C0008460079015E01D98006890FAA0F02090A1
:1038D000209820B9FFE720208DF8870005E0209888
:1038E000B0FA80F08DF88700FFE79DF88700079019
:1038F000FFE708990798013000F01F0000EB400235
:103900000020CFF6206000EB0250084340F000702A
:103910000C90FFE713980C991D9A92680BF078F9B8
:10392000FFE71D98C0780006002840F15D81FFE7A1
:103930001E980168012042F20002C4F20202914284
:1039400006900CD0FFE71E9800684DF60071CBF68C
:10395000FD710844B0FA80F040090690FFE7069830
:10396000C10746F20030C5F6020000291CBF42F232
:103970000030C4F202000BF0A3F81A901E98016800
:103980004FF0010042F20002C4F20202914205909F
:103990000CD0FFE71E9800684DF60071CBF6FD7164
:1039A0000844B0FA80F040090590FFE70598C10788
:1039B00046F20030C5F6020000291CBF42F200307A
:1039C000C4F2020042F20031C4F20201884212D174
:1039D000FFE742F20000C4F202000BF0B5F80390DA
:1039E00042F20010C4F202000BF0AEF80146039858
:1039F0000843049007E046F20000C5F602000BF011
:103A0000A3F80490FFE70498002840F0E380FFE764
:103A10001D9800680021CCF68431884255D1FFE71B
:103A20009DF86A00000600284FD4FFE71E98006842
:103A300046F20001C5F60201884245D1FFE71E9813
:103A40000168012042F20002C4F202029142029097
:103A50000CD0FFE71E9800684DF60071CBF6FD71A3
:103A60000844B0FA80F040090290FFE70298C107CD
:103A700046F20030C5F6020000291CBF42F20030B9
:103A8000C4F202001A9941F400010BF009F940F266
:103A9000C000C2F2004000684FEA901042F6635145
:103AA000C0F23E51A0FB01104FEA90114FF002000E
:103AB00000EB41001990FFE7199820B1FFE7199832
:103AC00001381990F8E7FFE783E01D9800680021AE
:103AD000CCF25271884238D1FFE79DF86B00C007E5
:103AE00098BBFFE71E98006846F20001C5F6020188
:103AF000884229D1FFE71E980168012042F20002A6
:103B0000C4F20202914201900CD0FFE71E980068B7
:103B10004DF60071CBF6FD710844B0FA80F0400913
:103B20000190FFE70198C10746F20030C5F6020098
:103B300000291CBF42F20030C4F202001A9941F081
:103B400080710BF0ADF8FFE742E01D98006800219E
:103B5000CCF6B871884239D1FFE79DF86A0040067B
:103B6000002833D4FFE71E98006846F20001C5F62E
:103B70000201884229D1FFE71E980168012042F224
:103B80000002C4F20202914200900CD0FFE71E989E
:103B900000684DF60071CBF6FD710844B0FA80F074
:103BA00040090090FFE70098C10746F20030C5F6D3
:103BB000020000291CBF42F20030C4F202001A9930
:103BC00041F480010BF06CF8FFE700E0FFE7FFE74E
:103BD000FFE708E01E99486D40F02000486501208D
:103BE0008DF87300FFE7FFE7FFE708E01E99486DD7
:103BF00040F02000486501208DF87300FFE7FFE7E3
:103C00001E99002081F85000FFE79DF873008DF8A1
:103C10007F00FFE79DF87F0030B080BD000000000E
:103C200080B586B00190019840F6BC11C2F2004107
:103C3000884235D1FFE740F65400C2F2004010211F
:103C4000002211F01DFC40F60000CDF20000803093
:103C50000590802004900498012820DBFFE7049859
:103C6000059901F01F010844039005980290BFF3E5
:103C70004F8FFFE702984EF65C71CEF200010860AC
:103C8000029820300290039820380390039800286F
:103C9000F0DCFFE7BFF34F8FBFF36F8FFFE7FFE766
:103CA00006B080BD0000000080B586B0019001988C
:103CB00040F6BC11C2F20041884234D1FFE740F621
:103CC0005400C2F200400121002211F0D9FB40F65D
:103CD0000000CDF200000590802004900498012897
:103CE00020DBFFE70498059901F01F0108440390C9
:103CF00005980290BFF34F8FFFE702984EF65C7174
:103D0000CEF200010860029820300290039820381B
:103D1000039003980028F0DCFFE7BFF34F8FBFF359
:103D20006F8FFFE7FFE706B080BD000000000000D6
:103D300081B0009001B0704780B590B00F90002026
:103D40000E900F98006800680D900F98006840680A
:103D50000C900F980168012042F20002C4F20202A6
:103D6000914206900CD0FFE70F9800684DF6007165
:103D7000CBF6FD710844B0FA80F040090690FFE7E9
:103D80000698C10746F20030C5F6020000291CBFA4
:103D900042F20030C4F202000AF0A2FE07909DF841
:103DA00034004FEA807000281AD5FFE79DF83000F4
:103DB0008007002814D5FFE70F98406DC006002843
:103DC00006D4FFE70F99486D40F400604865FFE7AF
:103DD0000F98FFF701FB0F98016802200860FFE7CA
:103DE0009DF834004007002806D5FFE70C9800F046
:103DF000040004280ED0FFE79DF8340000070028D7
:103E000040F19F80FFE79DF830000007002840F157
:103E10009880FFE70F98406DC006002806D4FFE7A2
:103E20000F99486D40F400704865FFE70F980068EF
:103E30000AF0A2FE00287CD0FFE70F98006842F24B
:103E40000011C4F20201884206D1FFE742F20000ED
:103E5000C4F20200059003E00F9800680590FFE7A8
:103E600005980F99096888420BD0FFE7079840B181
:103E7000FFE70798052804D0FFE70798092805D130
:103E8000FFE70F980068C068099018E00F98006875
:103E900042F20011C4F20201884206D1FFE742F269
:103EA0000000C4F20200049003E00F980068049040
:103EB000FFE7049808900898C0680990FFE7099800
:103EC00000F40050B0F5005F32D0FFE70F980068B3
:103ED0000068000700282AD5FFE70F9800680AF05D
:103EE00043FEC0B9FFE70F980168486820F00C0056
:103EF00048600F99486D20F4807048650F98406DB8
:103F0000C004002806D4FFE70F99486D40F0010077
:103F10004865FFE70AE00F99486D40F010004865DA
:103F20000F99886D40F001008865FFE7FFE7FFE724
:103F3000FFE70F98FFF774FE0F9801680C200860E8
:103F4000FFE79DF834008006002806D5FFE70C98AF
:103F500000F0200020280ED0FFE79DF83400400636
:103F6000002840F1B680FFE79DF8300040060028A9
:103F700040F1AF80FFE70F98406DC006002806D4DF
:103F8000FFE70F99486D40F400504865FFE70F9830
:103F900000680AF0B5FD0B900F9800680AF0ECFD80
:103FA0000A900F98006842F20011C4F202018842A0
:103FB00006D1FFE742F20000C4F20200039003E0E2
:103FC0000F9800680390FFE703980F9909688842EB
:103FD0000BD0FFE7079840B1FFE70798062804D009
:103FE000FFE70798072805D1FFE70F980068C0682A
:103FF000099018E00F98006842F20011C4F2020123
:10400000884206D1FFE742F20000C4F202000290AB
:1040100003E00F9800680290FFE702980890089864
:10402000C0680990FFE70B9800284AD0FFE79DF889
:104030002700800700280AD5FFE70A9800283FD00C
:10404000FFE79DF825008006002839D4FFE70F9888
:10405000006800684006002831D5FFE79DF826007B
:10406000800600282AD4FFE70F9800680AF040FD78
:10407000C0B9FFE70F980168486820F06000486009
:104080000F99486D20F4805048650F98406DC00529
:10409000002806D4FFE70F99486D40F001004865FD
:1040A000FFE70AE00F99486D40F0100048650F994E
:1040B000886D40F001008865FFE7FFE7FFE7FFE755
:1040C000FFE70F98FFF78CF90F98016860200860F0
:1040D000FFE79DF834000006002813D5FFE79DF8A0
:1040E0003000000600280DD5FFE70F99486D40F419
:1040F000803048650F9800F09FFA0F980168802083
:104100000860FFE79DF83500C00798B1FFE79DF80C
:104110003100C00770B1FFE70F99486D40F40030DF
:1041200048650F98FFF764F90F9801684FF48070A5
:104130000860FFE79DF835008007002814D5FFE7E9
:104140009DF83100800700280ED5FFE70F99486DD4
:1041500040F4802048650F98FFF74EF90F980168EA
:104160004FF400700860FFE79DF83400C006002897
:104170005DD5FFE79DF83000C006002857D5FFE762
:104180000F98006B18B9FFE701200E9038E00798F0
:1041900058B3FFE70F980168012042F20002C4F211
:1041A0000202914201900CD0FFE70F9800684DF693
:1041B0000071CBF6FD710844B0FA80F0400901901F
:1041C000FFE70198C10746F20030C5F6020000295A
:1041D0001CBF42F20030C4F202000AF079FC18B1B0
:1041E000FFE701200E90FFE709E00F980068C06824
:1041F000800718B1FFE701200E90FFE7FFE7FFE718
:104200000E9801280ED1FFE70F99486D40F48060A9
:1042100048650F99886D40F0020088650F98FFF798
:1042200087FDFFE70F98016810200860FFE79DF801
:1042300035004007002819D5FFE79DF831004007F9
:10424000002813D5FFE70F99486D40F4804048657A
:104250000F99886D40F0080088650F9801684FF449
:10426000806008600F98FFF7BFF8FFE710B080BDCF
:1042700010B58CB00A9000208DF8270006900A989F
:1042800020B9FFE701208DF82F00D1E10A98C0681E
:1042900038B1FFE70A98007F012801D1FFE7FFE767
:1042A000FFE70A98406D50B9FFE70A9800F0C8F997
:1042B0000A99002088650A9981F85000FFE70A985A
:1042C00000680AF031FC28B1FFE70A9800680AF09C
:1042D000CBFBFFE70A9800680AF03EFCE8B9FFE76D
:1042E0000A9800680AF0DCFB40F2C000C2F200400D
:1042F0000068800942F66351C0F23E51A0FB010103
:10430000012000EB91100690FFE7069820B1FFE72F
:10431000069801380690F8E7FFE70A9800680AF067
:104320001BFC70B9FFE70A99486D40F01000486522
:104330000A99886D40F00100886501208DF82700FA
:10434000FFE70A9800680AF00FFC07900A98406D92
:10435000C006002800F15E81FFE70798002840F0C2
:104360005981FFE70A98406D40F0020020F4807008
:104370000A9948650A9800680AF0E6FB002870D19F
:10438000FFE70A980168012042F20002C4F202022B
:10439000914203900CD0FFE70A9800684DF6007137
:1043A000CBF6FD710844B0FA80F040090390FFE7B6
:1043B0000398C10746F20030C5F6020000291CBF71
:1043C00042F20030C4F2020042F20031C4F20201B3
:1043D000884212D1FFE742F20000C4F202000AF064
:1043E000B3FB019042F20010C4F202000AF0ACFBF1
:1043F000014601980843029007E046F20000C5F626
:1044000002000AF0A1FB0290FFE7029840BBFFE721
:104410000A980168012042F20002C4F202029142AD
:1044200000900CD0FFE70A9800684DF60071CBF6BB
:10443000FD710844B0FA80F040090090FFE7009851
:10444000C10746F20030C5F6020000291CBF42F247
:104450000030C4F202000A9949680AF011FCFFE733
:10446000FFE703F059FB41F20401884213D3FFE751
:104470000A98806810280ED1FFE70A994A7D086BD8
:1044800040EA42308A681043097F40EA014040F028
:104490000C0008900BE00A994A7D086B40EA423014
:1044A0008A681043097F40EA01400890FFE70A98B4
:1044B000007F01280BD1FFE70A98016A0020CFF6A0
:1044C000FE7000EB4141089808430890FFE70A9806
:1044D000406A50B1FFE70A99486A896A00F4787027
:1044E0000143089808430890FFE70A980068C068ED
:1044F0004CF20301CFF6F0710840089908430A997D
:104500000968C8600A9800680AF02EFB05900A98AE
:1045100000680AF0EDFA04900598002859D1FFE7E9
:104520000498002855D1FFE70A98017DC06A40EA47
:10453000813008900A980068C06844F203018843FB
:10454000089908430A990968C8600A9890F83800E1
:10455000012829D1FFE70A98406A20B1FFE70A98AD
:10456000806A08B9FFE7FFE70A98006800694FF61C
:104570001E01CFF6004100EA01020A9B1968DC6BBC
:10458000D3F840E0D3F844C00020CFF6FF7000EB32
:10459000044040EA0E0040EA0C009B6C18431043B4
:1045A00040F00100086106E00A980168086920F0FF
:1045B00001000861FFE70A980068006920F0704078
:1045C0000A9A1168526B104308610A98FDF728FC9B
:1045D000FFE70A98C06801280CD1FFE70A98006835
:1045E000006B20F00F000A9A11689269013A10439B
:1045F000086306E00A980168086B20F00F00086362
:10460000FFE70A98406D40F0010020F002000A998F
:10461000486508E00A99486D40F01000486501209F
:104620008DF82700FFE79DF827008DF82F00FFE7A2
:104630009DF82F000CB010BD81B0009001B0704704
:1046400080B5B6B0359004A8C021FCF7EBF93598D9
:10465000006846F20001C5F60201884275D1FFE705
:10466000002005904FF40021049105210691C021FE
:1046700007910C210891022209920A9180210B9145
:104680000C900D902D9004A805F052FD18B1FFE795
:10469000FEF71EFEFFE7FFE744F2E040C5F602002A
:1046A000016841F080710160006800F08070039043
:1046B0000398FFE7FFE744F2E040C5F60200016817
:1046C00041F004010160006800F0040002900298CB
:1046D000FFE74FF00061084609F0BEF840F6882079
:1046E000C2F2004001901021C4F202010160732166
:1046F000416000218160C1604FF4806202614FF42B
:10470000805242614FF4804282614FF48072C261F4
:104710000162416201F038FB18B1FFE7FEF7D8FDF6
:10472000FFE7FFE7359840F68821C2F20041C164F7
:1047300035988863FFE77F2000900022114604F03F
:1047400033FA009804F024FAFFE736B080BD000089
:1047500080B588B006900591049206980168012002
:1047600042F20002C4F20202914201900CD0FFE733
:10477000069800684DF60071CBF6FD710844B0FA5A
:1047800080F040090190FFE70198C10746F2003030
:10479000C5F6020000291CBF42F20030C4F202003C
:1047A0000AF09EF90290069800680AF0DDF90028E8
:1047B00040F0AF80FFE7FFE7069890F8500001282F
:1047C00004D1FFE702208DF81F00ABE0069901201D
:1047D00081F85000FFE7FFE7029848B1FFE7029831
:1047E000052805D0FFE70298092840F08780FFE7F9
:1047F0000698FDF715FD8DF80F009DF80F000028B5
:1048000074D1FFE70698406D40F4807040F6016176
:104810008843069948650698006842F20011C4F280
:104820000201884206D1FFE742F20000C4F2020012
:10483000009003E0069800680090FFE70098069952
:104840000968884203D0FFE7029830B9FFE706996C
:10485000486D20F480104865FFE70698406DC0045D
:10486000002806D5FFE70699886D20F006008865C8
:1048700003E0069900208865FFE70698C16C42F2C4
:104880003900C9F20000C8630698C16C42F24110B9
:10489000C9F2000008640698C16C42F21110C9F216
:1048A0000000C864069801681C200860FFE70699AC
:1048B000002081F85000FFE706980168486840F042
:1048C0001000486006990868C96A0AF061F90698FC
:1048D0000168C06C4031059A049B01F009FF8DF816
:1048E0000F00069800680AF083F906E0FFE70699D2
:1048F000002081F85000FFE7FFE709E001208DF874
:104900000F00FFE70699002081F85000FFE7FFE75E
:1049100003E002208DF80F00FFE79DF80F008DF8EF
:104920001F00FFE79DF81F0008B080BD00000000D9
:1049300086B00490039104984068B0F5403F06D0DB
:10494000FFE70498406808B1FFE7FFE7FFE7039837
:1049500001280BD1FFE704980399C1EBC10100EBDB
:104960008100C06A0B2801D1FFE7FFE7FFE7049849
:1049700090F86000012804D1FFE702208DF81700AD
:104980009EE00499012081F86000FFE7FFE70499A9
:10499000022081F8610004980399C1EBC10100EB8A
:1049A000810028300290029948688B680A69496939
:1049B00040EA034040EA025040EA415000900F2094
:1049C000CFF633700190029840680A2805D0FFE7BF
:1049D00002984068092807D1FFE70298C17B009838
:1049E00040EA0160009006E00298C168009840EA41
:1049F00001600090FFE7039810BBFFE70498006890
:104A0000406A0199884300990843049909684862FB
:104A100002980068049909688861029840680A2829
:104A200005D0FFE702984068092808D1FFE70298FF
:104A3000C06820F07F40049909688862FFE731E090
:104A4000029840680B280BD1FFE702988169009813
:104A500040EA81400090019840F440200190FFE737
:104A600004980068C0690199884300990843049933
:104A70000968C86102980068049909680861029889
:104A800040680A2805D0FFE702984068092808D145
:104A9000FFE70298C06820F07F4004990968086227
:104AA000FFE7FFE70499012081F86100FFE704991F
:104AB000002081F86000FFE700208DF81700FFE775
:104AC0009DF8170006B0704780B582B0009000983E
:104AD00020B9FFE701208DF807004FE0009890F81B
:104AE000610040B9FFE70099002081F8600000985C
:104AF00000F04AF8FFE70099022081F86100009871
:104B0000006800684FF6BF71CFF6F8710840009B4F
:104B100019685A68DB691A431043086000980068F6
:104B2000406B40F207118843009B19689A689B69A3
:104B30001A431043486300980068006C4FF6FF71F9
:104B40008843009A1168D26810430864009800688E
:104B5000406B20F44010009B19681A695B691205CC
:104B600042EA435210434863009900204866009A85
:104B7000012182F861108DF80700FFE79DF807001A
:104B800002B080BD0000000082B001900198006872
:104B900041F20001C5F20021884210D1FFE7FFE792
:104BA00044F2D440C5F60200016841F010010160F2
:104BB000006800F0100000900098FFE7FFE702B0E7
:104BC000704700000000000080B590B00F900020FA
:104BD0000B9040F2C000C2F20040006848F2B511EC
:104BE000C1F64E31A0FB0110800A0A900F98806D2B
:104BF00009900F98806D0890099800680E900898A9
:104C000000680D900F98016801201022C4F2020282
:104C10009142079000F0A380FFE70F980168012000
:104C20002822C4F202029142079000F09880FFE728
:104C30000F98016801204022C4F2020291420790BD
:104C400000F08D80FFE70F98016801205822C4F220
:104C500002029142079000F08280FFE70F980168FE
:104C600001207022C4F202029142079077D0FFE740
:104C70000F98016801208822C4F202029142079035
:104C80006DD0FFE70F9801680120A022C4F2020254
:104C90009142079063D0FFE70F9801680120B82286
:104CA000C4F202029142079059D0FFE70F980168C1
:104CB000012040F21042C4F20202914207904ED00D
:104CC000FFE70F980168012040F22842C4F2020277
:104CD0009142079043D0FFE70F980168012040F20E
:104CE0004042C4F202029142079038D0FFE70F9889
:104CF0000168012040F25842C4F20202914207903A
:104D00002DD0FFE70F980168012040F27042C4F2F5
:104D100002029142079022D0FFE70F98016801201C
:104D200040F28842C4F202029142079017D0FFE796
:104D30000F980168012040F2A042C4F202029142A1
:104D400007900CD0FFE70F9800684FF64831CBF67C
:104D5000FD710844B0FA80F040090790FFE707981A
:104D6000C007002800F01385FFE70E980F99C96D62
:104D700001F01F01C8400007002840F1B080FFE7A4
:104D80000F9800681021C4F20201884200F081806F
:104D9000FFE70F9800682821C4F20201884278D00A
:104DA000FFE70F9800684021C4F20201884270D0EA
:104DB000FFE70F9800685821C4F20201884268D0CA
:104DC000FFE70F9800687021C4F20201884260D0AA
:104DD000FFE70F9800688821C4F20201884258D08A
:104DE000FFE70F980068A021C4F20201884250D06A
:104DF000FFE70F980068B821C4F20201884248D04A
:104E0000FFE70F98006840F21041C4F202018842A7
:104E10003FD0FFE70F98006840F22841C4F202013A
:104E2000884236D0FFE70F98006840F24041C4F254
:104E3000020188422DD0FFE70F98006840F25841E8
:104E4000C4F20201884224D0FFE70F98006840F2C4
:104E50007041C4F2020188421BD0FFE70F9800683E
:104E600040F28841C4F20201884212D0FFE70F9855
:104E7000006840F2A041C4F20201884209D0FFE775
:104E80000F98006840F2B841C4F20201884207D18D
:104E9000FFE70F980068006800F00400069006E045
:104EA0000F980068006800F008000690FFE7069879
:104EB000A0B1FFE70F980168086820F004000860BF
:104EC0000F98C06D00F01F01082088400999886084
:104ED0000F99486D40F001004865FFE7FFE70E9825
:104EE0000F99C96D01F01F01C840C007002800F0EC
:104EF000A980FFE70F9800681021C4F202018842E0
:104F000000F08180FFE70F9800682821C4F20201B9
:104F1000884278D0FFE70F9800684021C4F2020170
:104F2000884270D0FFE70F9800685821C4F2020150
:104F3000884268D0FFE70F9800687021C4F2020130
:104F4000884260D0FFE70F9800688821C4F2020110
:104F5000884258D0FFE70F980068A021C4F20201F0
:104F6000884250D0FFE70F980068B821C4F20201D0
:104F7000884248D0FFE70F98006840F21041C4F221
:104F8000020188423FD0FFE70F98006840F22841B5
:104F9000C4F20201884236D0FFE70F98006840F261
:104FA0004041C4F2020188422DD0FFE70F9800680B
:104FB00040F25841C4F20201884224D0FFE70F9822
:104FC000006840F27041C4F2020188421BD0FFE742
:104FD0000F98006840F28841C4F20201884212D062
:104FE000FFE70F98006840F2A041C4F20201884236
:104FF00009D0FFE70F98006840F2B841C4F20201FF
:10500000884207D1FFE70F980068406900F08000F0
:10501000059005E00F980068006800200590FFE704
:10502000059870B1FFE70F98C06D00F01F010120D7
:105030008840099988600F99486D40F002004865E2
:10504000FFE7FFE70E980F99C96D01F01F01C840F7
:105050004007002840F1A980FFE70F980068102161
:10506000C4F20201884200F08180FFE70F980068D7
:105070002821C4F20201884278D0FFE70F98006827
:105080004021C4F20201884270D0FFE70F98006807
:105090005821C4F20201884268D0FFE70F980068E7
:1050A0007021C4F20201884260D0FFE70F980068C7
:1050B0008821C4F20201884258D0FFE70F980068A7
:1050C000A021C4F20201884250D0FFE70F98006887
:1050D000B821C4F20201884248D0FFE70F98006867
:1050E00040F21041C4F2020188423FD0FFE70F981E
:1050F000006840F22841C4F20201884236D0FFE73E
:105100000F98006840F24041C4F2020188422DD05D
:10511000FFE70F98006840F25841C4F2020188424C
:1051200024D0FFE70F98006840F27041C4F20201FA
:1051300088421BD0FFE70F98006840F28841C4F214
:105140000201884212D0FFE70F98006840F2A041A8
:10515000C4F20201884209D0FFE70F98006840F2CC
:10516000B841C4F20201884207D1FFE70F980068F6
:10517000006800F00200049005E00F9800680068E5
:1051800000200490FFE7049870B1FFE70F98C06D0E
:1051900000F01F0104208840099988600F99486D2C
:1051A00040F004004865FFE7FFE70E980F99C96DCE
:1051B00001F01F01C840C006002840F1DE80FFE773
:1051C0000F9800681021C4F20201884200F081802B
:1051D000FFE70F9800682821C4F20201884278D0C6
:1051E000FFE70F9800684021C4F20201884270D0A6
:1051F000FFE70F9800685821C4F20201884268D086
:10520000FFE70F9800687021C4F20201884260D065
:10521000FFE70F9800688821C4F20201884258D045
:10522000FFE70F980068A021C4F20201884250D025
:10523000FFE70F980068B821C4F20201884248D005
:10524000FFE70F98006840F21041C4F20201884263
:105250003FD0FFE70F98006840F22841C4F20201F6
:10526000884236D0FFE70F98006840F24041C4F210
:10527000020188422DD0FFE70F98006840F25841A4
:10528000C4F20201884224D0FFE70F98006840F280
:105290007041C4F2020188421BD0FFE70F980068FA
:1052A00040F28841C4F20201884212D0FFE70F9811
:1052B000006840F2A041C4F20201884209D0FFE731
:1052C0000F98006840F2B841C4F20201884207D149
:1052D000FFE70F980068006800F00800039006E000
:1052E0000F980068006800F004000390FFE703983F
:1052F000002841D0FFE70F98C06D00F01F0110207B
:105300008840099988600F98006800684003002869
:105310001AD5FFE70F98006800680003002809D439
:10532000FFE70F98006C20B1FFE70F98016C8847EA
:10533000FFE708E00F98806C20B1FFE70F98816CC1
:105340008847FFE7FFE716E00F9800680068C00590
:10535000002807D4FFE70F980168086820F00800CC
:105360000860FFE70F98006C20B1FFE70F98016C11
:105370008847FFE7FFE7FFE7FFE70E980F99C96D42
:1053800001F01F01C8408006002840F12681FFE798
:105390000F9800681021C4F20201884200F0818059
:1053A000FFE70F9800682821C4F20201884278D0F4
:1053B000FFE70F9800684021C4F20201884270D0D4
:1053C000FFE70F9800685821C4F20201884268D0B4
:1053D000FFE70F9800687021C4F20201884260D094
:1053E000FFE70F9800688821C4F20201884258D074
:1053F000FFE70F980068A021C4F20201884250D054
:10540000FFE70F980068B821C4F20201884248D033
:10541000FFE70F98006840F21041C4F20201884291
:105420003FD0FFE70F98006840F22841C4F2020124
:10543000884236D0FFE70F98006840F24041C4F23E
:10544000020188422DD0FFE70F98006840F25841D2
:10545000C4F20201884224D0FFE70F98006840F2AE
:105460007041C4F2020188421BD0FFE70F98006828
:1054700040F28841C4F20201884212D0FFE70F983F
:10548000006840F2A041C4F20201884209D0FFE75F
:105490000F98006840F2B841C4F20201884207D177
:1054A000FFE70F980068006800F01000029006E027
:1054B0000F980068006800F002000290FFE7029871
:1054C000002800F08980FFE70F98C06D00F01F01F1
:1054D00020208840099988600F9890F835000428AA
:1054E00037D1FFE70F980168086820F016000860C0
:1054F0000F980168486920F0800048610F98006C9F
:1055000020B9FFE70F98806C38B1FFE70F9801686A
:10551000086820F008000860FFE70F98C06D00F0F1
:105520001F013F208840099988600F99012081F868
:105530003500FFE70F99002081F83400FFE70F984E
:10554000006D20B1FFE70F98016D8847FFE700F07D
:1055500019BC0F9800680068400300281AD5FFE7BF
:105560000F98006800680003002809D4FFE70F982F
:10557000406C20B1FFE70F98416C8847FFE708E0D7
:105580000F98C06B20B1FFE70F98C16B8847FFE70A
:10559000FFE720E00F9800680068C005002811D4DC
:1055A000FFE70F980168086820F0100008600F9965
:1055B000012081F83500FFE70F99002081F83400C1
:1055C000FFE7FFE70F98C06B20B1FFE70F98C16BB3
:1055D0008847FFE7FFE7FFE7FFE70F98406D0028E8
:1055E00000F0D480FFE70F98406DC007002800F05E
:1055F000C480FFE70F99042081F835000F980068F8
:105600001021C4F20201884200F08180FFE70F9868
:1056100000682821C4F20201884278D0FFE70F9881
:1056200000684021C4F20201884270D0FFE70F9861
:1056300000685821C4F20201884268D0FFE70F9841
:1056400000687021C4F20201884260D0FFE70F9821
:1056500000688821C4F20201884258D0FFE70F9801
:105660000068A021C4F20201884250D0FFE70F98E1
:105670000068B821C4F20201884248D0FFE70F98C1
:10568000006840F21041C4F2020188423FD0FFE7B7
:105690000F98006840F22841C4F20201884236D0D7
:1056A000FFE70F98006840F24041C4F202018842CF
:1056B0002DD0FFE70F98006840F25841C4F2020174
:1056C000884224D0FFE70F98006840F27041C4F28E
:1056D000020188421BD0FFE70F98006840F2884122
:1056E000C4F20201884212D0FFE70F98006840F22E
:1056F000A041C4F20201884209D0FFE70F98006878
:1057000040F2B841C4F20201884207D1FFE70F9886
:105710000168086820F00100086006E00F98016841
:10572000086820F001000860FFE7FFE70B980130F0
:105730000B900A99884201D9FFE707E0FFE70F982D
:1057400000680068C0070028F0D1FFE70F980068E4
:105750000068C00728B1FFE70F99032081F83500E2
:1057600004E00F99012081F83500FFE7FFE70F996A
:10577000002081F83400FFE7FFE70F98C06C20B1EC
:10578000FFE70F98C16C8847FFE7FFE7FAE20F9841
:105790000168012045F20842C5F6020291420190DB
:1057A0004ED0FFE70F980168012045F21C42C5F674
:1057B00002029142019043D0FFE70F980168012057
:1057C00045F23042C5F602029142019038D0FFE71F
:1057D0000F980168012045F24442C5F60202914249
:1057E00001902DD0FFE70F980168012045F2584243
:1057F000C5F602029142019022D0FFE70F9801689E
:10580000012045F26C42C5F602029142019017D088
:10581000FFE70F980168012045F28042C5F60202B9
:10582000914201900CD0FFE70F9800684AF66C3166
:10583000CAF2FD710844B0FA80F040090190FFE718
:105840000198C007002800F09B82FFE70F980068CE
:1058500000680C900D980F99C96D01F01F01C840A8
:105860004007002840F1D780FFE79DF8300040074F
:10587000002840F1D080FFE70F98C06D00F01F01B5
:1058800004208840089948609DF8310000060028EF
:1058900018D5FFE79DF83200C00748B9FFE70F9819
:1058A000806C20B1FFE70F98816C8847FFE708E024
:1058B0000F98006C20B1FFE70F98016C8847FFE755
:1058C000FFE7A7E09DF830008006002800F19980EE
:1058D000FFE70F9800681021C4F20201884200F02F
:1058E0008180FFE70F9800682821C4F202018842F6
:1058F00078D0FFE70F9800684021C4F20201884287
:1059000070D0FFE70F9800685821C4F20201884266
:1059100068D0FFE70F9800687021C4F20201884246
:1059200060D0FFE70F9800688821C4F20201884226
:1059300058D0FFE70F980068A021C4F20201884206
:1059400050D0FFE70F980068B821C4F202018842E6
:1059500048D0FFE70F98006840F21041C4F20201FE
:1059600088423FD0FFE70F98006840F22841C4F218
:105970000201884236D0FFE70F98006840F24041AC
:10598000C4F2020188422DD0FFE70F98006840F270
:105990005841C4F20201884224D0FFE70F98006802
:1059A00040F27041C4F2020188421BD0FFE70F9819
:1059B000006840F28841C4F20201884212D0FFE739
:1059C0000F98006840F2A041C4F20201884209D059
:1059D000FFE70F98006840F2B841C4F20201884224
:1059E00007D1FFE70F980168086820F008000860F9
:1059F00006E00F980168086820F004000860FFE7DF
:105A0000FFE70F98006C20B1FFE70F98016C884703
:105A1000FFE7FFE7B3E10D980F99C96D01F01F0192
:105A2000C8408007002840F1E180FFE79DF8300082
:105A30008007002840F1DA80FFE70F98C06D00F082
:105A40001F0102208840089948609DF83100000637
:105A5000002818D5FFE79DF83200C00748B9FFE7D6
:105A60000F98406C20B1FFE70F98416C8847FFE723
:105A700008E00F98C06B20B1FFE70F98C16B884713
:105A8000FFE7FFE7B1E09DF830008006002800F155
:105A9000A380FFE70F9800681021C4F2020188423A
:105AA00000F08180FFE70F9800682821C4F202010E
:105AB000884278D0FFE70F9800684021C4F20201C5
:105AC000884270D0FFE70F9800685821C4F20201A5
:105AD000884268D0FFE70F9800687021C4F2020185
