:0200000490006A
:1000000008180024E50300904D4400908D400090B6
:1000100049440090551A0090654F00900000000080
:10002000000000000000000000000000F703009046
:10003000571A0090000000003D050090CB0400908E
:10004000FF030090FF030090FF030090FF03009068
:10005000FF030090FF030090FF030090FF03009058
:10006000FF030090FF030090FF030090FF03009048
:10007000FF030090FF030090FF030090FF03009038
:10008000FF030090FF030090FF030090FF03009028
:10009000FF030090FF030090FF030090FF03009018
:1000A000FF030090FF030090FF030090FF03009008
:1000B000FF030090FF030090FF030090FF030090F8
:1000C000FF030090FF030090FF030090FF030090E8
:1000D000FF030090FF030090FF030090FF030090D8
:1000E000FF030090FF03009000000000FF0300905A
:1000F000FF030090FF030090FF030090FF030090B8
:10010000FF030090FF030090FF030090FF030090A7
:10011000FF030090FF030090FF030090274800902A
:10012000FF030090FF030090FF030090FF03009087
:10013000FF030090FF030090FF030090FF03009077
:1001400000000000000000000000000000000000AF
:10015000FF030090FF030090FF030090FF03009057
:10016000FF030090FF030090FF030090FF03009047
:10017000FF030090FF030090FF030090FF03009037
:10018000FF030090FF030090FF030090FF03009027
:10019000FF030090FF030090FF030090FF03009017
:1001A000FF030090FF030090FF030090FF03009007
:1001B000FF030090FF030090FF030090FF030090F7
:1001C000FF030090FF030090FF030090FF030090E7
:1001D000FF030090FF030090FF030090FF030090D7
:1001E000FF030090FF030090FF030090FF030090C7
:1001F000FF030090FF030090FF030090FF030090B7
:10020000FF030090FF030090FF030090FF030090A6
:10021000FF030090FF030090FF030090FF03009096
:10022000FF030090FF030090FF0300900000000018
:10023000FF030090FF03009000000000FF03009008
:10024000FF030090FF030090FF030090FF03009066
:10025000FF030090FF030090FF030090FF03009056
:10026000FF030090FF030090FF030090FF03009046
:10027000FF030090FF030090FF03009000000000C8
:10028000FF030090FF030090FF03009000000000B8
:1002900000000000FF03009000F002F800F092F868
:1002A0000AA090E8000C82448344AAF10107DA45D1
:1002B00001D100F087F8AFF2090EBAE80F0013F091
:1002C000010F18BFFB1A43F00103184730780000F4
:1002D00050780000103A24BF78C878C1FAD8520785
:1002E00024BF30C830C144BF04680C6070470000B0
:1002F0000023002400250026103A28BF78C1FBD82F
:10030000520728BF30C148BF0B6070476E2900F00C
:100310006D84702900F0D985662907F0108365295E
:1003200007F00D83672907F00A83612907F0098325
:1003300003681B0A28BF41F08001692900F01A8474
:10034000642900F01784752900F014846F2900F0E7
:100350006785782900F0A585E92900F00185E42961
:1003600000F0FE84F52900F0FB84EF2900F064859D
:10037000F82900F0A4850368DB0928BF41F080015B
:10038000632900F07184732900F07684E32901F079
:10039000FD81F32901F00282002070471FB507F0AC
:1003A000C1FA01F055FA04000020002107F0A4FA78
:1003B000401C60600020002107F088FAE0601FBD4B
:1003C00010B510BD01F016FA1146FFF7E7FF06F071
:1003D00077FD01F0F3FA03B4FFF7F2FF03BC04F07A
:1003E000C2FD00000948804709480047FEE7FEE7D4
:1003F000FEE7FEE7FEE7FEE7FEE7FEE7FEE7FEE7D5
:1004000004480549054A064B7047000067470090BD
:1004100099020090081200240818002408140024EF
:10042000081400240000000000000000000000008C
:10043000100100240000002000000090D0010024E2
:10044000001000E0FF5207000000FF4000BF00BFA7
:1004500072B65FF824005FF8241001F10401016016
:100460004FF0E0205FF83010C0F8081D5FF834004E
:100470005FF83C10096801605FF83C00016841F0DA
:10048000010101604FF0E0205FF8481041614FF03A
:10049000070101614FF00001C0F8181D4FF07F41C6
:1004A000C0F81C1D5FF86010C0F8201D7047FFF7F2
:1004B000FEBFFFF7FEBFFFF7FEBF01B504F065FD0D
:1004C00004F0D4FDBDE80140704701B504F05DFDC6
:1004D00000F0D6F804F0CAFDBDE801407047FFF710
:1004E000FEBFFFF7FEBF000000000000000000009C
:1004F000EFF311804FF0F00181F311887047000095
:1005000080F3118870470000000000000000000028
:100510004FF000003A4A1060EFF3148020F004001E
:1005200080F3148862B64FF080504FF0E021C1F89C
:10053000040DBFF34F8FBFF36F8FFEE74FF0F00155
:1005400081F3118801B504F021FEBDE801404FF0B0
:10055000000080F311882B482B4A4FF000030168FC
:1005600091B10360EFF3098C2CE9F00F1EF0100F2E
:1005700001D12CED108A254C4CF804ED2568C1F80A
:1005800008C00DB18D6123604FF0F00181F3118837
:100590001168E9B101604FF0000484F311884F68DD
:1005A0001A4C8D6907F101074F60256003B404F010
:1005B000BDFD03BCD1F808C05CF804EB1EF0100FC1
:1005C00001D1BCEC108ABCE8F00F8CF309887047AD
:1005D0004FF0F00181F311881168016021B94FF0EB
:1005E000000484F31188F3E74FF000674FF0E02830
:1005F000C8F8047D4FF0000484F31188CFE77047FA
:1006000048010024380100243C010024480700244C
:10061000026922F00702A2F144026FF002031360A4
:100620004FF0000353609360D36013615361936193
:10063000D361136253629362D362136353634FF0C7
:10064000FF339363D1634FF080731364826070470C
:100650004FF080504FF0E021C1F8040DEFF305801A
:10066000002807D1EFF311814FF0000080F31188CB
:1006700081F31188704700000000000000000000B6
:100680002249086800F101000860214B1A683AB15C
:10069000A2F101021A601AB91E4B4FF00100186056
:1006A0001D490868026822B11C4B4FF001021A6014
:1006B00008E000F104001A4B1A68904201D1194B6E
:1006C00018680860134B1A6812B914490868D0B149
:1006D0002DE901401149086808B105F0A1FD0D4B55
:1006E0001A6872B105F0D6FC0F48016849B90F4885
:1006F00001680F4A13680F484FF08052994200D0AA
:100700000260BDE80140BFF34F8F704780020024B4
:1007100048070024E4010024DC010024E001002457
:100720006C020024700200244801002438010024D7
:100730003C01002404ED00E0704753EA020C00F095
:1007400069802DE9F04B4FF00006002B1FBFB3FA74
:1007500083F503FA05F424FA05F65E4012BF16434A
:10076000B2FA82F502FA05F4C5F120051EBF22FA9D
:1007700005FC44EA0C04203556EA044C4FEA1444C4
:1007800018BF641C4FF000084FF00009904271EB55
:10079000030C39D3002919BFB1FA81F701FA07F622
:1007A000B0FA80F700FA07F6C7F120071EBF20FA5B
:1007B00007FC46EA0C062037B6FBF4FCA7EB05075E
:1007C000103F07F01F0BCBF120062CFA06F60CFAAF
:1007D0000BFB44BFB3460026202FA4BF5E464FF05C
:1007E000000B5BEA060C08BF4FF0010B19EB0B097D
:1007F00048EB0608ABFB027C06FB02CC0BFB03CCF0
:10080000C01B71EB0C01C1E70B460246414648464E
:10081000BDE8F08B13B5084318BF4FF0FF30014619
:10082000AFF30080BDE81C40704700007CB51D465A
:1008300016460C00009007D04142A14202D320444A
:10084000401E01E04FF0FF30064B7B442A466946CC
:100850000190304600F0E3F9002C02D0009A00210C
:1008600011707CBDF70300000FB4044910B503AA52
:10087000029800F005FA10BC5DF814FB7800002423
:1008800070B50C460546012A05D02878800600D5AB
:10089000EA69002302E0012305E05B1C934202D2D7
:1008A000E05C0028F9D1A869E618C01AA861286A96
:1008B00018442862284600F023F904E0D5E9012114
:1008C00014F8010B9047B442F8D3284600F02EF9F3
:1008D00070BD00002DE9F05F894604464FF0000A24
:1008E000DFF874B1FB44C0F820A02046E1688847D7
:1008F000002874D0252806D0D4E901219047206A29
:10090000401C2062F1E700265F462046E1688847E8
:100910002028054607DB312D05D2781910F8200C68
:1009200008B10643F1E7B00701D526F00406C4F884
:100930001CA00027C4F818A02A2D09D0284606F0CC
:10094000BDFF38B304EB8708303DC8F8185019E0F4
:1009500059F8041B204604EB87029161E16888473F
:10096000012F054618D1E069002820DA26F020067C
:100970001DE0D8F8180000EB800005EB400030388F
:10098000C8F818002046E1688847054606F096FF3B
:100990000028EED1012F0AD02E2D08D12046E16883
:1009A00088477F1C0546022F46F02006C4DBA0695D
:1009B000002803DA404246F00106A061F00701D0AA
:1009C00026F010066C2D0BD0682D09D04C2D39D097
:1009D0006A2D35D0742D35D07A2D33D016E038E01D
:1009E000E1682F4620468847B842054609D16C2F5A
:1009F00026D04FF48060E1680643204688470546CC
:100A000004E06C2F1AD04FF4807006430DB3A5F1AB
:100A10004100192802D8203546F400664A46294686
:100A2000204626604E46FFF771FC80B101280BD0AE
:100A3000F61D26F0070000F1080956E74020E4E71C
:100A40008020D8E70020D6E706F104094DE72846C4
:100A500052E7206ABDE8F09F5E70000010B5431CAD
:100A600002E010F8011B71B18107FAD14FF0013299
:100A700002C88C1A8C4314EAC211F9D0C01A0A06B3
:100A800003D0C01E10BDC01A10BD0A0401D0801EC4
:100A900010BD0902FCD0401E10BD02F0FF0343EA66
:100AA000032242EA024200F01DBA4FF0000200B5F4
:100AB000134694469646203922BFA0E80C50A0E881
:100AC0000C50B1F12001BFF4F7AF090728BFA0E82F
:100AD0000C5048BF0CC05DF804EB890028BF40F8FB
:100AE000042B08BF704748BF20F8022B11F0804F3D
:100AF00018BF00F8012B7047704770477047704768
:100B000070B5044685690068C10601D5302600E04D
:100B10002026C00707D070BDD4E901213046904798
:100B2000206A401C20626D1EF6D570BD70B504466B
:100B300085690078C00707D170BDD4E90121202064
:100B40009047206A401C20626D1EF6D570BD096872
:100B50004A0501D540B27047C905FCD500B27047BF
:100B600009684A0501D5C0B27047C905FCD580B2F5
:100B7000704700002DE9F0410646002410687529F1
:100B8000314616A510D0FFF7E2FF002802DA4042F6
:100B900013A507E031688A0701D512A502E04907CD
:100BA00004D511A5012401E0FFF7DAFF00210A2294
:100BB00006F1240709E0B0FBF2FCB0FBF2F302FB04
:100BC0001C00303078541846491C0028F3D12346C5
:100BD0002A463046BDE8F04100F0E9B900000000C7
:100BE0002D0000002B0000002000000011680268AA
:100BF000006A530501D508700AE0D30501D50880C5
:100C000006E0130603D5C217C1E9000200E0086040
:100C10000120704701694A1C02610878704700B5DD
:100C20008FB0CDE901310021059105497944CDE925
:100C3000031011466846FFF74DFE0FB000BD0000DF
:100C4000E5FFFFFFD1E900239A4202D2531C0B605B
:100C50001070704710B5436913B1AFF3008001E025
:100C6000FFF70EFE012010BD127800F124010A707A
:100C700000224A700122EDE711684FF0FF32E9E7E8
:100C8000074B70B50D467B44FFF7C9FF0446284665
:100C900000F088FD10B14FF0FF3070BD204670BDF0
:100CA000156200002DE9FF5F15468A460446DFF80D
:100CB000AC80F8440027D8E900103E46CDE900108A
:100CC00010E03AF816106A4602A800F06FFD411CC9
:100CD00007D02178890603D5E269391891420DD8E9
:100CE0000744761C2078800602D5E069B84205DD0D
:100CF000AE42E6DB3AF816000028E2D1A069C01B3C
:100D0000A0612046FFF7FCFED8E90010CDE90010F5
:100D1000002017E03AF818106A4602A800F046FDD5
:100D2000B0F1FF3F81460BD000250DF1080B05E027
:100D3000D4E901211BF8050090476D1C4D45F7D300
:100D400008F10100B0428046E4DB206A38442062AA
:100D50002046FFF7EBFEBDE8FF9F0000A26C0000FD
:100D60002DE9F0418046D21D22F007020025D2E98C
:100D70000002F52915A614D0011E72F1000106DA51
:100D80000023D0EB030063EB020211A608E0D8F8C1
:100D900000108B0701D50FA602E0490701D50EA66A
:100DA00001251146002408F1240704E000F0BAF8F8
:100DB00030323A55641C50EA0102F7D12B463246D4
:100DC00021464046BDE8F04100F0F1B800000000C7
:100DD0002D0000002B0000002000000030B4002196
:100DE00000F1240408E002F00705D208303542EA99
:100DF0004372DB086554491C52EA0305F3D10468C9
:100E0000002310A2250708D504F020040C4304D0C9
:100E1000C46901230CA2641EC46130BC00F0C7B8D1
:100E200010B5044621461068FFF79AFE0246204698
:100E3000BDE810400023D1E7D21D22F00701D1E91F
:100E40000023CBE70000000030000000F0B40D46A6
:100E50000188090502D5214C7C4402E01F4C7C44EA
:100E60000E34002100F1240608E002F00F071209F9
:100E7000E75D42EA03721B097754491C52EA0307F3
:100E8000F3D102780023120704D5702D06D009B1E2
:100E9000022311342246F0BC00F089B8012310343B
:100EA000F8E770B504460D4621461068FFF758FE76
:100EB000024629462046BDE870400023C6E7D21D01
:100EC00022F00703D3E90023C0E70368126843F068
:100ED000200303600823C3610023B7E7046B00000D
:100EE0004FF000020429C0F0128010F0030C3FF410
:100EF000DEADCCF1040CBCF1020F18BF00F8012BE1
:100F0000A8BF20F8022BA1EB0C01FFF7D0BD5FEAD0
:100F1000C17C24BF00F8012B00F8012B48BF00F86A
:100F2000012B704730B5B0F10A0271F100034FEAAE
:100F3000900E4EEA817EB0EB0E0061EB91014FEA1C
:100F4000101E4EEA017E10EB0E0041EB11114FEA2C
:100F5000102E4EEA016E10EB0E0041EB11214FEA0C
:100F6000104E4EEA014E10EB0E0041EB11414018BD
:100F700041F100014FEAD00040EA41704FEAD1014F
:100F80004FEA810444EA907410EB800544EB0104BD
:100F90006D1944EB0404521BA3414FF0000348BFFA
:100FA0000A3200D530BD401C41F1000130BD2DE9B1
:100FB000F0470D4699469246044600F12408016820
:100FC000880604D5E06921F01001216000E00120CD
:100FD000A84201DD471B00E00027A1697A1902EB56
:100FE0000900081AA0612078C00602D42046FFF745
:100FF00087FD002608E0D4E901211AF80600904791
:10100000206A401C761C20624E45F4DB2078C00626
:101010000AD52046FFF774FD06E0D4E9012130200F
:101020009047206A401C2062381EA7F10107F4DCBB
:1010300007E0D4E9012118F805009047206A401C18
:101040002062281EA5F10105F3DC2046FFF76EFDA6
:101050002078000602D50220BDE8F0870120FBE7DA
:101060002DE9FF4F0C461E464FF0FF378BB0D2E9FB
:101070000001DDF860800A908A46C1F30A5505B97F
:101080003D46002108464FF00000BAF1000F00F481
:10109000400005DA00EB80004FF4400101EA500007
:1010A0004FEA9059B9F1010F00DDB9460A9850EAAC
:1010B0004A000ED044F61050A5F2FF3545432F14D8
:1010C000B8F1000F1ED07542291E1EDDC9F10002C5
:1010D0001CE0B8F1010F4FF0000001D0302103E017
:1010E000F24305E02154401CB042FBDB30460022B5
:1010F000002121540B99C1F80880C1E900200FB0EC
:10110000BDE8F08FBD1B6D1CDEE74A4600DA694280
:1011100006A800F0E1FB06AB93E8070003AB83E809
:10112000070050460A9905F0E9FF8DE80700A0F591
:1011300000501F3800900398002D0ADD42F21F0175
:101140004A460844002303A90390684606F052FA71
:1011500009E0A0F500504A461F38002303A9039078
:10116000684606F05CFA8DE807000004000C03D026
:101170004FF0FF30410800E01046B8F1000F03D0F7
:101180000022009215461EE0751E05D4FFF7CAFE28
:10119000303262556D1EF9D5B3460122084302D0A4
:1011A00000227F1C04E02078302801D100227F1E1D
:1011B000002A099784D01DE0112D07DAFFF7B2FE4F
:1011C000303262556D1C50EA0102F5D1084302D05D
:1011D0000098C8B10EE00021681E05E0235C625C47
:1011E00063542254401E491C8142F7DBAB46A81BC6
:1011F000401E0990002004F80B000B98099AC0F8D3
:101200000880C0E9002B7AE711264FF0000857E765
:101210002DE9F04F88460446D21D22F0070191B017
:10122000D1E90001CDE90A0106F030FB02460B9836
:10123000C00F01D02D2007E02068810701D52B20A9
:1012400002E0202101EAC000032A099001D0072A08
:1012500005DB03464146204600F0FEFA0BE120780C
:10126000800601D5E06900E00620B8F1650F8146EF
:1012700006D0B8F1660F18D0B8F1670F70D131E021
:101280000020B9F1110F009001DB112301E009F1F9
:1012900001030AAA01A90CA8FFF7E2FEDDE90C7020
:1012A000002609F10105834647E001204B460090E6
:1012B0004FF000470AAA01A90CA8FFF7D1FEDDE90B
:1012C0000DB00C995D46002610B909F101000D180A
:1012D000B9EB050003D4C0F1FF3609F10105A5EB18
:1012E00009002BE0B9F1010F01DA4FF001090020EC
:1012F000B9F1110F0090484601DD112300E00346CB
:101300000AAA01A90CA8FFF7ABFEDDE90C704D4657
:1013100000268346207800070AD4AB4500DA5D46F4
:1013200001A8012D04DD411911F8011C302907D055
:101330004F4502DA17F1040F04DA012082460FE06C
:101340006D1EEEE7002F02DCED1B3E4403E0781C2F
:10135000A84200DD7D1CB81B00F1010A4FF00047D8
:101360002078000703D4AA4501DB4FF0FF3A0021A3
:10137000B7F1004F0DF143088DF8431024D002203F
:101380002B23002F01DA7F422D230A21021EA0F118
:10139000010000DC5FB197FBF1FC97FBF1F201FB70
:1013A0001C7C17460CF1300C08F801CDEEE7A8F1D3
:1013B000010003702188090501D5452100E0652160
:1013C000A0F1010800F8011C09980FA9A1EB08077A
:1013D000FF1D00B10120411901EBEA70A1693844F9
:1013E000081A401EA0612078C00602D42046FFF7EC
:1013F00087FB099828B1D4E901219047206A401C55
:1014000020622078C00622D52046FFF779FB1EE037
:10141000002E04DBB34502DD01A8805D00E0302032
:10142000D4E901219047206A401C2062761CAAF171
:1014300001005FEA000A0AD100F00AFAC0680168F8
:10144000405CD4E901219047206A401C2062281E9C
:10145000A5F10105DCDC07E0D4E9012118F8010B56
:101460009047206A401C2062381EA7F10107F3DC78
:101470002046FFF75BFB032011B041E62DE9F04F5A
:1014800004460D46D21D22F0070089B0D0E900972E
:101490004846394606F0FAF90246F80F01D02D23E6
:1014A00007E02068810701D52B2302E0202101EA13
:1014B000C0038DF820300BB1012000E00020032A8A
:1014C000824601D0072A04DB2946204600F0C4F9F1
:1014D0003FE12078800601D40D2500E0E569C7F3DF
:1014E0000A560D2D49DA00214FEA175B08464FF0E6
:1014F0000000002F00F4400007DA00EB80004FF4FA
:10150000400100EBD07001EA60008115012901DD86
:101510004FF0FF3100224FEA850CBCF1180F06D3C3
:101520001346ACF118004FF08052C24003E04FF474
:10153000801323FA0CF30CF10C0CBCF1200F04D334
:10154000ACF1200C09FA0CF001E007FA0CF00029CC
:101550004FF0004801DD18B90FE00ED140450CD323
:1015600019EB02095F4121B9404502D19F4329EAA5
:101570000209BBEB175F00D0761C2088000502D55E
:101580007B48784402E07A487844193808AA302326
:1015900002F80A30037C0AF10101002E0AF1020A66
:1015A00053546A4602DC4FF0300101E04FF0310144
:1015B0004FF001088DF8001002D0A6F2FF3603E0CC
:1015C00059EA470100D06B4E002D02DC2178090753
:1015D00004D54FF002082E218DF80110C4460021D9
:1015E0000BE0C7F303433F01C35C491C6D1E02F8C7
:1015F0000830052908F1010801DA002DF1DC00218D
:101600000CE000EB1973491C1B786D1E082902F8C9
:1016100008304FEA091908F1010801DA002DF0DC61
:1016200021688B0602D516E0A8F10108E04505DD2A
:1016300002EB080313F8013C302BF5D0B8F1000F92
:1016400009DD02EB080313F8013C2E2B03D1090737
:1016500001D4A8F10108002D05DD3E2102F8081093
:101660006D1E08F10108407C002E02F8080008F108
:10167000010804DA2D20764202F8080002E02B204F
:1016800002F808000A214FF47A70864208F1010836
:101690000BDB96FBF0F3303302F8083096FBF0F3E7
:1016A00008F1010800FB136601E0642E0CDB6420E6
:1016B00096FBF0F3303302F8083096FBF0F308F1B4
:1016C000010800FB136601E00A2E06DB96FBF1F031
:1016D000303002F8080008F1010896FBF1F001FB38
:1016E0001060303002F80800A16908F1010808EB29
:1016F000050202EB0A00081AA0612078C00602D495
:101700002046FFF7FDF9216A08AE01EB0A002062CE
:1017100004E0D4E9012116F8010B9047BAF1010A5F
:10172000F7D22078C00602D52046FFF7E9F96E46C9
:1017300009E016F8010B3E280FD0D4E901219047AB
:10174000206A401C2062B8F10108F2D22046FFF75F
:10175000EDF909B00320BDE8F08F206A284420622B
:1017600003E0D4E90121302090476D1EEBD3F8E768
:101770001564000002FCFFFF10B5436913B1AFF31D
:10178000008001E0FFF78EFA012010BD128800F101
:10179000240182840022C2840122EDE711684FF007
:1017A000FF32E9E7007B00F0800070472DE9F0414F
:1017B00016460C46054600F043F8036893F801010D
:1017C000012807D0FF2C12D8185D80B101202C70A1
:1017D000BDE8F081D3F807013246214603F2071332
:1017E000C7182846BC46BDE8F041002360474FF0CB
:1017F000FF30EDE7754600F0EBF8AE4605006946B0
:10180000534620F00700854618B020B5FEF7F8FDD6
:10181000BDE820404FF000064FF000074FF00008F1
:101820004FF0000BAC46ACE8C009ACE8C009ACE82E
:10183000C009ACE8C00921F007018D4670470000DF
:1018400010B500F005F8001D10BD00BFAD60000030
:1018500000487047380000242DE9F0411F46044637
:1018600003260168072A01F4006004DB08B116A50D
:1018700005E016A503E008B115A500E015A521F0C7
:1018800010002060A069C01EA0610FB1401EA061C1
:101890002046FFF735F94FB1D4E90121384690478A
:1018A000206A401C2062C01C206206E0206AFAE721
:1018B000D4E9012115F8010B9047761EF8D2204695
:1018C000FFF734F9BDE8F0814E414E006E616E00C5
:1018D000494E4600696E66002DE9F047814616467E
:1018E0008AB0354878440DC88DE80D0032487844F8
:1018F000801C03AC0DC884E80D0041F69B30084401
:10190000372190FBF1F290FBF1F5A5F1800501FB89
:1019100012041B3C02D56442012000E00020DFF8E5
:1019200098A080460027FA44AAF1BE0A0EE0E0071C
:101930000AD03246684607EB470101230AEB8101D2
:1019400005F06DFE8DE8070064107F1C002CEED1C1
:10195000194F7F44AE3F19E0E80715D007EB04109C
:101960000DF1180A90E80E008AE80E00C068F042F7
:1019700001D1981908903246012306A903A805F061
:101980004EFE03AB83E807006D10641C002DE3D10D
:101990004FF0010332466946B8F1000F03A802D0A8
:1019A00005F028FE01E005F03AFEC9E90001C9F89A
:1019B00008200AB0BDE8F0874461000010B5044675
:1019C000AFF300802046BDE81040FEF704BD0000E4
:1019D000004870471800002430B44FF0013C50F824
:1019E000042BCCFA52F451F8043BD51A20D1FCB99F
:1019F00050F8042BCCFA52F451F8043BD51A17D105
:101A0000B4B950F8042BCCFA52F451F8043BD51A6F
:101A10000ED16CB950F8042BCCFA52F451F8043BB7
:101A2000D51A05D1002CDAD030BC4FF00000704739
:101A300029BAB1FA81F111F01801D1F120008440E6
:101A4000F2D1CA40CB4012F0FF0213F0FF0330BCCA
:101A5000D01A7047FEE77047EFF3108072B600BFF0
:101A6000FEE70000B0B5044600F076F940F20C0144
:101A70000546C2F20041621C097818BF0C4400BF41
:101A800000F06AF9401BA042FAD3B0BD2DE9F04F37
:101A900081B000297BD000F1264242F2004302F1DE
:101AA000FF72C5F602030A2698424FEAB22740F2B7
:101AB000040B08BF0926092FC5F6000B38BF4FEAF3
:101AC000B22600220027009600264FF00F0C00BF20
:101AD000012303FA06FA1AEA010851D040F208433A
:101AE00026F00305C5F6000307F00C0E0CFA0EF9FC
:101AF000ED58009B05EA090503FA0EF39D4222D139
:101B0000DBF87C304FF0B04423EA0803CBF87C309C
:101B1000DBF8803023EA0803CBF88030DBF80030B4
:101B200023EA0803CBF800302568B30825EA080546
:101B3000256040F20844C5F6000454F8235025EA15
:101B4000090544F823506FF00304032304EA560404
:101B50000568934004441D43056007F01C050CFA1A
:101B600005FE256A25EA0E052562C5689D43C56008
:101B7000456825EA0A054560856825EA0303836010
:101B80000136043731FA06F302F10202A0D101B0A6
:101B9000BDE8F08F2DE9F04F82B00D68002D00F008
:101BA000CC8000F1264242F2004302F1FF72C5F6FA
:101BB00002030A2698424FEAB22444F2F44E08BFC8
:101BC0000926092C40F2040C38BF4FEAB226C5F6AC
:101BD000020EC5F6000C009600220027002600BF6A
:101BE000012303FA06F415EA040800F09C80D1F8FA
:101BF00004A003230AF0030B9340ABF101056FEA45
:101C00000309012D10D88368CD6803EA09039540C4
:101C10002B438360CAF300154368A34305FA06F417
:101C20002343436006E000BFBBF1030F02D14FF036
:101C3000030B21E0C3688C6803EA09039440BBF1FD
:101C4000020F43EA0403C36016D16FF0030307F0E9
:101C50001C0503EA56030F24034404FA05FBD3F8DA
:101C600020A00C692AEA0B0AAC4044EA0A041C6270
:101C7000D1F804A00AF0030B03680BFA02F403EA9C
:101C800009031AF4403F43EA040303604BD0DEF833
:101C9000003040F2084A43F00203CEF80030DEF88C
:101CA0000030C5F6000A03F00203019326F0030397
:101CB000019C07F00C040F2553F80A90A54029EA6F
:101CC0000509009D05FA04F444EA090443F80A40B2
:101CD0004FF0B04ADAF800904C6849EA0805E30290
:101CE00058BF29EA0805A302CAF80050DCF80090A2
:101CF00049EA080558BF29EA0805A303CCF80050B3
:101D0000DCF8809049EA080558BF29EA0805E40391
:101D1000CCF88050DCF87C3043EA080558BF23EA51
:101D20000805CCF87C5001360D6835FA06F307F14A
:101D3000040702F102027FF453AF02B0BDE8F08F56
:101D40000069084018BF0120704741F20000C5F645
:101D500000400068000C704741F20020C2F20040D1
:101D60000068704790F84120202A03D190F8402065
:101D7000012A01D1022118E0242280F841200268C2
:101D8000136823F001031360136823F48053136076
:101D9000136819431160116841F00101116020219D
:101DA00080F84110002180F840100846704790F8F4
:101DB0004120202A03D190F84020012A01D102219C
:101DC00017E0242280F841200268136823F0010301
:101DD0001360136823F4706343EA012111601168F2
:101DE00041F001011160202180F84110002180F8AC
:101DF000401008467047B0B110B50446242084F85E
:101E000041002068016821F001010160204600F0D6
:101E100043FA0020606484F84100206384F84200A3
:101E200084F8400010BD0120704708B310B5044687
:101E300090F8410028B9002084F84000204600F0C6
:101E40004CFA242084F8410094E80910E268016803
:101E5000012A21F00101016023F0706101618168B4
:101E600021F40041816005D14CF40041816009E01A
:101E700001207047022A4CF40441816002D14FF4E2
:101E800000614160416804F1100C41F0007141F4BF
:101E900000414160C16821F40041C1609CE80E101E
:101EA000114341EA0321C160216A41EA0C0101604A
:101EB000016841F00101016000206064202184F884
:101EC0004110206384F8420010BD2DE9F04F81B02D
:101ED000044690F8410020280DD1DDF82880B8F1A3
:101EE000000F0AD0DDF82CB0BBF1000F05D094F83C
:101EF0004000012806D1022516E04FF4007060640E
:101F0000012511E01E4617468A46012584F84050F7
:101F1000FFF722FF81464FF4004101221923009070
:101F2000204602F037F918B1284601B0BDE8F08F1D
:101F3000222084F84100402084F8420049F6000045
:101F400000256564CFF60040F1B2C4F824806FF339
:101F50009F2AA4F82AB08346206865634AEA0141B3
:101F60004268DDF8308002EA0B0211444A4601F56E
:101F7000005141602046414602F07CF9B0B9012E83
:101F8000206808D0390A8162204641464A4602F05C
:101F900071F958B92068F9B28162402100222046C7
:101FA0004346CDF8009002F0F5F810B184F84050A7
:101FB000A6E7608D0026C0F2FF16B0F5807F08D33B
:101FC000206806F5105350F8041F01EA0B02FF21A8
:101FD0000AE0618D2068CAB250F8043F03EA0B039F
:101FE00043EA024206F592331A43FF270BF5806558
:101FF00042EA0A020260218504210022204643466B
:10200000CDF8009002F0C6F800287FF479AF206880
:10201000616A406A0870218D606A01306062481E02
:102020002085618D01396185618D31B3000424D132
:102030008021002220464346CDF8009002F0AAF805
:1020400000287FF45DAF608DB0F5807F06D32068F7
:102050002785324650F8041F29400AE0618D206828
:102060002185C9B250F8042F2A4042EA01414FF0BD
:102070000072114341EA0A010160608D0028BBD162
:10208000204641464A4602F0C9F800287FF438AF9E
:10209000206820214EF600030025C161CFF60063C1
:1020A00042681A40426084F8411084F8425084F833
:1020B000405039E72DE9F04F81B0044690F84100D7
:1020C00020280DD1DDF82880B8F1000F0AD0DDF806
:1020D0002CB0BBF1000F05D094F84000012806D1C8
:1020E000022516E04FF400706064012511E01E46E1
:1020F00017468A46012584F84050FFF72DFE814699
:102100004FF40041012219230090204602F042F8CA
:1021100018B1284601B0BDE8F08F212084F84100B5
:10212000402084F84200F1B200256FF39F2A6564D5
:10213000C4F824804AEA0141A4F82AB049F6004BC9
:102140002068CFF6004B6563ABF580634268DDF82D
:1021500030801A4011444A4641F0807141F40051E8
:1021600041602046414602F085F8B0B9012E206852
:1021700008D0390A8162204641464A4602F07AF880
:1021800058B92068F9B28162802100222046434676
:10219000CDF8009001F0FEFF10B184F84050A4E7A4
:1021A000608D0026C0F2FF16B0F5807F07D320684F
:1021B000334650F8041F01EA0B02FF210AE0618D4B
:1021C0002068CAB250F8043F03EA0B0343EA024214
:1021D0004FF000731A43FF2742EA0A02026021858A
:1021E000204641464A4602F045F800287FF47DAF7C
:1021F000606A216810F8012B8A626062608D013884
:102200006085208D01382085618D41B3000426D181
:102210008021002220464346CDF8009001F0BAFF0D
:1022200000287FF462AF608DB0F5807F07D320680F
:102230002785324650F8041F01EA0B010BE0618D3F
:1022400020682185C9B250F8042F02EA0B0242EA45
:1022500001414FF00072114341EA0A010160608DB3
:102260000028BDD1204641464A4601F0D7FF00284C
:102270007FF43BAF206820214EF600030025C161AA
:10228000CFF6006342681A40426084F8411084F837
:10229000425084F840503CE710B545F200410068D8
:1022A000C4F20001884218BF10BD44F2E84040F279
:1022B0000044C5F60200C5F60204016821F40011CD
:1022C00001604FF400712046FFF7E0FB4FF480718E
:1022D0002046BDE81040FFF7D9BBB0B5B8B002A9A1
:1022E000044601F10800B821FEF7DFFB45F200418A
:1022F0002068C4F2000188422FD10820029002A871
:102300000024039400F0BEFA08B1FFF7A5FB44F2E5
:10231000E04533A9C5F60205286840F002002860B0
:10232000286800F00200339033984FF440703390E7
:102330001220CDE934040420379040F20040369456
:10234000C5F60200FFF726FCA86840F40010A8605C
:10235000A86800F400100190019838B0B0BD40F2B8
:102360000C0041F20021C2F20040C2F200410078AC
:102370000A6810440860704780B5032000F015F922
:1023800001F0CCF844F2184147F65023C5F602019B
:10239000C9F200030A68096801F00F01C2F30322C1
:1023A000595C9A5C01F01F0102F01F02D04040F21C
:1023B0000402C2F2004220FA01F1116040F2000171
:1023C000C2F2004108600F2000F007F808B10120B8
:1023D00080BD00F09DF8002080BDB0B58AB00F2808
:1023E00042D80446372000222146002500F0B0F8EC
:1023F000372000F09DF840F21000C2F20040046067
:1024000044F2E840C5F60200016841F02001016095
:10241000006801A900F020000290029802A801F0D3
:1024200004F8079C002C18BF012401F050F84DF669
:102430008361A040C4F21B3141F20042A0FB0101C4
:1024400040F6E840C2F200404FF0FF33C4F2000211
:10245000026003EB9141C0E9011540F2E731C0E9A8
:10246000031501F080FB08B1012005E040F6E840CB
:10247000C2F2004001F0A8FB0AB0B0BDB0B50278CE
:102480004EF6985CCEF2000C4378CCF80030E2B106
:102490004368CCF80430037BC17A90F80AE0457BAE
:1024A000447A42EA0372837B42EA0161C27B41EAD9
:1024B000CE41007A41EA854141EA434141EA024185
:1024C00041EA042141EA400002E00020CCF8040087
:1024D000CCF80800B0BD4EF62450CEF20000BFF399
:1024E0005F8F016821F4803101600021016770472E
:1024F0004EF6245140F00100CEF200010867086852
:1025000040F480300860BFF34F8FBFF36F8F704788
:1025100081B044F2F440C5F60200016841F00201C6
:102520000160006800F002000090009801B0704760
:1025300000280CD481B200F01F000122490902FAE0
:1025400000F04EF20012CEF2000242F82100704775
:1025500070B54EF60C5C4FF0FF36CEF2000C00F179
:10256000604505F56445DCF80030C3F3022E8EF0BB
:102570000703042B28BF0423BEF1030406FA03F368
:1025800021EA030100F00F0338BF0024043B0028B8
:10259000634406FA04F048BF03F10C05A14022EAA7
:1025A000000008430001287070BD4EF60C514FF634
:1025B000FF03CEF200010A681A4060F30A2242F0DB
:1025C000806040F0FD70086070470000B0B544F6D0
:1025D0000C05C5F6020529684907296805D401F0EC
:1025E0000701081A18BF0120B0BD21F007010843F8
:1025F0002860FFF7B1FB044655F8080C800407D4A7
:10260000FFF7AAFB001BB0F57A7FF5D90120B0BD1A
:102610000020B0BD80B500F034FF44F2204147F601
:102620005022C5F60201C9F200020968C1F3021185
:10263000515C01F01F01C84080BD000080B544F22C
:10264000004EC5F6020EDEF82830DEF82810DEF85F
:102650002C20C1F3053CDEF83C10BCF1000F15D076
:10266000C908D20601EAE2716FF35F3100EE101A79
:1026700003F003010229B8EE400A0BD069B9DEF875
:10268000001089060CD49FED341A17E00021C0E930
:1026900000115BE09FED2F1A10E09FED2D1A0DE069
:1026A000DEF8001049F20002C0F2D032C1F3C101DD
:1026B00022FA01F101EE101AB8EE411ADEF83810D4
:1026C0009FED263A6FF35F2102EE101ADEF8381004
:1026D000C1F34621B8EE422A00EE032A00EE10CAEA
:1026E000B7EE003AB8EE400A81EE000A32EE031A65
:1026F00002EE101AB8EE422A20EE010A32EE031A58
:1027000080EE011ABCEEC11A80ED001ADEF8381016
:10271000C1F3064101EE101AB8EE411A31EE031A68
:1027200080EE011ABCEEC11A80ED011ADEF83810F5
:10273000C1F3066101EE101AB8EE411A31EE031A28
:1027400080EE010ABCEEC00A10EE101A816080BD56
:102750000024744A20BCBE4B0024744C0000003995
:1027600080B544F2004EC5F6020EDEF82830DEF8E1
:102770002810DEF82C20C1F3055CDEF84410BCF113
:10278000000F15D0C908D20501EAE2716FF35F317D
:1027900000EE101A03F003010229B8EE400A0BD034
:1027A00069B9DEF8001089060CD49FED341A17E0E1
:1027B0000021C0E900115BE09FED2F1A10E09FEDB2
:1027C0002D1A0DE0DEF8001049F20002C0F2D032FE
:1027D000C1F3C10122FA01F101EE101AB8EE411A5B
:1027E000DEF840109FED263A6FF35F2102EE101ADB
:1027F000DEF84010C1F34621B8EE422A00EE032A6B
:1028000000EE10CAB7EE003AB8EE400A81EE000AB8
:1028100032EE031A02EE101AB8EE422A20EE010A36
:1028200032EE031A80EE011ABCEEC11A80ED001AD6
:10283000DEF84010C1F3064101EE101AB8EE411A5D
:1028400031EE031A80EE011ABCEEC11A80ED011AB6
:10285000DEF84010C1F3066101EE101AB8EE411A1D
:1028600031EE031A80EE010ABCEEC00A10EE101A17
:10287000816080BD0024744A20BCBE4B0024744C8F
:10288000000000392DE9F0470446C07844F21048B2
:102890000007C5F6020826D5A06E4FEA305103297D
:1028A0000AD8DFE801F0020B1119D8F81C1041F426
:1028B0000031C8F81C100FE0012615E004F10800F3
:1028C000022101F0C5FD04E004F12800022101F01D
:1028D00043FE064640B9A06ED8F8401021F44011DE
:1028E0000843C8F8400000266078C00701D135468B
:1028F0002AE0A06D04280DD83546DFE800F0030E6D
:10290000141A1A00D8F81C00354640F40030C8F8F4
:102910001C000EE00125012717E004F1080000214A
:1029200001F096FD04E004F12800002101F014FEFE
:1029300005462F464DB9D8F84000A16D20F007009C
:1029400000250843C8F840003746607880072AD53C
:10295000E06D4FEAB01004280BD8DFE800F0030D5B
:1029600013191900D8F81C0040F40030C8F81C00F6
:102970000EE00125012617E004F10800002101F016
:1029800067FD04E004F12800002101F0E5FD0546A3
:102990002E464DB9D8F84000E16D20F4E0700025D6
:1029A0000843C8F840003E46607840072DD5D4F86B
:1029B000A8004FEA705004280BD8DFE800F0030E9F
:1029C000141A1A00D8F81C0040F40030C8F81C0093
:1029D0000FE001254FF0010918E004F10800002183
:1029E00001F036FD04E004F12800002101F0B4FDFF
:1029F0000546A94655B9D8F84800D4F8A81020F4DF
:102A0000600000250843C8F84800B1466078000718
:102A10002CD5D4F8AC004FEA306004280BD8DFE89E
:102A200000F0030D13191900D8F81C0040F4003011
:102A3000C8F81C000EE00125012718E004F1080089
:102A4000002101F005FD04E004F12800002101F05F
:102A500083FD05462F4655B9D8F84800D4F8AC1088
:102A600020F0E06000250843C8F848004F46E078B1
:102A7000800723D5E06C4FEA301003280AD8DFE83E
:102A800000F012020C12D8F81C0040F40030C8F814
:102A90001C0008E00125012611E004F108000221D4
:102AA00001F0D6FC05462E464DB9D8F83C00E16C45
:102AB00020F0300000250843C8F83C003E4660780E
:102AC000C0062AD5206E4FEA303004280BD8DFE844
:102AD00000F0030D13191900D8F81C0040F4003061
:102AE000C8F81C000EE00125012717E004F10800DA
:102AF000002101F0ADFC04E004F12800002101F008
:102B00002BFD05462F464DB9D8F84000216E20F424
:102B1000E04000250843C8F840003746607880064A
:102B200023D5606E4FEA304005280AD8DFE800F070
:102B300012030C12121204F10800012101F088FCAA
:102B400007E00125012611E004F12800012101F030
:102B500003FD05462E464DB9D8F84000616E20F4BD
:102B6000E02000250843C8F840003E466078400653
:102B700025D5D4F8B0004FEA307005280AD8DFE830
:102B800000F012030C12121204F10800012101F0EE
:102B90005FFC07E00125012712E004F12800012174
:102BA00001F0DAFC05462F4655B9D8F84800D4F8AC
:102BB000B01020F0E04000250843C8F84800374630
:102BC000607800061FD5206F90B1B0F1005F09D08A
:102BD000B0F1805F29D1D8F81C0040F40030C8F86B
:102BE0001C0005E004F10800012101F031FC05465C
:102BF0002E464DB9D8F84000216F20F040500025F6
:102C00000843C8F840003E46E078C00725D0A06CD5
:102C100003280DD8DFE800F016021016D8F81C00C3
:102C200040F40030C8F81C000CE001250126EBE759
:102C300001254FF0010911E004F10800022101F023
:102C400007FC0546A9464DB9D8F83C00A16C20F018
:102C5000030000250843C8F83C00B146A0784006B0
:102C600001D44F4616E0D8F8F00340F48070C8F85D
:102C7000F003FFF771F80646D8F8F003C00507D453
:102C8000FFF76AF8801B6428F6D90325032701E0C3
:102C90002F4695B12078C00753D0E06F4FEAF0007F
:102CA00005283AD8DFE800F042033C42424204F1F2
:102CB0000800012101F0CCFB37E0D8F86010D4F80F
:102CC000B400414011F4407F11D0D8F86010D8F81A
:102CD000602042F48032C8F86020D8F8602021F4E7
:102CE000407122F48032C8F86020C8F86010B0F556
:102CF000807F40F05A82FFF72FF8064641F2883A6B
:102D000003250327D8F86000800700F14C82FFF705
:102D100023F8801B5045F5D9BCE70126012511E0B9
:102D200004F12800012101F017FC05462E464DB99B
:102D3000D8F84400E16F20F0380000250843C8F8B7
:102D400044003E462078800721D5A06F05280AD888
:102D5000DFE800F012030C12121204F10800012146
:102D600001F076FB07E00127012511E004F12800BE
:102D7000012101F0F1FB05462F464DB9D8F844007A
:102D8000A16F20F0070000250843C8F8440037462B
:102D90002078400723D5D4F8940005280AD8DFE826
:102DA00000F012030C12121204F10800012101F0CC
:102DB0004FFB07E00126012512E004F12800012164
:102DC00001F0CAFB05462E4655B9D8F84800D4F89C
:102DD000941020F0070000250843C8F848003E463C
:102DE0002078800625D5D4F890004FEA3070052869
:102DF0000AD8DFE800F012030C12121204F10800E6
:102E0000002101F025FB07E00127012512E004F174
:102E10002800022101F0A0FB05462F4655B9D8F83D
:102E20004400D4F8901020F0E04000250843C8F892
:102E3000440037462078400625D5D4F89C004FEA58
:102E4000B02005280AD8DFE800F012030C12121295
:102E500004F10800002101F0FBFA07E0012601253A
:102E600012E004F12800022101F076FB05462E460F
:102E700055B9D8F84800D4F89C1020F4E05000254B
:102E80000843C8F848003E462078000625D5D4F807
:102E9000A0004FEA703005280AD8DFE800F01203DE
:102EA0000C12121204F10800002101F0D1FA07E01F
:102EB0000127012512E004F12800022101F04CFB5A
:102EC00005462F4655B9D8F84800D4F8A01020F48C
:102ED000604000250843C8F84800374620680107CD
:102EE00016D5D4F88400B0F5805F09D104F128002C
:102EF000022101F031FB002818BF0127D4F884001B
:102F0000D8F8441021F440510843C8F84400206820
:102F1000C10616D5D4F89800B0F5807F09D104F128
:102F20002800022101F018FB002818BF0127D4F85F
:102F30009800D8F8481021F440710843C8F84800B8
:102F40002068000320D5D4F8A400B0F5003F0FD0CE
:102F5000B0F5803F06D070BB04F10800002101F0FD
:102F600077FA04E004F12800022101F0F5FA0546A1
:102F70002E4655B9D8F84800D4F8A41020F44030B3
:102F800000250843C8F848003E46A078400727D5EA
:102F9000D4F88800B0F5401F16D0B0F5001F0DD052
:102FA000B0F5801F40F0FA80D8F81C0040F40030E3
:102FB000C8F81C0008E001260125E6E704F1280016
:102FC000012101F0C9FA05462F4655B9D8F8440049
:102FD000D4F8881020F4401000250843C8F84400B5
:102FE0003746A078C00701D13E461FE0206DB0F5FE
:102FF000803F07D0C0B9D8F81C0040F40030C8F8B2
:103000001C0005E004F10800022101F021FA054648
:103010002E465DB9D8F83C00216D20F480300025A3
:103020000843C8F83C00DFE7012601252168880035
:1030300001D4606809E004F12800022101F08CFA53
:10304000002818BF0126D4E900108A031BD5D4F844
:1030500080206FF0010303EB3223022B0BD34FEAE6
:10306000322343B1012B40F09C80D8F81C3043F44C
:103070000033C8F81C303DB9D8F8443023F440730D
:103080001A43C8F844203546CA0207D5D8F840206C
:10309000636F22F000421A43C8F84020CA0008D5E6
:1030A000D8F80020D4F8B83022F480421A43C8F887
:1030B00000208A0207D5D8F84020E36E22F0807203
:1030C0001A43C8F840204A000CD5D8F8002022F452
:1030D0000042C8F80020D4F8BC20D8F800301A43C9
:1030E000C8F80020CA0F07D0D8F83C20636D22F042
:1030F00040521A43C8F83C20090208D5D8F84410B9
:10310000D4F88C2021F440011143C8F84410C107C1
:1031100008D004F10800002101F09AF9002818BF36
:1031200005466068810708D504F10800012101F017
:103130008FF9002818BF05466068410708D504F1DB
:103140000800022101F084F9002818BF05466068D4
:10315000010708D504F12800002101F0FDF900283D
:1031600018BF05466068C10608D504F12800012192
:1031700001F0F2F9002818BF05466068800607D5FF
:1031800004F12800022101F0E7F9002818BF012509
:10319000002D18BF01252846BDE8F087012701252D
:1031A0001FE7012570E7D4F8B4004FF6CF73D8F8C5
:1031B0000020C0F2FF0300F4407122F47C5203EAC5
:1031C00010136FF31F30B1F5407F08BF1A4300257D
:1031D000C8F80020D8F860100843C8F8600040E53F
:1031E0002DE9F04381B0002800F01B8142F2000875
:1031F0000446C5F200288946D8F8000000F00F0008
:1032000088420ED2D8F8000020F00F0040EA0900F2
:10321000C8F80000D8F8000000F00F00484540F062
:103220000081206844F200474107C5F602070AD52D
:103230002169BA6902F07002914204D9BA6922F098
:1032400070021143B96101070AD56169FA6902F098
:103250007002914204D9FA6922F070021143F961B7
:10326000C1060AD5A169FA6902F4E062914204D963
:10327000FA6922F4E0621143F96181060AD5E16935
:103280003A6A02F07002914204D93A6A22F070025E
:103290001143396210F002010AD0E268BB6903F001
:1032A0000F039A4204D9BB6923F00F031A43BA6192
:1032B000C20738D0B86920F47061D4E9010201284E
:1032C00041EA0201B96107D0032809D002280BD1D5
:1032D000396889030CD4A4E03968C90508D4A0E092
:1032E0003968890104D49CE03968490740F1998024
:1032F000396921F0070108433861FEF72DFD0646C4
:1033000041F288353869616800F03800B0EBC10FD0
:1033100006D0FEF721FD801BA842F3D9032081E0EF
:10332000206800F0020151B1E168BA6902F00F02B1
:10333000914204D2BA6922F00F021143B961D8F860
:10334000001001F00F0149450DD9D8F8001021F007
:103350000F0141EA0901C8F80010D8F8001001F087
:103360000F0149455DD141070AD52169BA6902F0CB
:103370007002914204D2BA6922F070021143B9611D
:1033800001070AD56169FA6902F07002914204D21C
:10339000FA6922F070021143F961C1060AD5A169E8
:1033A000FA6902F4E062914204D2FA6922F4E0621E
:1033B0001143F96180060AD5E069396A01F07001AC
:1033C000884204D2396A21F070010843386200F063
:1033D000A5F8B96947F65023BA69C9F20003C1F3E9
:1033E000032102F00F02595C9A5C01F01F0120FAE0
:1033F00001F102F01F0040F2040221FA00F0C2F2D3
:103400000042106040F2100040F20002C2F20040A0
:10341000C2F200420068116001B0BDE8F043FEF75F
:10342000DCBF012001B0BDE8F0833F22026044F21E
:103430001842C5F6020252F8083C03F00703436045
:10344000136803F470638360136803F00F03C360B1
:10345000136803F070030361536803F07003436162
:10346000536803F4E0638361926802F07002C26102
:1034700042F20000C5F20020006800F00F00086072
:10348000704780B500F04AF844F2184147F65023DF
:10349000C5F60201C9F200030A68096801F00F01CC
:1034A000C2F30322595C9A5C02F01F0220FA02F276
:1034B00001F01F0040F2040122FA00F0C2F20041C4
:1034C000086040F20001C2F200410A6080BD80B590
:1034D000FFF7D7FF44F21C4147F65022C5F6020120
:1034E000C9F200020968C1F30211515C01F01F0129
:1034F000C84080BD80B5FFF7C4FF44F21C4147F6C9
:103500005022C5F60201C9F200020968C1F3022186
:10351000515C01F01F01C84080BD000044F2004131
:10352000C5F602010869C0F3C20003280FD00228C3
:103530002CD080BB0868800649F20000C0F2D03071
:1035400058BF70470968C1F3C101C84070478A6A13
:10355000886AC0F3051CC86ABCF1000F4B6B1FD012
:1035600000F0010002F003024042022A00EAD30008
:103570006FF35F3000EE100AB8EE400A12D0A2B925
:103580000868800614D49FED261A1EE047F6400016
:10359000C0F27D10704740F60010C0F23D00704749
:1035A000002070479FED1D1A0FE09FED1B1A0CE0E5
:1035B000086849F20002C0F2D032C0F3C10022FA1A
:1035C00000F001EE100AB8EE411A086B9FED153AB3
:1035D0006FF35F2002EE100A086BC0F34620B8EECE
:1035E000422A013000EE032A00EE10CAB7EE003A7C
:1035F000B8EE400A81EE000A32EE031A20EE010A0C
:1036000001EE100AB8EE411A80EE010ABCEEC00AC3
:1036100010EE100A704700BF0024744A20BCBE4B55
:103620000024744C00000039F0B581B0002800F08F
:103630006F810446007844F20046C007C5F60206D2
:1036400021D12078800740F1B380306910F0380133
:10365000B06A3CD0182908BF5FEA807037D0E068B4
:10366000316800285CD021F0190108433060FEF772
:1036700073FB05463068400743D4FEF76DFB401BE3
:103680000228F7D981E1306900F03801B06A1029C9
:1036900005D018290AD100F00300022806D13068AD
:1036A0008003CED560680028CBD131E16068002866
:1036B00047D0B0F5A02F5BD0B0F5803F5CD030682C
:1036C00020F480303060306820F4802057E030688B
:1036D0004007E06802D5002800F01A81316821F027
:1036E000190108433060FEF737FB05463068400794
:1036F00007D4FEF731FB401B02284FF00300F5D939
:1037000044E1FEF722FB41F20301884246D82069DA
:103710007168402821F47C3147D141F4003046E003
:1037200021F001003060FEF717FB054630684007C6
:103730003ED5FEF711FB401B02284FF00300F5D9E0
:1037400024E1306820F480303060306820F480203C
:103750003060FEF701FB0546306880037FF571AFEE
:10376000FEF7FAFA401B64284FF00300F4D90DE18C
:10377000306840F480203060306840F48030306041
:10378000FEF7EAFA054600BF306880033FF559AFFF
:10379000FEF7E2FA401B6428F6D9F6E0706821696A
:1037A00020F0FE4040EA016001E041EA0030706034
:1037B0002078C00654D5306900F03801B06A082975
:1037C00005D0182919D100F00300012815D130685F
:1037D000C00503D5E069802840F09A80FEF7B5FA6D
:1037E00041F2030188421ED8206A7168202821F026
:1037F000F84132D141F0804031E0E0690028306882
:1038000019D040F080003060FEF7A6FA054600BFF0
:103810003068C005E2D4FEF79FFA401B02284FF043
:103820000300F5D9B2E0F068216A20F07C5040EA4C
:103830000160F06014E020F080003060FEF78CFA48
:10384000054600BF3068C0050AD5FEF785FA401B63
:1038500002284FF00300F5D998E041EA80607060DB
:103860002078000756D42078800666D42078400758
:1038700078D4656A002D49D0306900F038001828E6
:1038800040F0BA80012DB16A306B41D001F00302E3
:10389000A36A9A423CD1C1F30511E26A914237D141
:1038A0000146226B6FF35F21013A914230D1C0F3A0
:1038B0004622616B01398A422AD1C0F30642A16BCC
:1038C00001398A4224D1C0F30660E16B0139884294
:1038D0001ED1706BA16CC0F3CC00814216D0F06A8F
:1038E00020F00100F062FEF737FA0546FEF734FAE1
:1038F000A842FBD0706B4FF6F871A26C884340EA87
:10390000C2007063F06A40F00100F06200203DE008
:1039100001203BE060690028706F39D040F0010061
:103920007067FEF719FA0546706F80079BD4FEF7A3
:1039300013FA401B0228F7D927E0A0690028306855
:1039400047D040F480503060FEF706FA054600BFCD
:10395000306880043FF58AAFFEF7FEF9401B02286D
:10396000F6D912E0D6F8000440F48070C6F80004DE
:10397000FEF7F2F9054600BFD6F80004C00519D4D9
:10398000FEF7EAF9401B6428F6D9032001B0F0BD28
:1039900020F001007067FEF7DFF90546706F8007C1
:1039A0007FF561AFFEF7D8F9401B02284FF0030006
:1039B000F4D9EBE7A068002840D0052857D00128AB
:1039C00059D0306F20F001003067306F20F00400D4
:1039D00054E020F480503060FEF7BEF9054600BF89
:1039E000306880047FF542AFFEF7B6F9401B02282D
:1039F0004FF00300F4D9C9E7306820F080703060E0
:103A0000FEF7AAF9022D05460CD100BF30688001EF
:103A100046D5FEF7A1F9401B02284FF00300F5D967
:103A2000B4E700BF306880017FF570AFFEF794F90E
:103A3000401B02284FF00300F4D9A7E7306F20F0B5
:103A400001003067306F20F004003067FEF784F922
:103A5000054641F28837306F80077FF50AAFFEF7E1
:103A60007BF9401BB8424FF00300F4D98EE7306F6A
:103A700040F004003067306F40F001003067FEF71F
:103A80006BF9054641F28837306F80073FF5F1AE9C
:103A9000FEF762F9401BB8424FF00300F4D975E716
:103AA00004F12807B06A40F2F33188438ECF08430F
:103AB000591E40EA02104FF47E426FF35F21B0625C
:103AC00002EB47204FF4FE0280B2E36B0844A16B87
:103AD00002EB01414FF0FE4201F4FE0102EB0362F2
:103AE000084402F0FE4108443063F06A4FF6F87172
:103AF00020F00100F062706BA26C884340EAC200C3
:103B00007063F06A216C20F00C000843F062F06AE8
:103B1000616C20F002000843F062F06A40F48030EB
:103B2000F062F06A40F40030F062F06A40F4802005
:103B3000F062F06A40F00100F062306840F080709E
:103B40003060FEF709F90446306880013FF5DEAECB
:103B5000FEF702F9001B02284FF00300F4D915E725
:103B600070477047704760B310B5044690F83D0049
:103B700028B9002084F83C00204600F024F80220F8
:103B800084F83D002068211D00F053FE012084F8D8
:103B9000480084F83E0084F83F0084F8400084F830
:103BA000410084F8420084F8430084F8440084F81B
:103BB000450084F8460084F8470084F83D00002062
:103BC00010BD01207047704790F83D10012919D1B0
:103BD000022180F83D10016841F2FF70C4F200003C
:103BE0008142C86840F00100C8600DDC40F2FF70FF
:103BF000C4F20000814215DCB1F1804F29D040F2BF
:103C0000004017E00120704740F2FF30C4F201008D
:103C1000814212DC41F60000C4F20000814218D05B
:103C2000002012E040F60000C4F20000814210D0F3
:103C300040F60040C4F2000009E044F20000C4F283
:103C40000100814205D040F20040C4F201008142EF
:103C50000BD107228868C0F2010202400020062A28
:103C600018BFB2F5803F00D17047086840F00100EE
:103C7000086000207047704710B50446006801696D
:103C8000890744BFC1685FEA81713FD40169490770
:103C900044BFC1685FEA417144D40169090744BF68
:103CA000C1685FEA01714AD40169C90644BFC168AD
:103CB0005FEAC1614FD40169C9071CBFC1685FEAEF
:103CC000C17155D10169090644BFC1685FEA01614C
:103CD00056D40169C90544BFC1685FEA016157D480
:103CE0000169490644BFC1685FEA416158D401696E
:103CF000890646BFC1685FEA816110BD6FF020018F
:103D000001612046BDE81040FFF72CBF6FF00201B3
:103D10000161012121778069800749D02046FFF7A2
:103D2000AAFF4BE06FF00401016102212177806955
:103D300010F4407F46D02046FFF79DFF48E06FF02B
:103D40000801016104212177C069800744D0204621
:103D5000FFF791FF46E06FF0100101610821217724
:103D6000C06910F4407F41D02046FFF784FF43E054
:103D70006FF001010161204600F044F82068A1E7DE
:103D80006FF0800101612046FFF7EBFE2068A0E79D
:103D90006FF4807101612046FFF7E2FE20689FE723
:103DA0006FF040010161204600F036F820689EE780
:103DB000204600F025F8204600F023F80020207768
:103DC000206863E7204600F01BF8204600F019F851
:103DD00000202077206860E7204600F011F8204698
:103DE00000F00FF80020207720685DE7204600F003
:103DF00007F8204600F005F80020207720685AE7F1
:103E00007047704741F200410068C4F200018842E7
:103E100018BF7047FEF7A3BA704790F884100129C5
:103E200001D1022112E02421C0F888100268136831
:103E3000116823F0005321F0010111600021416657
:103E400013602022C0F8882080F88410084670474C
:103E5000B0B5044690F88400012801D10220B0BD1D
:103E6000012084F884002420C4F8880020680568B4
:103E7000026822F001020260826822F0606211434F
:103E80008160204600F06EFD206805602020C4F8A7
:103E90008800002084F88400B0BDB0B5044690F8D6
:103EA0008400012801D10220B0BD012084F88400E3
:103EB0002420C4F8880020680568026822F0010206
:103EC0000260826822F0604211438160204600F067
:103ED00049FD206805602020C4F88800002084F88F
:103EE0008400B0BD10B5B0B10446D0F8880028B940
:103EF000002084F88400204600F026F82420C4F82E
:103F000088002068016821F001010160204600F06E
:103F10003DFE012801D1012010BDA06A10B120464C
:103F200000F047FD2068416821F4904141608168BC
:103F300021F02A018160016841F001010160204601
:103F4000BDE8104000F098BD10B5B6B06946044613
:103F500001F10800B821FCF7A8FD41F2000120683A
:103F6000C4F2010188422ED101200090684600244D
:103F70000194FEF787FC08B1FDF76EFD44F2E040C6
:103F8000C5F60200016941F010010161016901F00B
:103F9000100131913199016841F00101016000681F
:103FA00031A900F00100319031984FF4C060319098
:103FB0000220CDE932040720359000203494C5F664
:103FC0000200FDF7E7FD36B010BD00002DE9F0411D
:103FD00082B00446D0F8880020281ED10D46002962
:103FE0004FF001004ED01746002A4BD098460020D3
:103FF000C4F890002120C4F88800FDF7ADFEA4F8B5
:104000005470A4F856700746A168B1F5805F01D1DD
:10401000206920B12E46002502E0022032E0002671
:10402000B4F85600D8B18021002220463B46CDF896
:10403000008000F04FFF08BB26B1206816F8011B76
:10404000816206E035F8020B216800266FF35F20DD
:104050008862B4F856000138A4F85600E0E7402121
:10406000002220463B46CDF8008000F033FF20219F
:104070000028C4F8881018BF032003E02020C4F8EB
:104080008800032002B0BDE8F0810000FEE70000D8
:10409000F0B581B0044600688369DB0602D40021D4
:1040A000002239E00D461021C161816989062FD4B3
:1040B00016466F1C2FB1FDF74FFE3DB1801BA84285
:1040C00004D8206881698906F4D521E02068426817
:1040D00094F8421083691B040CD512F4804209D174
:1040E000202907D0416841F480414160FDF734FE4A
:1040F000064600BF206880698006E2D4FDF72CFEEA
:10410000801B1928F6D9206801228169242103E047
:104110002021C161012204218369DF0505D541F019
:1041200001014FF48072C26101225F0504D49B0536
:1041300009D46AB900202AE041F008019A054FF439
:104140008062C26104D541F002014FF40072C26185
:104150008269920701D5002282628269D20703D167
:10416000826942F0010282614EF600034268CFF696
:1041700000631A404260606C08436064202084F849
:104180004100002084F8420084F84000012001B082
:10419000F0BD00002DE9F04704688046A0690840A2
:1041A000401AB0FA80F04009904223D10D461646DD
:1041B0001F46DDF8209003F1010A00BFBAF1000F9D
:1041C00010D0FDF7C9FDD8F800401FB1A0EB0900E1
:1041D000B84207D9A0692840401BB0FA80F04009D6
:1041E000B0420AD0A0692840401BB0FA80F04009D4
:1041F000B042E3D00020BDE8F087D8F8440040F09A
:104200002000C8F84400202088F84100002088F8E9
:10421000420088F840000120BDE8F08770B50446F0
:1042200000688069800614D415460E462046314643
:104230002A46FFF72DFFD0B9FDF78EFD216816B194
:10424000401BB04202D98869800604D5886980067F
:10425000ECD5002070BD606C40F020006064202030
:1042600084F84100002084F8420084F840000120D6
:1042700070BD0000F0B581B0044600688069800719
:1042800017D415460E464F1C204631462A46FFF7E6
:10429000FFFEE0B94FB1FDF75FFD16B1401BB04224
:1042A00003D920688069800705D520688069800768
:1042B000EAD500200CE0606C40F020006064202013
:1042C00084F84100002084F8420084F84000012076
:1042D00001B0F0BD70B586B044F2E0400026C5F6EE
:1042E00002000024CDE904660168C5F6020441F02D
:1042F00004010160016801AD01F004010091009921
:10430000016841F002010160016801F002010091C1
:104310000099016841F001010160016801F00101AB
:1043200000910099016841F0800101600068294610
:1043300000F08000009000984FF40050CDE9010695
:1043400004F500600396FDF725FC01202946CDE920
:10435000010620460396FDF71DFC06B070BD10B5A2
:1043600040F6944445F20040C2F2004440F6247105
:10437000C4F20000C3F2B701C4E900010020A0604C
:104380000120E06004F110001421FCF78EFB2046B0
:10439000FDF74BFD08B1FDF75FFB40F694400021AF
:1043A000C2F20040FDF7DEFC08B1FDF755FB40F618
:1043B00094400021C2F20040FDF7F9FC18B1BDE8BD
:1043C0001040FDF749BB10BD00F06EBF10B540F6C0
:1043D000345441F20000C2F20044C4F2010014213E
:1043E00020604FF4E13060600020C4E902002061E9
:1043F0000C20606104F11800FCF757FB2046FFF722
:1044000071FD08B1FDF728FB40F634500021C2F2DF
:104410000040FFF742FD08B1FDF71EFB40F63450A7
:104420000021C2F20040FFF713FD08B1FDF714FBB5
:1044300040F63450C2F20040FFF7EFFC18B1BDE87F
:104440001040FDF709BB10BDFEE70000FEE70000CD
:10445000F0B581B044F20047C5F60207BA6A02F02F
:104460000302032A01D1012073E0054638680C4697
:1044700020F080603860FDF76FFC06463868000168
:1044800005D5FDF769FC801B0228F7D95EE0B86A04
:10449000EE6895E80E0020F47C30012C40EA0130F3
:1044A000A2F101016FF35F214FF47E4202EB432240
:1044B000B86292B24FF0FE4302EB01004FF4FE01EE
:1044C0002A6901EB064101F4FE0103EB0262084494
:1044D00002F0FE410844B863F86A696920F0C00040
:1044E00040EA0100F862F86AA96920F0200040EA79
:1044F0000100F862F86A4FF6F87120F01000F862D7
:10450000F86BEA6920EA01004FF4001140EAC200AA
:10451000F863F86A08BF4FF4801140F01000002CD7
:10452000F86208BF4FF40021F86A0843F86238685F
:1045300040F080603860FDF70FFC044638680001E9
:1045400006D4FDF709FC001B0328F7D3032000E085
:10455000002001B0F0BD0000F0B581B044F200478A
:10456000C5F60207BA6A02F00302032A01D101204C
:1045700073E0054638680C4620F080503860FDF73F
:10458000EBFB06463868800005D5FDF7E5FB801B90
:104590000228F7D95EE0B86AEE6895E80E0020F0D0
:1045A0007C70012C40EA0150A2F101016FF35F2100
:1045B0004FF47E4202EB4322B86292B24FF0FE43C8
:1045C00002EB01004FF4FE012A6901EB064101F400
:1045D000FE0103EB0262084402F0FE410844386425
:1045E000F86A696920F4406040EA0100F862F86AFC
:1045F000A96920F4007040EA0100F862F86A4FF6F9
:10460000F87120F48070F862786CEA6920EA0100A1
:104610004FF0807140EAC2007864F86A08BF4FF436
:10462000000140F48070002CF86208BF4FF4800154
:10463000F86A0843F862386840F080503860FDF747
:104640008BFB04463868800006D4FDF785FB001B11
:104650000328F7D3032000E0002001B0F0BD0000E4
:10466000B0B59CB044F6180440F22C4509A84C2182
:10467000C5F60204C5F60005FCF717FA01A82021CB
:10468000FCF713FA0220FDF7A1FF00200090286834
:1046900020F001002860286800F0010000902068E8
:1046A00040F440402060206800F4404000900098B2
:1046B00020688004FCD54FF6DC40CFF6FF7021580F
:1046C00041F002012150205800F0020000900098B3
:1046D00000200090206840F440402060206800F4F2
:1046E00040400090286840F001002860286800F0F1
:1046F00001000090009800BF20688004FCD50120D4
:1047000009904FF480300A9002200521CDE9120073
:104710001491C021CDE91510CDE9170009A808248E
:1047200019940025CDE91A55FEF77EFF18B1EFF375
:10473000108072B6FEE73F20019003204FF48061A5
:10474000CDE9020540200494CDE90500CDE907102C
:1047500001A80421FEF744FD18B1EFF3108072B6F2
:10476000FEE71CB0B0BD4EF6885042F2000CCEF20F
:104770000000C5F2002C016841F470010160DCF812
:10478000000000F00F00062806D8DCF80000072122
:1047900061F30300CCF8000044F200404EF67F5273
:1047A000C5F60200CEF6F622016841F00101016073
:1047B0000021016103681A400260DCF80020120742
:1047C00006D5DCF80020072363F30302CCF80020B1
:1047D00040F200228161C161C0F202220162826264
:1047E0000022C0F2FF12C26240F28022C0F2011227
:1047F000026341638263C16302644164026822F41C
:1048000080220260016641F20000C5F600400068A7
:10481000B1EB507F18BF704748F208100121C5F274
:1048200000100160704740F6E840C2F20040FFF718
:1048300023BA10B540F6FF32C4F20002904202687B
:104840000DDCB0F1804F1BD040F20043C4F20003F6
:10485000984215D040F60003C4F200030EE040F683
:104860000043C4F2000398420AD040F20043C4F26D
:104870000103984204D00023C4F20103984203D1FB
:1048800022F070024B681A434FF6FF7343F6FF7C29
:10489000C4F20003C4F2010C984210DD60451ADD39
:1048A00044F20003C4F2010398422AD044F6000304
:1048B000C4F20103984224D044F2004312E040F2D3
:1048C000FF73C4F2000398420FDCB0F1804F18D0A0
:1048D00040F2004311E00023C4F20103984210D0DB
:1048E00040F20043C4F2010309E040F60003C4F2C1
:1048F0000003984205D040F60043C4F200039842FA
:1049000003D122F44072CB681A4322F080024C6932
:104910006045D1F800E08B6842EA04020260C3629D
:10492000C0F828E00EDD44F20002C4F20102904219
:1049300013D044F60002C4F2010290420DD044F2BA
:10494000004206E00022C4F20102904205D040F28B
:104950000042C4F20102904201D1096901630121C0
:10496000416110BD80B5416EE1B1016847F6782C18
:10497000C9F2000C47F6802E8A68C9F2000E8968D9
:10498000490FC2F342621CF801301EF801101B01EE
:10499000B3FBF1F11CF802301EF802201B01B3FB3F
:1049A000F2F201E001210122A0F86A10A0F86820CB
:1049B00080BD816ACA0708D00268D0F82CC053684D
:1049C00023F4003343EA0C0353608A0708D50268D6
:1049D000D0F830C0536823F4803343EA0C035360AB
:1049E0004A0708D50268D0F834C0536823F48023FE
:1049F00043EA0C0353600A0708D50268D0F838C0B0
:104A0000536823F4004343EA0C035360CA0608D5F5
:104A10000268D0F83CC0936823F4805343EA0C0347
:104A200093608A0608D50268D0F840C0936823F4E2
:104A3000005343EA0C0393604A0612D50268D0F88B
:104A400044C0BCF5801F536823F4801343EA0C0371
:104A5000536006D1536823F4C00C836C43EA0C0303
:104A60005360090658BF70470168C06C4A6822F459
:104A70000022104348607047B0B582B00446002061
:104A8000C4F89000FDF768F9216805460A68120726
:104A900019D54FF4001100226FF07E40009020469F
:104AA0002B4600F017FA68B1206850E8000F216823
:104AB00020F0800041E80002002AF5D12020C4F84F
:104AC000880026E021680868400724D54FF480015B
:104AD00000226FF07E40009020462B4600F0FAF94D
:104AE000C8B100BF206850E8000F216820F4907022
:104AF00041E80002002AF5D1206850E8020F216841
:104B000020F0010041E80202002AF5D12020C4F87B
:104B10008C00032007E02020C4F88800C4F88C0033
:104B20000020E0662067002184F8841002B0B0BD48
:104B3000016851E8001F026821F4907142E80013F7
:104B4000002BF5D14FF6FE7CCEF6FF7C026852E8D2
:104B5000022F036802EA0C0243E802210029F5D182
:104B6000C16E01290AD100BF016851E8001F026827
:104B700021F0100142E80013002BF5D12021C0F8EC
:104B80008C100021C166416770470000F0B583B00A
:104B90000446006846F6F31640F6004E2269E769BF
:104BA000D4E902130A4361690568CCF6FF76114324
:104BB00005EA06021143C5F6000E3943016041685B
:104BC000704521F4405144F2004C41EA0301416038
:104BD000A2694FF2FF431CBF216A0A438168C1F2F8
:104BE000FF13194047F2FF7311438160C16AC4F299
:104BF0000003C5F6020C21F00F01626A98424FF0E3
:104C0000800341EA0201C1621EDD40F6FF71C4F279
:104C10000101884227DD704547D041F20041C4F2CE
:104C20000101884205D041F20001C4F2010188422D
:104C300044D1DCF85410C1F3C203062B3DD247F631
:104C40004421C9F200012DE044F6FF31C4F2000115
:104C5000884211DC44F20041C4F20001884217D0BE
:104C600044F6000110E047F60001C4F2000188425A
:104C70000ED047F6004107E044F60041C4F20001BF
:104C8000884205D045F20001C4F20001884215D1E6
:104C9000DCF8541001F00703062B0ED247F64A2128
:104CA000C9F200010B441B7808E0DCF8581001F051
:104CB0000703062B01D285A1F4E78023704540F657
:104CC0000010C0F23D0013D0B7F5004F1FD10F2BDD
:104CD0004FF0010136DC082B00F2D380DFE803F04F
:104CE0000584D1D187D1D1D18B00FEF7F0FB86E0CE
:104CF0000F2B4FF001011BDC022B39D0042B3AD0D3
:104D0000082B40F0BE806846FDF72AFD36E00F2BE9
:104D10004FF0010121DC082B00F2B380DFE803F043
:104D2000058CB1B18FB1B1B19300FEF7D0FB8EE02D
:104D3000102B4BD0202B25D0402B40F0A2804FF4DD
:104D400000401FE0102B00F0A580202B59D0402BF5
:104D500040F097804FF4004053E0102B00F0A88003
:104D6000202B76D0402B40F08C804FF4004070E038
:104D7000FDF750FC03E06846FDF760FC0198002851
:104D80007CD0626A47F66021C9F2000131F8121046
:104D90006268B0FBF1F002EB420188424FF0010182
:104DA0006FD3130398426CD8010E0023000210EB5E
:104DB000520041F10001FBF7C0FC4FF60052A0F594
:104DC0004071C0F20F02914256D359E0DCF8000066
:104DD000800649F20000C0F2D030D3D5DCF80010D4
:104DE000C1F3C101C840CDE7FEF784FB07E0684688
:104DF000FDF724FC02E06846FDF7B2FC0198E8B339
:104E0000626A47F66021C9F2000131F81210B0FB66
:104E1000F1F061684A0802EB40004FF6EF72B0FB18
:104E2000F1F0A0F1100191422AD84FF6F071014043
:104E3000C0F3420008441FE0FEF75CFB07E0684651
:104E4000FDF7FCFB02E06846FDF78AFC0198A8B17B
:104E5000626A47F66021C9F2000131F812106268F7
:104E6000B0FBF1F000EB5200B0FBF2F0A0F110014A
:104E70004FF6EF72914203D82168C860002100E02C
:104E800001214FF00110A0660020C4E91D00084672
:104E900003B0F0BDDCF80000800649F20000C0F26B
:104EA000D030AED5DCF80010C1F3C101C840A8E78E
:104EB000DCF80000800649F20000C0F2D030C8D50E
:104EC000DCF80010C1F3C101C840C2E702040810B9
:104ED000204000002DE9F047804600680D46C76974
:104EE0003940491BB1FA81F14909914223D1DDF8DA
:104EF000209016469A4609F1010703249FB1FCF75A
:104F00002BFFB9F1000F17D0A0EB0A00484513D8CA
:104F1000D8F800000168490705D5C16909070ED412
:104F2000C16909050FD4C1692940491BB1FA81F152
:104F30004909B142E2D000242046BDE8F0870124AF
:104F40000821082503E0032420254FF400610162B5
:104F50004046FFF7EDFDC8F89050002088F8840027
:104F6000EAE70000FEE7704740F2E8000121C2F2E4
:104F70000040016041F2040040F2EC01CEF200007A
:104F8000C2F20041006808607047B0B540F2F80016
:104F9000C2F2004001680131016040F20801C2F232
:104FA00000410968EFF3058211435ED000680128D3
:104FB00018BFB0BD41F2040040F23811CEF200003B
:104FC000C2F200410068096851B3D1F8B820002A44
:104FD00046D0851A4FF0000ED1E92C3C5B195CF1EC
:104FE000000240F2081C5EF10004C2F2004C18BF3F
:104FF0004FF0FF33C1F8B030DCE9004318BF0022A6
:105000006419C1F8B8E053F10003C1F8B4205EF1AF
:1050100000011CBF00234FF0FF34CCE900431FE028
:1050200040F2E801C2F200410A68CAB140F2EC0263
:1050300040F2F00CC2F20042C2F2004C1268821A36
:10504000DCE90054521954F100054FF0000454F10A
:1050500000031CBF00254FF0FF320C60CCE9002597
:1050600040F2FC01C2F200410860B0BDB0B540F2B0
:10507000080040F2F80EC2F20040C2F2004E006892
:10508000EFF305810843DEF800104BD0012949D128
:1050900041F2040C40F2FC00CEF2000CC2F20040DF
:1050A000DCF8003000684242834238BFC243D01867
:1050B00040F20012C2F20042D2E90045001955F157
:1050C00000044FF0000555F100051CBF00244FF00F
:1050D000FF30C2E9000440F23810C2F2004002681A
:1050E00040F23C10C2F2004000686AB1824209D02E
:1050F00040F24814C2F200442468002C18BFC2F8E1
:10510000B83001E0C2F8B83060B940F2EC02DCF827
:105110000000C2F20042106040F2E800C2F200401B
:1051200001220260481ECEF80000B0BD80B541F2F9
:10513000040040F2381240F2E80ECEF20000C2F253
:105140000042C2F2004E01681268DEF80030C2F878
:10515000B810D3B140F2EC0240F2F00CC2F20042BF
:10516000C2F2004C1268891ADCE90032C9184FF00B
:10517000000352F1000253F100001CBF00224FF067
:10518000FF31CEF80030CCE9001280BDB0B540F25E
:105190003810C2F200400168A1B341F2040CCEF213
:1051A000000CDCF80020D1F8B8302BB3D21A4FF045
:1051B000000ED1E92C309B1850F100005EF1000484
:1051C00018BF4FF0FF33C1F8B03040F20813C2F2FD
:1051D0000043D3E9004518BF00201219C1F8B8E018
:1051E00055F10004C1F8B4005EF100001CBF0024BA
:1051F0004FF0FF32C3E9002440F23C10C2F20040FD
:10520000006800B1B0BD40F2EC01DCF80000C2F271
:105210000041086040F2E800C2F200400121016054
:10522000B0BD80B500F0DEFB01F00EF840F22810B2
:105230000021C2F20040016040F22410C2F200409E
:10524000016040F22010C2F20040016040F21C10E8
:10525000C2F20040016040F2E400C2F2004001608E
:1052600040F2E000C2F20040016040F2D000C2F221
:105270000040016040F2CC00C2F20040016040F208
:10528000DC00C2F20040016040F2D800C2F20040EF
:10529000016040F21810C2F20040016040F21410A8
:1052A000C2F20040016080BD10B540F20804C2F2B5
:1052B0000044206810F10F3F0DD04FF0F030206017
:1052C000FBF7C6F8FFF7ADFF40F24810C2F200400E
:1052D0000168013101604FF0F030206040F21010A1
:1052E000C2F20040006801F0C9FE00202060FFF714
:1052F0003BFEBDE81040FBF70BB9B0B50D460446C8
:10530000FBF7F6F845F2FB22A16EC9F200029142CA
:1053100031D1D4F8BC10A9422DD1E16E59B345F278
:1053200045430A68C4F655539A4224D1CB6913B356
:105330000022013BA266CB6108D0D4E91C238D6911
:105340005367A5421A6708BF8A6100E08A61216B32
:105350000D2910D11D21C4F8841040F24811C2F269
:1053600000410A6801320A60FBF7CAF8204600F0E3
:1053700084FCFBF7BDF8BDE8B040FBF7C1B870B5E1
:105380000E46342115460446FBF78FFB6660256107
:10539000FBF7AEF845F2454140F24413C4F65551CF
:1053A000216040F21411C2F20043C2F2004145F6FE
:1053B0005506C9F200061E600A6840F21813C2F2D0
:1053C00000432AB11E68756A746205F1200301E08A
:1053D000264625461C600132C4E908650A60FBF7D1
:1053E0008FF8002070BDF0B581B00F460546FBF781
:1053F0007FF840F23812A968C2F20042146871B115
:10540000EE68A6422BD037B140F2481CC2F2004CE5
:10541000DCF8002052B3FBF773F81D2024E04FF0B6
:105420000101A960EC60E4B12969012903D1E16AB5
:1054300069612021A96221462F462A4651F8A43FDE
:1054400023B11A6B1F4602F12C011D630D60C5E9E3
:105450000B72D4F8A0100131C4F8A01001E00131A2
:10546000A960FBF74DF8002001B0F0BD45F2FB222A
:10547000D4F8BC30C9F200020133C4E91A25EA6944
:10548000C4F8BC3032B1AB69236753F8741F61674D
:105490000C6703E0AC6104F1740324671C60511CC9
:1054A000E9610D2121630121A163E764DCF80010AB
:1054B0000131CCF80010FBF723F82869012810D13E
:1054C000A86AE16A884288BFA962D6F89C00814236
:1054D00038BFC6F89C10F06A884202D9304600F006
:1054E00068F8204600F0B0FCD4F88400BCE7000067
:1054F0002DE9F04F81B08246FAF7FAFFDAF81C90F6
:10550000B9F1010F0DD9DAF818B0B9F1020FDBF8D3
:10551000707009D1F96ADBF82C20914201D2CAF8E7
:105520001870FAF7EDFF40E040F248185D46C2F20D
:105530000048D8F800100131C8F80010FC6ADBF808
:105540002C60FAF7DDFFFAF7D3FFDAF818108D4276
:1055500002D0DAF81C2009E0DAF81C20B44238BF87
:10556000BB46914502D1394603E000BF8B460D464C
:1055700091460F6FAF42E1D1D8F80010AB45A1F1D1
:105580000101C8F800100CD0DBE91C12CAF818B0F1
:105590004A671167696FCBE91C51C1F870B0C5F853
:1055A00074B0FAF7ADFF00F01AFB002001B0BDE8BF
:1055B000F08F2DE9F0410D460446FAF799FF216B73
:1055C00051B1D4F89810E562A94238BF0D46E563A1
:1055D000BDE8F041FAF794BF40F23C1640F24811A2
:1055E000C2F20046C2F20041D4F82C8037680A6843
:1055F00002320A600E2121630121A1630021E164CE
:10560000FAF77EFF204600F01FFCFAF771FFD4F88E
:105610009810E562A94228BF2946E163FAF770FFB6
:10562000204600F02AFBFAF763FF3268A242CFD08F
:10563000216B0029CCD1E16AD26A914205D9E36B92
:105640008B42C5D2934202D9C2E7A742C0D1A84536
:105650003460BDD240F24C12C2F2004242F8214006
:10566000B6E700002DE9F0410446FAF741FFA168D2
:10567000A1B140F23812E668C2F2004212689642C6
:1056800005D040F24812C2F20042126832B101392C
:10569000A16009D0FAF734FF002502E0FAF730FFE5
:1056A0001E252846BDE8F081002EF3D0D6F8A010C4
:1056B0000139C6F8A0100AD0D4E90B12D6F8A430EC
:1056C0000A63A342D16208BFC6F8A41002E0002119
:1056D000C6F8A410A1690029216908BF00294AD091
:1056E0000129D6F8948024D140F24817C2F200472D
:1056F000396801313960FAF703FFD6F8A400202594
:1057000060B101460A69012A03D18A6AAA4238BFF8
:105710001546C96A814218BF0029F3D1FAF7E8FE9D
:1057200039684545A1F101013960C6F89C5038BF80
:10573000A846E169022913D32169012910D140F259
:105740004815C2F20045296801312960FAF7D8FEF0
:105750002046FFF7CDFEFAF7CBFE29680139296014
:10576000A6696EB12169012929D1E768F16A6161F1
:105770002021A16224E00025E560FAF7C1FE90E750
:1057800040F24815C2F20045296801312960FAF754
:10579000B7FEE068C16A41454FF02001A16202D026
:1057A0004146FFF706FFFAF7A3FE29680139296091
:1057B0000025E560FAF7A4FE00F011FA71E7002772
:1057C000D6F8A01006F1A40229B113681D6B1C6362
:1057D00005F12C0201E02346254614600131C4E99D
:1057E0000B35C6F8A0100121A160E1690139E6601E
:1057F000E16105D0D6E91C12A1614A67116701E099
:105800000021A1610021B166C6F8841040F2481160
:10581000C2F200410A6801320A60FAF771FE20699B
:10582000012813D1E06950B12046FFF761FEFAF775
:105830005FFEA16909B1C96AA162FAF761FEF86A5F
:10584000404503D038464146FFF7B3FE304600F0EE
:1058500014FA21E7F0B581B00446FAF749FE40F2A8
:1058600048160127C2F20046316801313160D4F890
:10587000A45000BF5DB1AF60FAF742FE2846FFF7C3
:10588000F1FEFAF735FED4F8A450002DF2D13168BC
:105890000139316001B0BDE8F040FAF731BE2DE9C1
:1058A000F04F81B00AAF91468B460446E0CFEF221D
:1058B000284631469846FBF7F0F8E81C26F003012D
:1058C00020F0030A6FF00700AA4508BF6FF003003D
:1058D0004518C0212046FBF7E8F805EB0A00C4F89C
:1058E0000CA001380E99C4E904050D98A161874206
:1058F0003846C4E91198C4E90AB7E1614FF02001C4
:1059000018BF0020C4F89470E063C4E926010320A6
:10591000206346F2DD1045F66921C9F20000C9F2A4
:105920000001C4E915042046FAF772FEA068C4F825
:10593000A800FAF7DDFD45F2442140F23413C5F228
:105940004841216040F23011C2F20043C2F20041EE
:105950000A683AB11B68D3F88C70C3F88C40C7F85A
:10596000884002E01C602346274640F248150F9EFF
:10597000C2F200450132C4E922370A60012E2968CB
:1059800001F10101296014D140F20801C2F2004185
:105990000968EFF305821143B1F1F03F15D340F2EE
:1059A0003C11C2F200410D687DB1EE6BE96AE9631A
:1059B0000DE0FAF7A5FDFAF79BFD2968013929608A
:1059C000FAF79EFD00F00BF908E000250026FAF733
:1059D00097FD204600F051F905B1EE63002001B0BB
:1059E000BDE8F08F10B540F238100024C2F200403C
:1059F0002021046040F23C10C2F20040046040F2FA
:105A0000CC10C2F20040046040F24010C2F20040EC
:105A1000016040F24C10C2F200408021FBF745F8D3
:105A200040F2341040F22C11C2F20040C2F20041A8
:105A3000046040F23010C2F20040046040F24810AE
:105A4000C2F20040046040F24410C2F200400C6018
:105A5000046040F2D400C2F20040026842F08D714E
:105A600041F08001016010BD10B540F23810C2F263
:105A700000400468D4E91110884740F24410C2F293
:105A80000040016809B120468847FAF731FD01213D
:105A90002163A1630021E16440F24811C2F2004198
:105AA0000A6801320A60FAF72BFDEFF3148020F048
:105AB000040080F314882046BDE8104000F0C4B90B
:105AC000B0B50546FAF714FD40F23811C2F20041B4
:105AD0000C6844B140F20801C2F200410968EFF3DA
