:0200000490006A
:10000000A07B00245504009079F60090C1E7009091
:1000100071F6009021230090391901900000000032
:1000200000000000000000000000000067040090D5
:10003000212D0090000000007D0500903305009008
:100040006F0400906F0400906F0400906F040090A4
:100050006F0400906F0400906F0400906F04009094
:100060006F0400906F0400906F04009029230090AB
:1000700039230090492300906F0400906F04009092
:100080006F0400906F0400906F0400906F04009064
:100090006F0400906F0400906F0400906F04009054
:1000A0006F0400906F0400906F0400906F04009044
:1000B0006F0400906F0400906F0400906F04009034
:1000C0006F0400906F0400906F0400906F04009024
:1000D0006F04009019190190291901906F04009084
:1000E0006F0400906F040090000000006F04009007
:1000F0006F0400906F0400906F0400906F040090F4
:100100006F0400906F0400906F0400906F040090E3
:100110006F0400906F0400906F040090A1FE0090A7
:100120006F0400906F0400906F0400906F040090C3
:100130006F040090512E0090E93100906F04009000
:1001400000000000000000000000000000000000AF
:100150006F0400906F0400906F0400906F04009093
:100160006F0400906F0400906F0400906F04009083
:100170006F0400906F0400906F0400906F04009073
:100180006F0400906F0400906F0400906F04009063
:100190006F0400906F0400906F0400906F04009053
:1001A0006F0400906F0400906F0400906F04009043
:1001B0006F0400906F0400906F0400906F04009033
:1001C0006F0400906F0400906F0400906F04009023
:1001D0006F0400906F0400906F0400906F04009013
:1001E0006F0400906F0400906F0400906F04009003
:1001F0006F0400906F0400906F0400906F040090F3
:100200006F0400906F0400906F0400906F040090E2
:100210006F0400906F0400906F0400906F040090D2
:100220006F0400906F0400906F04009000000000C5
:100230006F0400906F04009000000000F91D009012
:100240006F0400906F0400906F0400906F040090A2
:100250006F0400906F0400906F0400906F04009092
:100260006F0400906F0400906F0400906F04009082
:100270006F0400906F0400906F0400900000000075
:100280006F0400906F0400906F0400900000000065
:10029000000000006F04009000F002F800F0CAF8BF
:1002A00014A696E8000CB244B344DA4501D100F03C
:1002B000C1F8BAE80F000FA696E83000A5EB0405D8
:1002C00004EB0607AAEB0704A7F101074FEA15158F
:1002D0004FEA3414A4F10104AC4201D300F0AAF8AF
:1002E00013F0010F18BFFB1A43F0010300F001F8EF
:1002F000DBE71847386E0100686E01000A4410F809
:10030000014B14F00F0508BF10F8015B240908BF6A
:1003100010F8014B6D1E05D010F8013B6D1E01F861
:10032000013BF9D1641E03D0641E01F8015BFBD1CF
:100330009142E4D370470000103A24BF78C878C1D6
:10034000FAD8520724BF30C830C144BF04680C60DB
:10035000704700007047000000230024002500269D
:10036000103A28BF78C1FBD8520728BF30C148BF18
:100370000B6070476E2900F03583702900F083848C
:10038000662916F0D884652916F0D584672916F0F9
:10039000D284612916F0D18403681B0A28BF41F07A
:1003A0008001692900F0E282642900F0DF8275296A
:1003B00000F0DC826F2900F01184782900F04F846E
:1003C000E92900F0AB83E42900F0A883F52900F0C7
:1003D000A583EF2900F00E84F82900F04E8403680D
:1003E000DB0928BF41F08001632901F001827329F4
:1003F00001F00682E32901F01182F32901F016824F
:10040000002070471FB516F089FC9DE8030000F03E
:1004100015FA01F0D9FA04000020002116F052FC70
:10042000401C60600020002116F062FCE0601FBDEF
:1004300010B510BD01F0A3FA1146FFF7E3FF15F068
:10044000DBFE01F085FB03B4FFF7F2FF03BC11F004
:10045000DFFA00000948804709480047FEE7FEE749
:10046000FEE7FEE7FEE7FEE7FEE7FEE7FEE7FEE764
:1004700004480549054A064B7047000051FD0090AD
:1004800099020090A05B0024A07B0024A06B0024B4
:10049000A06B00240000000000000000000000002D
:1004A000E800002400000020000000909C010024CF
:1004B000001000E0FF5207000000FF4000BF00BF37
:1004C00072B65FF824005FF8241001F104010160A6
:1004D0004FF0E0205FF83010C0F8081D5FF83400DE
:1004E0005FF83C10096801605FF83C00016841F06A
:1004F000010101604FF0E0205FF8481041614FF0CA
:10050000070101614FF00001C0F8181D4FF07F4155
:10051000C0F81C1D5FF86010C0F8201D7047FFF781
:10052000FEBFFFF7FEBFFFF7FEBF01B5BDE801400C
:10053000704701B500F08CF8BDE801407047FFF747
:10054000FEBFFFF7FEBF000000000000000000003B
:100550004FF000002A4A1060EFF3148020F00400EE
:1005600080F3148862B64FF080504FF0E021C1F85C
:10057000040DBFF34F8FBFF36F8FFEE72148224A70
:100580004FF00003016891B10360EFF3098C2CE98F
:10059000F00F1EF0100F01D12CED108A1B4C4CF8FF
:1005A00004ED2568C1F808C00DB18D61236072B6F5
:1005B0001168B1B1016062B64F68144C8D6907F1E2
:1005C00001074F602560D1F808C05CF804EB1EF00D
:1005D000100F01D1BCEC108ABCE8F00F8CF3098835
:1005E000704772B61168016009B962B6F9E74FF059
:1005F00000674FF0E028C8F8047D62B6DCE770477A
:100600001401002404010024080100240007002430
:10061000026922F00702A2F144026FF002031360A4
:100620004FF0000353609360D36013615361936193
:10063000D361136253629362D362136353634FF0C7
:10064000FF339363D1634FF080731364826070470C
:100650002249086800F101000860214B1A683AB18C
:10066000A2F101021A601AB91E4B4FF00100186086
:100670001D490868026822B11C4B4FF001021A6044
:1006800008E000F104001A4B1A68904201D1194B9E
:1006900018680860134B1A6812B914490868D0B179
:1006A0002DE901401149086808B113F0DDFE0D4B3A
:1006B0001A6872B113F070FD0F48016849B90F480C
:1006C00001680F4A13680F484FF08052994200D0DA
:1006D0000260BDE80140BFF34F8F7047380200242D
:1006E00000070024A8010024A0010024A401002484
:1006F00030020024340200241401002404010024E8
:100700000801002404ED00E0704770B5064600F0D3
:1007100075F8056806F10B0020F00704B4429CBF91
:10072000002070BD2B466A68BAB11068A04210D391
:1007300004F1080188423CBF5068586007D35168F3
:10074000101941601168091B016058601460101D88
:1007500070BD13465268002AE7D12146284600F0B2
:1007600059F80028DED170BD70B50446051F00F0B1
:1007700045F80068002C14BF446870BD002C18BFF9
:10078000AC423CBF20466468F8D301680A18AA420C
:1007900018BF456003D12A680546114401602868E6
:1007A0004119A1421CBF6C6070BD6168696021681D
:1007B0000844286070BD00000FB4044910B503AAB6
:1007C000029800F03BF910BC5DF814FB880000248F
:1007D0000B460146184600F031B970B5064600F0E8
:1007E00011F80468054630460A22002100F01AFB81
:1007F0002C6070BD70477047704770470048704765
:1008000028000024004870472000002470477047EB
:100810007047704738B504460A4600206946AFF372
:100820000080002808BF38BD02460099204600F02D
:1008300091FB012038BD012001F073B8F8B5AFF38A
:100840000080054600200C460C2000BF0646A81973
:10085000A0420DD9324669460020AFF30080070060
:1008600008BF01F05EF80098A04218BF0546C41901
:10087000FFF7C4FF05600746F01D20F0070046198A
:10088000284600F00AF8B44208BFF8BDA21B314662
:100890003868BDE8F84000F05DBB002101604160B0
:1008A00070470C20704770B5044685690068C10622
:1008B00001D5302600E02026C00707D070BDD4E95E
:1008C000012130469047206A401C20626D1EF6D5FB
:1008D00070BD70B5044685690078C00707D170BD4A
:1008E000D4E9012120209047206A401C20626D1E1F
:1008F000F6D570BD09684A0501D540B27047C905F3
:10090000FCD500B2704709684A0501D5C0B27047EE
:10091000C905FCD580B2704770B50C460546012A62
:1009200005D02878800600D5EA69002302E001237B
:1009300005E05B1C934202D2E05C0028F9D1A86973
:10094000E618C01AA861286A184428622846FFF7EA
:10095000AAFF04E0D5E9012114F8010B9047B44245
:10096000F8D32846FFF7B5FF70BD00002DE9F04130
:100970000646002410687529314616A510D0FFF7E9
:10098000B9FF002802DA404213A507E031688A0760
:1009900001D512A502E0490704D511A5012401E003
:1009A000FFF7B1FF00210A2206F1240709E0B0FB9E
:1009B000F2FCB0FBF2F302FB1C0030307854184616
:1009C000491C0028F3D123462A463046BDE8F041B1
:1009D00000F01FBB000000002D0000002B000000F5
:1009E0002000000011680268006A530501D50870F4
:1009F0000AE0D30501D5088006E0130603D5C21727
:100A0000C1E9000200E008600120704701694A1C4A
:100A100002610878704700B58FB0CDE9013100213F
:100A2000059105497944CDE903101146684600F067
:100A300035F90FB000BD0000E5FFFFFF074B70B5B3
:100A40000D467B44FFF7E7FF0446284600F041FFD0
:100A500010B14FF0FF3070BD204670BD0353010050
:100A60002DE9FF5F15468A460446DFF8AC80F8445E
:100A70000027D8E900103E46CDE9001010E03AF812
:100A800016106A4602A800F028FF411C07D0217802
:100A9000890603D5E269391891420DD80744761CBE
:100AA0002078800602D5E069B84205DDAE42E6DB7B
:100AB0003AF816000028E2D1A069C01BA0612046C8
:100AC000FFF7F1FED8E90010CDE90010002017E093
:100AD0003AF818106A4602A800F0FFFEB0F1FF3F96
:100AE00081460BD000250DF1080B05E0D4E901216A
:100AF0001BF8050090476D1C4D45F7D308F1010028
:100B0000B0428046E4DB206A384420622046FFF78A
:100B1000E0FEBDE8FF9F0000CE6201002DE9F0413C
:100B20008046D21D22F007020025D2E90002F529F5
:100B300015A614D0011E72F1000106DA0023D0EBD5
:100B4000030063EB020211A608E0D8F800108B073F
:100B500001D50FA602E0490701D50EA601251146D1
:100B6000002408F1240704E000F00EFA30323A5570
:100B7000641C50EA0102F7D12B463246214640461A
:100B8000BDE8F04100F045BA000000002D00000073
:100B90002B0000002000000030B4002100F12404EC
:100BA00008E002F00705D208303542EA4372DB085C
:100BB0006554491C52EA0305F3D10468002310A2CE
:100BC000250708D504F020040C4304D0C469012390
:100BD0000CA2641EC46130BC00F01BBA10B5044600
:100BE00021461068FFF78FFE02462046BDE8104000
:100BF0000023D1E7D21D22F00701D1E90023CBE782
:100C00000000000030000000F0B40D460188090526
:100C100002D5214C7C4402E01F4C7C440E34002160
:100C200000F1240608E002F00F071209E75D42EA2E
:100C300003721B097754491C52EA0307F3D1027867
:100C40000023120704D5702D06D009B102231134F8
:100C50002246F0BC00F0DDB901231034F8E770B58E
:100C600004460D4621461068FFF74DFE0246294610
:100C70002046BDE870400023C6E7D21D22F00703DE
:100C8000D3E90023C0E70368126843F02003036040
:100C90000823C3610023B7E7306101002DE9F05F4D
:100CA000894604464FF0000ADFF874B1FB44C0F8EF
:100CB00020A02046E1688847002874D0252806D067
:100CC000D4E901219047206A401C2062F1E7002608
:100CD0005F462046E16888472028054607DB312D1E
:100CE00005D2781910F8200C08B10643F1E7B007D7
:100CF00001D526F00406C4F81CA00027C4F818A0EB
:100D00002A2D09D0284615F0D5FF38B304EB870803
:100D1000303DC8F8185019E059F8041B204604EB80
:100D200087029161E1688847012F054618D1E06983
:100D3000002820DA26F020061DE0D8F8180000EB85
:100D4000800005EB40003038C8F818002046E16804
:100D50008847054615F0AEFF0028EED1012F0AD0D6
:100D60002E2D08D12046E16888477F1C0546022FBA
:100D700046F02006C4DBA069002803DA404246F0B2
:100D80000106A061F00701D026F010066C2D0BD0F3
:100D9000682D09D04C2D39D06A2D35D0742D35D021
:100DA0007A2D33D016E038E0E1682F462046884798
:100DB000B842054609D16C2F26D04FF48060E16817
:100DC000064320468847054604E06C2F1AD04FF4AE
:100DD000807006430DB3A5F14100192802D82035D3
:100DE00046F400664A462946204626604E46FFF7EE
:100DF000C1FA80B101280BD0F61D26F0070000F1E2
:100E0000080956E74020E4E78020D8E70020D6E72D
:100E100006F104094DE7284652E7206ABDE8F09F35
:100E2000C06001002DE9F04791460F468046044618
:100E3000002614F8015B2DB100F084F80068405DD5
:100E4000C007F6D12B2D02D02D2D18D0641E4A4696
:100E50003946204600F0EEFC27B13968A14201D1A5
:100E6000C7F800804FF0020471050BD540420028FE
:100E700003DDFFF7C7FC0460A007BDE8F08746F478
:100E80008066E4E70028F8DAFFF7BCFC04606FF046
:100E90000040F2E710B5203AC0F00B80B1E81850DE
:100EA000A0E81850B1E81850A0E81850203ABFF454
:100EB000F5AF5FEA027C24BFB1E81850A0E81850F3
:100EC00044BF18C918C0BDE810405FEA827C24BF47
:100ED00051F8043B40F8043B08BF7047D20728BFD5
:100EE00031F8023B48BF11F8012B28BF20F8023B24
:100EF00048BF00F8012B70474FF000020429C0F0F2
:100F0000128010F0030C00F01585CCF1040CBCF13C
:100F1000020F18BF00F8012BA8BF20F8022BA1EB8D
:100F20000C0100F007BD5FEAC17C24BF00F8012B73
:100F300000F8012B48BF00F8012B704700487047AC
:100F40002000002410B500F03FFD001D10BD00BFC3
:100F5000755D0100034640688C46002818BF884232
:100F60003CBF03464068F8D318681844884207D04D
:100F70000CF1030020F00700001D411A521A01462F
:100F8000081D0A60FFF7F0BB30B5B0F10A0271F13D
:100F900000034FEA900E4EEA817EB0EB0E0061EB4B
:100FA00091014FEA101E4EEA017E10EB0E0041EB5C
:100FB00011114FEA102E4EEA016E10EB0E0041EBBC
:100FC00011214FEA104E4EEA014E10EB0E0041EB9C
:100FD0001141401841F100014FEAD00040EA417050
:100FE0004FEAD1014FEA810444EA907410EB800586
:100FF00044EB01046D1944EB0404521BA3414FF070
:10100000000348BF0A3200D530BD401C41F1000149
:1010100030BD2DE9F0470D4699469246044600F151
:1010200024080168880604D5E06921F010012160D8
:1010300000E00120A84201DD471B00E00027A16974
:101040007A1902EB0900081AA0612078C00602D4C0
:101050002046FFF728FC002608E0D4E901211AF811
:1010600006009047206A401C761C20624E45F4DB47
:101070002078C0060AD52046FFF715FC06E0D4E923
:10108000012130209047206A401C2062381EA7F1C1
:101090000107F4DC07E0D4E9012118F805009047C6
:1010A000206A401C2062281EA5F10105F3DC2046C1
:1010B000FFF70FFC2078000602D50220BDE8F0877C
:1010C0000120FBE72DE9FF4F0C461E464FF0FF378E
:1010D0008BB0D2E90001DDF860800A908A46C1F346
:1010E0000A5505B93D46002108464FF00000BAF107
:1010F000000F00F4400005DA00EB80004FF44001DF
:1011000001EA50004FEA9059B9F1010F00DDB946EC
:101110000A9850EA4A000ED044F61050A5F2FF3566
:1011200045432F14B8F1000F1ED07542291E1EDD55
:10113000C9F100021CE0B8F1010F4FF0000001D02E
:10114000302103E0F24305E02154401CB042FBDBB8
:1011500030460022002121540B99C1F80880C1E9D2
:1011600000200FB0BDE8F08FBD1B6D1CDEE74A46C6
:1011700000DA694206A800F079FC06AB93E80700A4
:1011800003AB83E8070050460A9915F0B3F98DE8E0
:101190000700A0F500501F3800900398002D0ADDCD
:1011A00042F21F014A460844002303A903906846FF
:1011B00015F01CFC09E0A0F500504A461F3800233A
:1011C00003A90390684615F026FC8DE8070000048B
:1011D000000C03D04FF0FF30410800E01046B8F19A
:1011E000000F03D00022009215461EE0751E05D4A4
:1011F000FFF7CAFE303262556D1EF9D5B3460122A3
:10120000084302D000227F1C04E02078302801D15E
:1012100000227F1E002A099784D01DE0112D07DAD5
:10122000FFF7B2FE303262556D1C50EA0102F5D173
:10123000084302D00098C8B10EE00021681E05E006
:10124000235C625C63542254401E491C8142F7DBDC
:10125000AB46A81B401E0990002004F80B000B9819
:10126000099AC0F80880C0E9002B7AE711264FF0F0
:10127000000857E72DE9F04F88460446D21D22F0BA
:10128000070191B0D1E90001CDE90A0115F0FAFC9E
:1012900002460B98C00F01D02D2007E0206881077F
:1012A00001D52B2002E0202101EAC000032A099089
:1012B00001D0072A05DB03464146204600F088FBA3
:1012C0000BE12078800601D5E06900E00620B8F146
:1012D000650F814606D0B8F1660F18D0B8F1670FD8
:1012E00070D131E00020B9F1110F009001DB112322
:1012F00001E009F101030AAA01A90CA8FFF7E2FE27
:10130000DDE90C70002609F10105834647E0012064
:101310004B4600904FF000470AAA01A90CA8FFF71E
:10132000D1FEDDE90DB00C995D46002610B909F13A
:1013300001000D18B9EB050003D4C0F1FF3609F127
:101340000105A5EB09002BE0B9F1010F01DA4FF01F
:1013500001090020B9F1110F0090484601DD112369
:1013600000E003460AAA01A90CA8FFF7ABFEDDE9DD
:101370000C704D4600268346207800070AD4AB4502
:1013800000DA5D4601A8012D04DD411911F8011CA8
:10139000302907D04F4502DA17F1040F04DA012093
:1013A00082460FE06D1EEEE7002F02DCED1B3E448F
:1013B00003E0781CA84200DD7D1CB81B00F1010A87
:1013C0004FF000472078000703D4AA4501DB4FF017
:1013D000FF3A0021B7F1004F0DF143088DF843109B
:1013E00024D002202B23002F01DA7F422D230A2153
:1013F000021EA0F1010000DC5FB197FBF1FC97FB3E
:10140000F1F201FB1C7C17460CF1300C08F801CD01
:10141000EEE7A8F1010003702188090501D54521F7
:1014200000E06521A0F1010800F8011C09980FA94E
:10143000A1EB0807FF1D00B10120411901EBEA7083
:10144000A1693844081A401EA0612078C00602D461
:101450002046FFF728FA099828B1D4E901219047DE
:10146000206A401C20622078C00622D52046FFF763
:101470001AFA1EE0002E04DBB34502DD01A8805DF0
:1014800000E03020D4E901219047206A401C20620E
:10149000761CAAF101005FEA000A0AD100F094FA72
:1014A000C0680168405CD4E901219047206A401C73
:1014B0002062281EA5F10105DCDC07E0D4E901214A
:1014C00018F8010B9047206A401C2062381EA7F1D3
:1014D0000107F3DC2046FFF7FCF9032011B041E6D9
:1014E0002DE9F04F04460D46D21D22F0070089B0C9
:1014F000D0E900974846394615F0C4FB0246F80F7C
:1015000001D02D2307E02068810701D52B2302E0BD
:10151000202101EAC0038DF820300BB1012000E04A
:101520000020032A824601D0072A04DB29462046F0
:1015300000F04EFA3FE12078800601D40D2500E04E
:10154000E569C7F30A560D2D49DA00214FEA175B0A
:1015500008464FF00000002F00F4400007DA00EBCF
:1015600080004FF4400100EBD07001EA600081156B
:10157000012901DD4FF0FF3100224FEA850CBCF15B
:10158000180F06D31346ACF118004FF08052C2403A
:1015900003E04FF4801323FA0CF30CF10C0CBCF1B4
:1015A000200F04D3ACF1200C09FA0CF001E007FA8B
:1015B0000CF000294FF0004801DD18B90FE00ED102
:1015C00040450CD319EB02095F4121B9404502D1D6
:1015D0009F4329EA0209BBEB175F00D0761C2088E5
:1015E000000502D57B48784402E07A4878441938EF
:1015F00008AA302302F80A30037C0AF10101002E08
:101600000AF1020A53546A4602DC4FF0300101E04D
:101610004FF031014FF001088DF8001002D0A6F212
:10162000FF3603E059EA470100D06B4E002D02DC83
:101630002178090704D54FF002082E218DF80110FA
:10164000C44600210BE0C7F303433F01C35C491CC0
:101650006D1E02F80830052908F1010801DA002D95
:10166000F1DC00210CE000EB1973491C1B786D1EA6
:10167000082902F808304FEA091908F1010801DACF
:10168000002DF0DC21688B0602D516E0A8F10108D8
:10169000E04505DD02EB080313F8013C302BF5D0E3
:1016A000B8F1000F09DD02EB080313F8013C2E2B03
:1016B00003D1090701D4A8F10108002D05DD3E2161
:1016C00002F808106D1E08F10108407C002E02F897
:1016D000080008F1010804DA2D20764202F808001B
:1016E00002E02B2002F808000A214FF47A708642AB
:1016F00008F101080BDB96FBF0F3303302F80830F9
:1017000096FBF0F308F1010800FB136601E0642E7C
:101710000CDB642096FBF0F3303302F8083096FBC4
:10172000F0F308F1010800FB136601E00A2E06DB66
:1017300096FBF1F0303002F8080008F1010896FB42
:10174000F1F001FB1060303002F80800A16908F1E7
:10175000010808EB050202EB0A00081AA0612078D4
:10176000C00602D42046FFF79EF8216A08AE01EBBE
:101770000A00206204E0D4E9012116F8010B904729
:10178000BAF1010AF7D22078C00602D52046FFF749
:101790008AF86E4609E016F8010B3E280FD0D4E90E
:1017A00001219047206A401C2062B8F10108F2D262
:1017B0002046FFF78EF809B00320BDE8F08F206ABD
:1017C0002844206203E0D4E90121302090476D1EB7
:1017D000EBD3F8E7AA57010002FCFFFF10B54369FD
:1017E00013B1AFF3008001E0FFF796F8012010BDC0
:1017F000127800F124010A7000224A700122EDE7FC
:1018000011684FF0FF32E9E710B5436913B1AFF348
:10181000008001E0FFF724F9012010BD128800F1DB
:10182000240182840022C2840122EDE711684FF076
:10183000FF32E9E72DE9F05F824615468B46002727
:101840000AF10104B9460078302801D09DB113E0B7
:1018500014F8010B0127782803D0582801D045B18E
:101860000AE00DB1102D07D1002714F8010B102547
:1018700002E0082500E00A250026B0460EE005FB40
:10188000080005FB06F101271FFA80F801EB10465E
:10189000B6F5803F00D3B94614F8010B294600F095
:1018A000D7F80028EBDABBF1000F05D00FB1641EAA
:1018B00000E05446CBF80040B9F1000F06D0FEF727
:1018C000A1FF02210160C81EBDE8F09F48EA064062
:1018D000FAE7007B00F0800070472DE9F0411646E2
:1018E0000C460546FFF72EFB036893F8010101281B
:1018F00007D0FF2C12D8185D80B101202C70BDE8F4
:10190000F081D3F807013246214603F20713C718C6
:101910002846BC46BDE8F041002360474FF0FF3049
:10192000EDE710B500F022F9BDE8104000F019B95C
:101930004FF0000200B5134694469646203922BF68
:10194000A0E80C50A0E80C50B1F12001BFF4F7AFB3
:10195000090728BFA0E80C5048BF0CC05DF804EB95
:10196000890028BF40F8042B08BF704748BF20F803
:10197000022B11F0804F18BF00F8012B70477546FD
:10198000FFF7DCFAAE4605006946534620F0070033
:10199000854618B020B5FEF76BFDBDE820404FF03E
:1019A00000064FF000074FF000084FF0000BAC4668
:1019B000ACE8C009ACE8C009ACE8C009ACE8C009B3
:1019C00021F007018D467047004870474000002411
:1019D0002DE9F0411F46044603260168072A01F459
:1019E000006004DB08B116A505E016A503E008B108
:1019F00015A500E015A521F010002060A069C01E0B
:101A0000A0610FB1401EA0612046FEF74CFF4FB110
:101A1000D4E9012138469047206A401C2062C01C4E
:101A2000206206E0206AFAE7D4E9012115F8010BEB
:101A30009047761EF8D22046FEF74BFFBDE8F081B6
:101A40004E414E006E616E00494E4600696E660062
:101A50003A2800D2303820F02002412A01D3A2F1E6
:101A60003700884201D34FF0FF3070472DE9F0472F
:101A7000814616468AB0354878440DC88DE80D0079
:101A800032487844801C03AC0DC884E80D0041F650
:101A90009B300844372190FBF1F290FBF1F5A5F162
:101AA000800501FB12041B3C02D56442012000E0CA
:101AB0000020DFF898A080460027FA44AAF1BE0A69
:101AC0000EE0E0070AD03246684607EB47010123E3
:101AD0000AEB810114F09FFF8DE8070064107F1C62
:101AE000002CEED1194F7F44AE3F19E0E80715D026
:101AF00007EB04100DF1180A90E80E008AE80E00BA
:101B0000C068F04201D1981908903246012306A915
:101B100003A814F080FF03AB83E807006D10641C7A
:101B2000002DE3D14FF0010332466946B8F1000FB2
:101B300003A802D014F05AFF01E014F06CFFC9E9C9
:101B40000001C9F808200AB0BDE8F087A8530100D9
:101B500010B50446AFF300802046BDE81040FEF704
:101B600072BC002801D00FF053BF704710B5012898
:101B700005D0002103A000F021F8012010BD09A12B
:101B8000F8E7000053494752544D454D3A204F75F0
:101B900074206F662068656170206D656D6F727965
:101BA000000000003A2048656170206D656D6F721D
:101BB0007920636F727275707465640070B5054644
:101BC0000C460A2000E06D1C0FF026FF35B1287886
:101BD0000028F8D102E0641C0FF01EFF14B1207839
:101BE0000028F8D1BDE870400A200FF015BF0000B2
:101BF00030B44FF0013C50F8042BCCFA52F451F8B9
:101C0000043BD51A20D1FCB950F8042BCCFA52F47D
:101C100051F8043BD51A17D1B4B950F8042BCCFABB
:101C200052F451F8043BD51A0ED16CB950F8042B7C
:101C3000CCFA52F451F8043BD51A05D1002CDAD075
:101C400030BC4FF00000704729BAB1FA81F111F0B1
:101C50001801D1F120008440F2D1CA40CB4012F0EB
:101C6000FF0213F0FF0330BCD01A704753EA020C96
:101C700000F069802DE9F04B4FF00006002B1FBFEC
:101C8000B3FA83F503FA05F424FA05F65E4012BFB1
:101C90001643B2FA82F502FA05F4C5F120051EBF1B
:101CA00022FA05FC44EA0C04203556EA044C4FEABB
:101CB000144418BF641C4FF000084FF00009904214
:101CC00071EB030C39D3002919BFB1FA81F701FA7E
:101CD00007F6B0FA80F700FA07F6C7F120071EBF33
:101CE00020FA07FC46EA0C062037B6FBF4FCA7EB0B
:101CF0000507103F07F01F0BCBF120062CFA06F664
:101D00000CFA0BFB44BFB3460026202FA4BF5E464F
:101D10004FF0000B5BEA060C08BF4FF0010B19EB0C
:101D20000B0948EB0608ABFB027C06FB02CC0BFB65
:101D300003CCC01B71EB0C01C1E70B4602464146C8
:101D40004846BDE8F08B13B5084318BF4FF0FF308D
:101D50000146AFF30080BDE81C407047032A40F203
:101D6000308010F0030C00F0158011F8013BBCF13D
:101D7000020F624498BF11F801CB00F8013B38BF55
:101D800011F8013BA2F1040298BF00F801CB38BF63
:101D900000F8013B11F003033FF47CA8083AC0F0BF
:101DA000088051F8043B083A51F804CBA0E8081029
:101DB000F5E7121D5CBF51F8043B40F8043BAFF35C
:101DC0000080D20724BF11F8013B11F801CB48BFB6
:101DD00011F8012B24BF00F8013B00F801CB48BFEC
:101DE00000F8012B704702F0FF0343EA032242EAA6
:101DF0000242FFF783B8000080B501F0EDFE80BD20
:101E000080B582B001900198006842F20001C4F2EE
:101E10000201884209D0FFE70198006842F20011F0
:101E2000C4F20201884209D1FFE742F20830C4F24D
:101E30000200006810F4403F09D126E046F2083065
:101E4000C5F60200006810F4403F1ED0FFE709F01D
:101E500047FC009001984068B0F5803F08D0FFE74C
:101E6000B0F5003F04D0FFE7B0F5403F07D00AE0EF
:101E70000198C0880099B1FBF0F0009004E0009850
:101E80008008009000E0FFE751E007F08DFB009034
:101E900001984068B0F5802F28D0FFE7B0F5002FFB
:101EA00024D0FFE7B0F5402F20D0FFE7B0F5801F2A
:101EB0001CD0FFE7B0F5A01F18D0FFE7B0F5C01F9A
:101EC00014D0FFE7B0F5E01F1BD0FFE7B0F5001F0F
:101ED0001BD0FFE7B0F5101F1BD0FFE7B0F5201FA8
:101EE0001BD0FFE7B0F5301F1BD01EE00198406803
:101EF0006FF0010101EA50400099B1FBF0F0009051
:101F000014E000980009009010E00098400900904B
:101F10000CE000988009009008E00098C00900904B
:101F200004E00098000A009000E0FFE7FFE706F0F9
:101F300063F941F20301884217D8FFE7009842F69F
:101F40000151C0F23111884207D3FFE701980068C0
:101F5000816841F48071816006E0019800688168C1
:101F600021F480718160FFE743E000984008009011
:101F7000009845F61061C0F25F01884209D8FFE77A
:101F800001980068806820F44070019909688860B1
:101F90002EE000984BF62041C0F2BE0188420AD8DC
:101FA000FFE7019800688068012161F30920019929
:101FB000096888601BE0009847F64001C0F27D1177
:101FC00088420AD8FFE7019800688068022161F31F
:101FD000092001990968886008E001980068806814
:101FE00040F44070019909688860FFE7FFE7FFE768
:101FF000FFE702B080BD000080B582B0019001987B
:10200000806B00900098406D10F0500F4AD1FFE7B0
:102010000098416D41F400714165009800680068C6
:102020000007002821D5FFE7009800680CF064FC49
:10203000D0B1FFE700980068C0688004002812D47F
:10204000FFE70098416D21F4807141650098406D73
:10205000C004002806D4FFE70098416D41F001015B
:102060004165FFE7FFE7FFE718E000980068C068F8
:10207000800790B9FFE70098416D21F480714165B8
:102080000098406DC004002806D4FFE70098416D19
:1020900041F001014165FFE7FFE7FFE7009801F02C
:1020A0001BFD10E00098406DC006002804D5FFE736
:1020B000009801F08DFD05E00098C06CC16C01989E
:1020C0008847FFE7FFE702B080BD00000000000086
:1020D00080B582B001900198806B00900098416DAE
:1020E00041F0400141650098816D41F00401816536
:1020F000009801F06DFD02B080BD000000000000FE
:1021000080B582B001900198806B0090009801F03A
:1021100023FD02B080BD000080B584B0029002981B
:1021200000680CF0C9FB0090029800680CF0CCFB32
:1021300000284BD0FFE70098002847D1FFE702981E
:102140000068806800F00D00012809D1FFE70298BF
:1021500000680CF039FB02980068032101600DE073
:102160000298416D41F0100141650298816D41F086
:102170000101816501208DF80F002BE006F044F885
:102180000190FFE7029800688068C007E8B1FFE7A8
:1021900006F03AF80199401A032815D3FFE7029890
:1021A00000688068C00770B1FFE70298416D41F098
:1021B000100141650298816D41F0010181650120A6
:1021C0008DF80F0006E0FFE7DCE7FFE700208DF861
:1021D0000F00FFE79DF80F0004B080BD0000000075
:1021E00080B584B00290029800680CF06DFB002866
:1021F00040F08C80FFE70298006880683F21C8F2B9
:10220000000108420ED0FFE70298416D41F0100135
:1022100041650298816D41F00101816501208DF8D1
:102220000F0077E0029800680CF0EAFA05F0ECFF86
:10223000019002980168012042F20002C4F20202F9
:1022400091420BD0FFE7029800684DF60071CBF683
:10225000FD710844B0FA80F04009FFE7C10746F27B
:102260000030C5F6020000291CBF42F20030C4F263
:1022700002000CF0F5FA00900298006842F200119A
:10228000C4F20201884205D1FFE742F20000C4F225
:10229000020002E002980068FFE70299096888429C
:1022A00003D0FFE7009880BBFFE7FFE702980068D4
:1022B0000068C00740BBFFE7029800680CF004FB11
:1022C00028B9FFE7029800680CF09AFAFFE705F0DA
:1022D0009BFF0199401A032815D3FFE70298006875
:1022E0000068C00770B9FFE70298416D41F0100126
:1022F00041650298816D41F00101816501208DF8F1
:102300000F0007E0FFE7D1E7FFE7FFE700208DF8C8
:102310000F00FFE79DF80F0004B080BD0000000033
:10232000FFE7FEE70000000080B540F6A840C2F2DB
:10233000004003F0C5F980BD80B540F69850C2F268
:10234000004003F0BDF980BD80B540F62050C2F2D8
:10235000004003F0B5F980BD82B00190019801689A
:1023600001201022C4F20202914200F09280FFE7A5
:102370000198016801202822C4F20202914200F073
:102380008880FFE70198016801204022C4F2020220
:1023900091427ED0FFE70198016801205822C4F2E3
:1023A0000202914275D0FFE7019801680120702276
:1023B000C4F2020291426CD0FFE70198016801204B
:1023C0008822C4F20202914263D0FFE701980168BB
:1023D0000120A022C4F2020291425AD0FFE70198E4
:1023E00001680120B822C4F20202914251D0FFE7F5
:1023F00001980168012040F21042C4F202029142A9
:1024000047D0FFE701980168012040F22842C4F25A
:10241000020291423DD0FFE701980168012040F29D
:102420004042C4F20202914233D0FFE701980168B2
:10243000012040F25842C4F20202914229D0FFE743
:1024400001980168012040F27042C4F202029142F8
:102450001FD0FFE701980168012040F28842C4F2D2
:102460000202914215D0FFE701980168012040F275
:10247000A042C4F2020291420BD0FFE7019800682B
:102480004FF64831CBF6FD710844B0FA80F04009B0
:10249000FFE7C00740B3FFE70198007810384AF61D
:1024A000AB21CAF6AA21A0FB0101080900900098FF
:1024B00000F0070047F29001C9F20101085C0199A0
:1024C000C8650098042807D3FFE701980168042233
:1024D00062F30901816506E00198016840F2FF326C
:1024E00091438165FFE705E00198016821F0FF0154
:1024F0008165FFE70198806D02B070470000000021
:1025000083B0029002980068009002980168012050
:1025100045F20842C5F60202914247D0FFE7029811
:102520000168012045F21C42C5F6020291423DD0ED
:10253000FFE702980168012045F23042C5F6020229
:10254000914233D0FFE702980168012045F24442EE
:10255000C5F60202914229D0FFE7029801680120E6
:1025600045F25842C5F6020291421FD0FFE7029899
:102570000168012045F26C42C5F60202914215D075
:10258000FFE702980168012045F28042C5F6020289
:1025900091420BD0FFE7029800684AF66C31CAF20C
:1025A000FD710844B0FA80F04009FFE7C00718B396
:1025B000FFE70298007808384CF6CD41CCF6CC41C4
:1025C000A0FB010108090190019845F60001C5F63C
:1025D000020101EB800002990866029845F680012D
:1025E000C5F602014166019800F01F00012101FAC1
:1025F00000F00299886636E00298007810384AF6B2
:10260000AB21CAF6AA21A0FB01010809019000989C
:1026100040F2B841C4F2020188420CD8FFE70098AA
:1026200040F21041C4F20201884204D3FFE701984E
:1026300008300190FFE7019840F60001C4F2020162
:1026400001EB800002990866029840F68001C4F20E
:1026500002014166019800F01F00012101FA00F01B
:1026600002998866FFE703B0704700000000000091
:1026700082B001900198007900900098002800F045
:102680008180FFE7009808287CD8FFE7019801685F
:10269000012045F20842C5F60202914247D0FFE709
:1026A00001980168012045F21C42C5F602029142E0
:1026B0003DD0FFE701980168012045F23042C5F6A0
:1026C0000202914233D0FFE701980168012045F2F0
:1026D0004442C5F60202914229D0FFE70198016801
:1026E000012045F25842C5F6020291421FD0FFE791
:1026F00001980168012045F26C42C5F60202914240
:1027000015D0FFE701980168012045F28042C5F627
:10271000020291420BD0FFE7019800684AF66C3143
:10272000CAF2FD710844B0FA80F04009FFE7C00723
:1027300080B1FFE7009845F6FC01C5F6020101EB08
:1027400080000199C866019845F64011C5F602015E
:1027500001670FE0009840F6FC01C4F2020101EBB2
:1027600080000199C866019840F64011C4F2020148
:102770000167FFE700980138012101FA00F0019993
:102780004867FFE702B0704782B0019000208DF8E3
:1027900003000198806908BBFFE70198806A03285D
:1027A0001AD8DFE800F0020D0218019890F82F0007
:1027B000C00720B1FFE701208DF80300FFE70CE020
:1027C0000198C06AB0F1C07F04D1FFE701208DF805
:1027D0000300FFE701E000E0FFE743E001988069C4
:1027E000B0F5005F24D1FFE70198806A03281DD867
:1027F000DFE800F00206021101208DF8030016E068
:10280000019890F82F00C00720B1FFE701208DF854
:102810000300FFE70BE00198C06AB0F1C07F04D16C
:10282000FFE701208DF80300FFE700E0FFE718E075
:102830000198806A032803D3FFE7032804D00EE041
:1028400001208DF803000BE0019890F82F00C007DD
:1028500020B1FFE701208DF80300FFE700E0FFE76C
:10286000FFE7FFE79DF8030002B07047000000009B
:1028700086B005900491039202930598806D0190B3
:102880000598806D00900598016801201022C4F21F
:102890000202914200F0EB80FFE7059801680120F9
:1028A0002822C4F20202914200F0E180FFE705987D
:1028B000016801204022C4F20202914200F0D78058
:1028C000FFE70598016801205822C4F202029142F4
:1028D00000F0CD80FFE70598016801207022C4F266
:1028E0000202914200F0C380FFE7059801680120D1
:1028F0008822C4F20202914200F0B980FFE70598F5
:1029000001680120A022C4F20202914200F0AF80CF
:10291000FFE7059801680120B822C4F20202914243
:1029200000F0A580FFE705980168012040F2104201
:10293000C4F20202914200F09A80FFE70598016814
:10294000012040F22842C4F20202914200F08F803E
:10295000FFE705980168012040F24042C4F20202FC
:10296000914200F08480FFE705980168012040F261
:102970005842C4F20202914279D0FFE705980168FB
:10298000012040F27042C4F2020291426FD0FFE790
:1029900005980168012040F28842C4F20202914287
:1029A00065D0FFE705980168012040F2A042C4F21B
:1029B000020291425BD0FFE705980168012040F2D6
:1029C000B842C4F20202914251D0FFE70598016873
:1029D000012045F20842C5F60202914247D0FFE7C6
:1029E00005980168012045F21C42C5F60202914299
:1029F0003DD0FFE705980168012045F23042C5F659
:102A00000202914233D0FFE705980168012045F2A8
:102A10004442C5F60202914229D0FFE705980168B9
:102A2000012045F25842C5F6020291421FD0FFE74D
:102A300005980168012045F26C42C5F602029142F8
:102A400015D0FFE705980168012045F28042C5F6E0
:102A5000020291420BD0FFE7059800684AF66C31FC
:102A6000CAF2FD710844B0FA80F04009FFE7C007E0
:102A700070B1FFE70598416E806E48600598C06EA2
:102A800028B1FFE70598016F406F4860FFE7FFE757
:102A90000598016801201022C4F20202914200F060
:102AA0009280FFE70598016801202822C4F2020203
:102AB000914200F08880FFE70598016801204022DC
:102AC000C4F2020291427ED0FFE70598016801201E
:102AD0005822C4F20202914275D0FFE705980168BE
:102AE00001207022C4F2020291426CD0FFE70598E7
:102AF000016801208822C4F20202914263D0FFE7FC
:102B0000059801680120A022C4F2020291425AD025
:102B1000FFE7059801680120B822C4F20202914241
:102B200051D0FFE705980168012040F21042C4F23D
:102B30000202914247D0FFE705980168012040F268
:102B40002842C4F2020291423DD0FFE70598016895
:102B5000012040F24042C4F20202914233D0FFE72A
:102B600005980168012040F25842C4F202029142E5
:102B700029D0FFE705980168012040F27042C4F2B5
:102B8000020291421FD0FFE705980168012040F240
:102B90008842C4F20202914215D0FFE7059801680D
:102BA000012040F2A042C4F2020291420BD0FFE7A2
:102BB000059800684FF64831CBF6FD710844B0FA2D
:102BC00080F04009FFE7C00758B3FFE70598C06DE4
:102BD00000F01F003F2101FA00F00199886005987C
:102BE0000068016821F48021016002980599096854
:102BF000486005988068402809D1FFE70398059947
:102C000009688860049805990968C86008E0049814
:102C1000059909688860039805990968C860FFE705
:102C20007AE005980168012045F20842C5F60202E3
:102C3000914247D0FFE705980168012045F21C4208
:102C4000C5F6020291423DD0FFE7059801680120D8
:102C500045F23042C5F60202914233D0FFE70598B3
:102C60000168012045F24442C5F60202914229D092
:102C7000FFE705980168012045F25842C5F60202B7
:102C800091421FD0FFE705980168012045F26C4290
:102C9000C5F60202914215D0FFE7059801680120B0
:102CA00045F28042C5F6020291420BD0FFE705983B
:102CB00000684AF66C31CAF2FD710844B0FA80F03F
:102CC0004009FFE7C00728B3FFE70598C06D00F093
:102CD0001F00012101FA00F000994860029805994F
:102CE0000968486005988068402809D1FFE7039883
:102CF000059909688860049805990968C86008E022
:102D00000498059909688860039805990968C8605E
:102D1000FFE700E0FFE7FFE706B0704700000000B4
:102D2000704700000000000083B002900020009077
:102D3000FFE70098FF2821D8FFE702980069009973
:102D400001EB410100EBC1000190019800210160FD
:102D500001984160019881600198C160019801610A
:102D60000198416101980299009A01EB8201C1F832
:102D70002808FFE7009801300090DAE70298002168
:102D8000C0F82C1C0298C0F8301C0298C0F8381CFF
:102D90000298C0F83C1C0298C0F8281C02980068F1
:102DA00041F23011FF22425002980168006941F25D
:102DB0001C12885002980168006941F2E8721044C0
:102DC00041F22812885003B0704700000000000054
:102DD00083B0029000200090FFE70098FF281CD8E5
:102DE000FFE70298C068009901EB410100EBC100C8
:102DF0000190019800210160019841600198816073
:102E00000198C16001980299009A01EB82018861E2
:102E1000FFE7009801300090DFE702980021C0F83A
:102E200018140298006841F22C11FF2242500298B7
:102E30000168C06841F21412885002980168C068A5
:102E40004FF48952885003B0704700000000000022
:102E500080B504F0B9FC80BDB0B5A4B023900125C5
:102E60008DF83750002413948DF845408DF8474075
:102E70008DF82C508DF85A508DF836508DF8504002
:102E80008DF888504FF4005010908DF860401994E0
:102E90008DF889408DF88A404FF4C36017908DF803
:102EA00034400C948DF839508DF83A408DF84440F8
:102EB0001E941C9415948DF868408DF87E408DF812
:102EC0004650202021908DF848508DF859404FF001
:102ED00040500A904FF480400F908DF8354002200A
:102EE00020908DF87C408DF87D408DF858408DF80D
:102EF00038501B948DF8745023980AA900F088F874
:102F00008DF80850039501948DF820408DF81140FC
:102F10008DF810404FF4001007908DF81840059080
:102F20008DF821404FF406700990239801A900F014
:102F300003F824B0B0BD000083B002900191029864
:102F400000684FF48051405847F602029043019ABE
:102F500012681043029A12685050019801798268F1
:102F600042EA0131007B41EAC030009002980068DB
:102F700041F2040140584DF201029043009A10437F
:102F8000029A126850500198417B006A40EA014061
:102F90000090029800684FF4885140584CF20002AB
:102FA000CFF6FE721040009A1043029A12685050F9
:102FB00001980169027D41EA0211407F41EA003037
:102FC00000900298006841F2041140584EF6EF72EA
:102FD000CFF6C0721040009A1043029A1268505007
:102FE0000198017F806940EAC170009002980068F2
:102FF00041F2081140584FF6FF72C7F6C0721040F8
:10300000009A1043029A1268505003B070470000B3
:1030100083B002900191019881680268114302799E
:1030200041EAC261027B41EAC251427B41EA8251DC
:10303000827B41EA4251C27B41EA0251027CB2FAF0
:1030400082F2520941EAC241427CB2FA82F252094A
:1030500041EA4241827C41EA02414269114382696C
:103060001143027F41EA0231427F41EAC221827F5D
:10307000B2FA82F2520941EA8221C27F41EA422138
:1030800090F82020B2FA82F2520941EA0221426A03
:10309000114390F8282041EA0211C06A08430090C9
:1030A00002980068006848F28301C0F204010840F9
:1030B000009908430299096808600198C16B4906A4
:1030C00090F8382041EA026C90F8302090F83130C6
:1030D00090F832104CEA824242EA4342B1FA81F15E
:1030E000490942EA0141406B084300900298006898
:1030F000406848F20001CCF2F8010840009908430A
:10310000029909684860019890F84010406C40EAC4
:103110000120009002980068C06840F20F118843B7
:103120000099084302990968C860019890F8541002
:10313000026D42EA410190F84C20B2FA82F2520943
:1031400041EAC211806C41EA004000900298006898
:10315000006F4FF60D710840009908430299096805
:103160000867019890F8551090F8560040EA410021
:10317000009002980068D0F8900020F003000099B9
:10318000084302990968C1F8900002980068D0F8D5
:10319000000D20F072000199896D084302990968B9
:1031A000C1F8000D0198C16D90F86020B2FA82F26A
:1031B000520941EA821190F8612041EA021190F827
:1031C000620041EAC000009002980068D0F8300D1B
:1031D00020F07B000099084302990968C1F8300D7E
:1031E00003B070470000000080B504F0EDFA80BD28
:1031F00080B582B0EFF3108072B6019047F2A8005C
:10320000C9F20100FDF7D8FAFFE7FEE70000000071
:1032100080B586B040F64440C2F2004004904FF0C2
:103220000110039040F2FF70029000200090FFE731
:10323000049890F85000012804D1FFE702208DF88F
:1032400017005BE00498012180F85010FFE7FFE7CA
:103250000498FEF761FF8DF807009DF80700E0BBBA
:10326000FFE70498406D40F0020020F48850049974
:103270004865049800680399029A0BF025FCFFE763
:10328000049800680BF008FBF0B1FFE700980130EC
:10329000009000984FF60001C2F2C351884212D349
:1032A000FFE70498406D40F0100020F00200049900
:1032B0004865FFE70498002180F85010FFE70120DF
:1032C0008DF817001AE0DBE70498406D40F001002C
:1032D00020F002000499486505E00498416D41F032
:1032E00010014165FFE7FFE70498002180F85010C6
:1032F000FFE79DF807008DF81700FFE706B080BDD7
:1033000081B0009001B0704781B0009001B070476B
:1033100081B0009001B0704781B0009001B070475B
:1033200081B0009001B0704710B59AB040F64441AA
:10333000C2F200410891079000208DF81B00039015
:10334000089890F83800012801D1FFE700E0FFE776
:103350000798C0680021C4F2FF71884201D0FFE7DE
:103360001EE00898006842F20001C4F2020188429F
:1033700001D1FFE7FFE70898006842F20011C4F2AC
:103380000201884201D1FFE7FFE70898006846F292
:103390000001C5F60201884201D1FFE7FFE7FFE720
:1033A000FFE7089890F85000012804D1FFE70220B9
:1033B0008DF8270089E30898012180F85010FFE775
:1033C000FFE7089800680BF08FFA002840F0698347
:1033D000FFE707980068000328B9FFE7079800682F
:1033E000C0F3846014E00798006890FAA0F0189089
:1033F000189820B9FFE720208DF8670005E018989D
:10340000B0FA80F08DF86700FFE79DF86700FFE7EE
:1034100000F01F00012101FA00F008990968CA694B
:103420001043C8610898006807990A6849680BF05A
:103430007FFA089800680BF057FA02900898006825
:103440000BF016FA01900298002840F0AF80FFE7D9
:103450000198002840F0AA80FFE708980068079AC2
:10346000116892680BF094FA41F20000C5F6004032
:10347000006800F07040B0F1805F0AD1FFE7079864
:10348000406908990968C96801F01C014908884029
:103490001BE008980068C068C00600280AD4FFE74F
:1034A0000798406908990968C96801F01C01490832
:1034B000884009E00798406908990968C96801F0DF
:1034C000100149088840FFE7FFE705900798006969
:1034D000042821D0FFE70898006807990A6809695D
:1034E000059B0BF0C1FA08980068079A1169527E93
:1034F000013AB2FA82F25209D2070BF0D1FA0898D7
:103500000068079A1169127E013AB2FA82F25209F2
:10351000D2020BF095FA48E008980068006E00F0BF
:10352000F84007990968B0EB816F07D1FFE7089869
:103530000068016E21F000410166FFE7089800680D
:10354000406E00F0F84007990968B0EB816F07D131
:10355000FFE708980068416E21F000414166FFE7EF
:1035600008980068806E00F0F84007990968B0EB91
:10357000816F07D1FFE708980068816E21F0004154
:103580008166FFE708980068C06E00F0F840079970
:103590000968B0EB816F07D1FFE708980068C16E3A
:1035A00021F00041C166FFE7FFE7FFE708980068E8
:1035B0000BF08AF9002840F07382FFE70898006852
:1035C000079A1168D2680BF0FFF90798C0680021CC
:1035D000C4F2FF71884240F01381FFE70898006849
:1035E00007990968090329B9FFE707990968C1F331
:1035F000846114E00799096891FAA1F1169116996E
:1036000021B9FFE720218DF85F1005E01699B1FA86
:1036100081F18DF85F10FFE79DF85F10FFE7013142
:1036200001F01F01092970D8FFE70799096809030C
:1036300029B9FFE707990968C1F3846114E0079984
:10364000096891FAA1F11491149921B9FFE7202199
:103650008DF8571005E01499B1FA81F18DF85710E3
:10366000FFE79DF85710FFE7013101F01F018906C0
:10367000079A126812032AB9FFE7079A1268C2F381
:10368000846214E0079A126892FAA2F21292129AD5
:1036900022B9FFE720228DF84F2005E0129AB2FAF6
:1036A00082F28DF84F20FFE79DF84F20FFE70132AF
:1036B00002F01F02012303FA02F21143079A126873
:1036C00012032AB9FFE7079A1268C2F3846214E072
:1036D000079A126892FAA2F21092109A22B9FFE7A2
:1036E00020228DF8472005E0109AB2FA82F28DF878
:1036F0004720FFE79DF84720FFE7013202F01F0255
:1037000002EB420241EA025175E007990968090398
:1037100029B9FFE707990968C1F3846114E00799A3
:10372000096891FAA1F10E910E9921B9FFE72021C4
:103730008DF83F1005E00E99B1FA81F18DF83F1038
:10374000FFE79DF83F10FFE7013101F01F018906F7
:10375000079A126812032AB9FFE7079A1268C2F3A0
:10376000846214E0079A126892FAA2F20C920C9A00
:1037700022B9FFE720228DF8372005E00C9AB2FA33
:1037800082F28DF83720FFE79DF83720FFE70132FE
:1037900002F01F02012303FA02F21143079A126892
:1037A00012032AB9FFE7079A1268C2F3846214E091
:1037B000079A126892FAA2F20A920A9A22B9FFE7CD
:1037C00020228DF82F2005E00A9AB2FA82F28DF8B5
:1037D0002F20FFE79DF82F20FFE7013202F01F02A4
:1037E00002EB42020023CFF6206303EB02521143A7
:1037F00041F00071FFE7079A92680BF0C9F8FFE704
:103800000798C0780006002840F14981FFE7089832
:103810000168012042F20002C4F2020291420BD080
:10382000FFE7089800684DF60071CBF6FD7108447B
:10383000B0FA80F04009FFE7C10746F20030C5F654
:10384000020000291CBF42F20030C4F202000AF05C
:10385000F7FF0490089801684FF0010042F200025F
:10386000C4F2020291420BD0FFE7089800684DF6BF
:103870000071CBF6FD710844B0FA80F04009FFE713
:10388000C00746F20031C5F6020100281CBF42F213
:103890000031C4F2020142F20030C4F2020081425F
:1038A0000FD1FFE742F20000C4F202000BF00CF867
:1038B000044642F20010C4F202000BF005F8204367
:1038C00006E046F20000C5F602000AF0FDFFFFE741
:1038D000002840F0DA80FFE7079800680021CCF666
:1038E0008431884252D1FFE79DF81200000600287B
:1038F0004CD4FFE70898006846F20001C5F60201C3
:10390000884242D1FFE708980168012042F2000294
:10391000C4F2020291420BD0FFE7089800684DF60E
:103920000071CBF6FD710844B0FA80F04009FFE762
:10393000C10746F20030C5F6020000291CBF42F262
:103940000030C4F20200049941F400010BF068F861
:1039500040F20000C2F2004000684FEA901042F6C8
:103960006351C0F23E51A0FB01014FEA91104FF0AC
:10397000020101EB40000390FFE7039820B1FFE74D
:10398000039801380390F8E7FFE77DE007980068A7
:103990000021CCF25271884235D1FFE79DF8130027
:1039A000C00780BBFFE70898006846F20001C5F633
:1039B0000201884226D1FFE708980168012042F2FF
:1039C0000002C4F2020291420BD0FFE7089800689F
:1039D0004DF60071CBF6FD710844B0FA80F0400955
:1039E000FFE7C10746F20030C5F6020000291CBF00
:1039F00042F20030C4F20200049941F080710BF0F1
:103A00000FF8FFE73FE0079800680021CCF6B87197
:103A1000884236D1FFE79DF812004006002830D4D6
:103A2000FFE70898006846F20001C5F602018842E7
:103A300026D1FFE708980168012042F20002C4F293
:103A4000020291420BD0FFE7089800684DF6007122
:103A5000CBF6FD710844B0FA80F04009FFE7C107DA
:103A600046F20030C5F6020000291CBF42F20030C9
:103A7000C4F20200049941F480010AF0D1FFFFE78B
:103A800000E0FFE7FFE7FFE708E00898416D41F03D
:103A90002001416501208DF81B00FFE7FFE7FFE7EC
:103AA00008E00898416D41F02001416501208DF842
:103AB0001B00FFE7FFE70898002180F85010FFE7A0
:103AC0009DF81B008DF82700FFE79DF827001AB02E
:103AD00010BD00000000000080B586B00190019884
:103AE00040F64441C2F20041884230D1FFE7102045
:103AF00011F006F843F64020C2F2004080300590F5
:103B0000802004900498012820DBFFE704980599A1
:103B100001F01F010844039005980290BFF34F8FF6
:103B2000FFE702984EF65C71CEF200010860029841
:103B30002030029003982038039003980028F0DC8E
:103B4000FFE7BFF34F8FBFF36F8FFFE7FFE706B0CD
:103B500080BD00000000000080B586B00190019893
:103B600040F64441C2F2004188422FD1FFE70120D4
:103B700010F0C6FF43F64020C2F2004005908020BE
:103B800004900498012820DBFFE70498059901F0D0
:103B90001F010844039005980290BFF34F8FFFE781
:103BA00002984EF65C71CEF2000108600298203057
:103BB000029003982038039003980028F0DCFFE778
:103BC000BFF34F8FBFF36F8FFFE7FFE706B080BDF6
:103BD00081B0009001B0704780B58AB040F6444093
:103BE000C2F200400990002008900998006800681F
:103BF00007900998006840680690099801680120BC
:103C000042F20002C4F2020291420BD0FFE709988F
:103C100000684DF60071CBF6FD710844B0FA80F0F3
:103C20004009FFE7C10746F20030C5F6020000294F
:103C30001CBF42F20030C4F202000AF011FE0190F3
:103C40009DF81C004FEA807000281AD5FFE79DF808
:103C500018008007002814D5FFE70998406DC006BA
:103C6000002806D4FFE70998416D41F400614165E1
:103C7000FFE70998FFF744FB0998006802210160FB
:103C8000FFE79DF81C004007002806D5FFE70698CF
:103C900000F0040004280ED0FFE79DF81C00000788
:103CA000002840F19980FFE79DF8180000070028E0
:103CB00040F19280FFE70998406DC006002806D4C5
:103CC000FFE70998416D41F400714165FFE70998EC
:103CD00000680AF011FE002876D0FFE70998006816
:103CE00042F20011C4F20201884205D1FFE742F21C
:103CF0000000C4F2020002E009980068FFE7099999
:103D0000096888420BD0FFE7019840B1FFE70198AE
:103D1000052804D0FFE70198092805D1FFE7099895
:103D20000068C068039015E00998006842F200112D
:103D3000C4F20201884205D1FFE742F20000C4F25A
:103D4000020002E009980068FFE702900298C0684C
:103D50000390FFE7039800F40050B0F5005F32D005
:103D6000FFE7099800680068000700282AD5FFE7E8
:103D7000099800680AF0B8FDC0B9FFE70998006823
:103D8000416821F00C0141600998416D21F4807176
:103D900041650998406DC004002806D4FFE70998E2
:103DA000416D41F001014165FFE70AE00998416D6D
:103DB00041F0100141650998816D41F00101816573
:103DC000FFE7FFE7FFE7FFE70998FFF785FE0998A0
:103DD00000680C210160FFE79DF81C0080060028A8
:103DE00006D5FFE7069800F0200020280ED0FFE758
:103DF0009DF81C004006002840F1B080FFE79DF8C8
:103E000018004006002840F1A980FFE70998406D9E
:103E1000C006002806D4FFE70998416D41F400511F
:103E20004165FFE7099800680AF02AFD05900998A6
:103E300000680AF061FD04900998006842F20011E0
:103E4000C4F20201884205D1FFE742F20000C4F249
:103E5000020002E009980068FFE7099909688842B2
:103E60000BD0FFE7019840B1FFE70198062804D086
:103E7000FFE70198072805D1FFE709980068C068A7
:103E8000039015E00998006842F20011C4F20201A3
:103E9000884205D1FFE742F20000C4F2020002E0CE
:103EA00009980068FFE702900298C0680390FFE756
:103EB000059800284AD0FFE79DF80F0080070028EA
:103EC0000AD5FFE7049800283FD0FFE79DF80D00D2
:103ED0008006002839D4FFE709980068006840068A
:103EE000002831D5FFE79DF80E00800600282AD46F
:103EF000FFE7099800680AF0BBFCC0B9FFE7099822
:103F00000068416821F0600141600998416D21F429
:103F1000805141650998406DC005002806D4FFE72F
:103F20000998416D41F001014165FFE70AE00998F8
:103F3000416D41F0100141650998816D41F0010129
:103F40008165FFE7FFE7FFE7FFE7FFE70998FFF776
:103F5000DBF90998006860210160FFE79DF81C000B
:103F60000006002813D5FFE79DF81800000600287A
:103F70000DD5FFE70998416D41F4803141650998FD
:103F800000F096FA0998006880210160FFE79DF82B
:103F90001D00C00798B1FFE79DF81900C00770B178
:103FA000FFE70998416D41F4003141650998FFF739
:103FB000B3F9099800684FF480710160FFE79DF83C
:103FC0001D008007002814D5FFE79DF81900800721
:103FD00000280ED5FFE70998416D41F48021416525
:103FE0000998FFF79DF9099800684FF40071016086
:103FF000FFE79DF81C00C00600285AD5FFE79DF892
:104000001800C006002854D5FFE70998006B18B9BE
:10401000FFE70120089035E0019840B3FFE70998D9
:104020000168012042F20002C4F2020291420BD068
:10403000FFE7099800684DF60071CBF6FD71084462
:10404000B0FA80F04009FFE7C10746F20030C5F63C
:10405000020000291CBF42F20030C4F202000AF044
:10406000F7FB18B1FFE701200890FFE709E0099886
:104070000068C068800718B1FFE701200890FFE7DB
:10408000FFE7FFE7089801280ED1FFE70998416D87
:1040900041F4806141650998816D41F002018165BB
:1040A0000998FFF795FDFFE7099800681021016066
:1040B000FFE79DF81D004007002819D5FFE79DF890
:1040C00019004007002813D5FFE70998416D41F416
:1040D000804141650998816D41F008018165099829
:1040E00000684FF4806101600998FFF711F9FFE75C
:1040F0000AB080BD0000000010B588B040F6444012
:10410000C2F20040069000208DF817000290069839
:1041100020B9FFE701208DF81F00C5E10698C068AF
:1041200038B1FFE70698007F012801D1FFE7FFE7DC
:10413000FFE70698406D50B9FFE7069800F0BCF91C
:10414000069800218165069880F85010FFE70698D0
:1041500000680AF0A9FB28B1FFE7069800680AF09A
:1041600043FBFFE7069800680AF0B6FBE8B9FFE7F3
:10417000069800680AF054FB40F20000C2F20040CA
:104180000068800942F66351C0F23E51A0FB010174
:10419000012000EB91100290FFE7029820B1FFE7A9
:1041A000029801380290F8E7FFE7069800680AF0E5
:1041B00093FB70B9FFE70698416D41F0100141652E
:1041C0000698816D41F00101816501208DF817008D
:1041D000FFE7069800680AF087FB03900698406D99
:1041E000C006002800F15281FFE70398002840F044
:1041F0004D81FFE70698406D40F0020020F480708A
:1042000006994865069800680AF05EFB002865D1AB
:10421000FFE706980168012042F20002C4F20202A0
:1042200091420BD0FFE7069800684DF60071CBF67F
:10423000FD710844B0FA80F04009FFE7C00746F27C
:104240000031C5F6020100281CBF42F20031C4F261
:10425000020142F20030C4F2020081420FD1FFE7B6
:1042600042F20000C4F202000AF02EFB044642F2C1
:104270000010C4F202000AF027FB204306E046F2D9
:104280000000C5F602000AF01FFBFFE728BBFFE7AE
:1042900006980168012042F20002C4F20202914233
:1042A0000BD0FFE7069800684DF60071CBF6FD7164
:1042B0000844B0FA80F04009FFE7C10746F2003039
:1042C000C5F6020000291CBF42F20030C4F2020011
:1042D000069949680AF094FBFFE7FFE703F08CFFBB
:1042E00041F20401884213D3FFE706988068102842
:1042F0000ED1FFE70698417D026B42EA41318268A8
:104300001143007F41EA004040F00C0004900BE0B4
:104310000698417D026B42EA413182681143007F79
:1043200041EA00400490FFE70698007F01280BD186
:10433000FFE70698006A0021CFF6FE7101EB4040CE
:10434000049908430490FFE70698406A50B1FFE7DC
:104350000698416A806A01F4787108430499084319
:104360000490FFE706980068C0684CF20301CFF69E
:10437000F07108400499084306990968C8600698D6
:1043800000680AF0B1FA0190069800680AF070FA25
:1043900000900198002858D1FFE70098002854D1D8
:1043A000FFE70698017DC06A40EA813004900698D4
:1043B0000068C06844F203018843049908430699E1
:1043C0000968C860069890F83800012828D1FFE7EE
:1043D0000698406A20B1FFE70698806A08B9FFE7AF
:1043E000FFE70698006800694FF61E01CFF600410E
:1043F00000EA010C0699D1F800E0CB6B0C6C486C1C
:104400000022CFF6FF7202EB034222431043896C75
:10441000084340EA0C0040F00100CEF8100006E02E
:1044200006980068016921F001010161FFE7069823
:104430000068006920F0704006990A68496B0843DB
:1044400010610698FDF7DCFCFFE70698C0680128BC
:104450000CD1FFE706980068006B20F00F0006996A
:104460000A68896901390843106306E00698006804
:10447000016B21F00F010163FFE70698406D40F0EA
:10448000010020F002000699486508E00698416D99
:1044900041F01001416501208DF81700FFE79DF8FC
:1044A00017008DF81F00FFE79DF81F0008B010BD32
:1044B00081B0009001B0704780B5B4B0339002A8CD
:1044C000C021FDF735FA3398006846F20001C5F6C1
:1044D000020188426FD1FFE7002003904FF40021D2
:1044E000029105210491C02105910C21069102221F
:1044F00007920891802109910A900B902B9002A8B5
:1045000005F05AFE18B1FFE7FEF772FEFFE7FFE77E
:1045100044F2E040C5F60200016841F0807101609C
:10452000006800F0807001900198FFE7FFE744F217
:10453000E040C5F60200016841F004010160006836
:1045400000F0040000900098FFE708F011FB40F62F
:10455000A840C2F200401021C4F2020101607321A0
:10456000416000218160C1604FF4806202614FF4BC
:10457000805242614FF4804282614FF48072C26186
:104580000162416202F05CF918B1FFE7FEF730FE0C
:10459000FFE7FFE7339840F6A841C2F20041C1644B
:1045A00033988863FFE77F20002104F06DFB7F20B4
:1045B00004F05EFBFFE734B080BD000000000000A7
:1045C00080B586B040F64440C2F20040049043F605
:1045D0004020C2F2004003904020029004980168FD
:1045E000012042F20002C4F2020291420BD0FFE726
:1045F000049800684DF60071CBF6FD710844B0FADE
:1046000080F04009FFE7C10746F20030C5F602001E
:1046100000291CBF42F20030C4F202000AF020F967
:104620000090049800680AF05FF9002840F0AC8020
:10463000FFE7FFE7049890F85000012804D1FFE756
:1046400002208DF81700A8E00498012180F850108E
:10465000FFE7FFE7009848B1FFE70098052805D07D
:10466000FFE70098092840F08480FFE70498FDF7F1
:10467000B7FD8DF807009DF80700002871D1FFE70E
:104680000498406D40F4807040F6016188430499BD
:1046900048650498006842F20011C4F202018842A1
:1046A00005D1FFE742F20000C4F2020002E00498E4
:1046B0000068FFE704990968884203D0FFE7009883
:1046C00030B9FFE70498416D21F480114165FFE79F
:1046D0000498406DC004002806D5FFE70498816D5A
:1046E00021F00601816503E0049800218165FFE760
:1046F0000498C06C41F6F971C9F20001C1630498D5
:10470000C06C42F20111C9F2000101640498C06C4E
:1047100042F2D101C9F20001C164049800681C2171
:104720000160FFE70498002180F85010FFE704982B
:104730000068416841F01001416004990868C96A45
:104740000AF0E6F804980168C06C4031039A029BB5
:1047500002F0DEFC8DF80700049800680AF008F902
:1047600006E0FFE70498002180F85010FFE7FFE71C
:1047700009E001208DF80700FFE70498002180F888
:104780005010FFE7FFE703E002208DF80700FFE786
:104790009DF807008DF81700FFE706B080BD000008
:1047A00080B586B0049003F02FFD0090049828B9DE
:1047B000FFE701208DF8170000F052BC049890F834
:1047C000350002280ED0FFE7049880214165FFE7FD
:1047D0000498002180F83410FFE701208DF81700BD
:1047E00000F03EBC0498016801201022C4F20202CD
:1047F000914200F09280FFE704980168012028228E
:10480000C4F20202914200F08880FFE70498016838
:1048100001204022C4F2020291427ED0FFE70498B8
:10482000016801205822C4F20202914275D0FFE7CC
:104830000498016801207022C4F2020291426CD0F7
:10484000FFE70498016801208822C4F20202914225
:1048500063D0FFE7049801680120A022C4F202029D
:1048600091425AD0FFE7049801680120B822C4F2AF
:104870000202914251D0FFE704980168012040F202
:104880001042C4F20202914247D0FFE70498016847
:10489000012040F22842C4F2020291423DD0FFE7DB
:1048A00004980168012040F24042C4F202029142A1
:1048B00033D0FFE704980168012040F25842C4F267
:1048C0000202914229D0FFE704980168012040F2DA
:1048D0007042C4F2020291421FD0FFE704980168BF
:1048E000012040F28842C4F20202914215D0FFE753
:1048F00004980168012040F2A042C4F202029142F1
:104900000BD0FFE7049800684FF64831CBF6FD71F5
:104910000844B0FA80F04009FFE7C00780B1FFE724
:1049200004980068016821F01E0101600498006885
:10493000416921F08001416104980068019009E01B
:1049400004980068016821F00E0101600498006875
:104950000190FFE70498016801201022C4F20202CE
:10496000914200F0EB80FFE70498016801202822C3
:10497000C4F20202914200F0E180FFE7049801686E
:1049800001204022C4F20202914200F0D780FFE7EA
:104990000498016801205822C4F20202914200F0FA
:1049A000CD80FFE70498016801207022C4F2020262
:1049B000914200F0C380FFE704980168012088223B
:1049C000C4F20202914200F0B980FFE70498016846
:1049D0000120A022C4F20202914200F0AF80FFE762
:1049E000049801680120B822C4F20202914200F04A
:1049F000A580FFE704980168012040F21042C4F24C
:104A00000202914200F09A80FFE7049801680120B9
:104A100040F22842C4F20202914200F08F80FFE788
:104A200004980168012040F24042C4F2020291421F
:104A300000F08480FFE704980168012040F25842AA
:104A4000C4F20202914279D0FFE704980168012084
:104A500040F27042C4F2020291426FD0FFE7049824
:104A60000168012040F28842C4F20202914265D0FE
:104A7000FFE704980168012040F2A042C4F202025C
:104A800091425BD0FFE704980168012040F2B842F0
:104A9000C4F20202914251D0FFE70498016801205C
:104AA00045F20842C5F60202914247D0FFE704985A
:104AB0000168012045F21C42C5F6020291423DD038
:104AC000FFE704980168012045F23042C5F6020272
:104AD000914233D0FFE704980168012045F2444237
:104AE000C5F60202914229D0FFE70498016801202F
:104AF00045F25842C5F6020291421FD0FFE70498E2
:104B00000168012045F26C42C5F60202914215D0BF
:104B1000FFE704980168012045F28042C5F60202D1
:104B200091420BD0FFE7049800684AF66C31CAF254
:104B3000FD710844B0FA80F04009FFE7C00738B1C2
:104B4000FFE70498006E016821F480710160FFE7BF
:104B5000049800681021C4F20201884200F08180AC
:104B6000FFE7049800682821C4F20201884278D047
:104B7000FFE7049800684021C4F20201884270D027
:104B8000FFE7049800685821C4F20201884268D007
:104B9000FFE7049800687021C4F20201884260D0E7
:104BA000FFE7049800688821C4F20201884258D0C7
:104BB000FFE704980068A021C4F20201884250D0A7
:104BC000FFE704980068B821C4F20201884248D087
:104BD000FFE70498006840F21041C4F202018842E5
:104BE0003FD0FFE70498006840F22841C4F2020178
:104BF000884236D0FFE70498006840F24041C4F292
:104C0000020188422DD0FFE70498006840F2584125
:104C1000C4F20201884224D0FFE70498006840F201
:104C20007041C4F2020188421BD0FFE7049800687B
:104C300040F28841C4F20201884212D0FFE7049892
:104C4000006840F2A041C4F20201884209D0FFE7A7
:104C50000498006840F2B841C4F20201884207D1CA
:104C6000FFE704980068016821F00101016006E097
:104C700004980068016821F001010160FFE7FFE787
:104C800001980068C007C8B1FFE703F0BDFA0099BA
:104C9000401A062811D3FFE70498202141650498A3
:104CA000032180F83510FFE70498002180F83410C4
:104CB000FFE701208DF81700D2E1E1E704980168D1
:104CC00001201022C4F20202914200F09280FFE71C
:104CD0000498016801202822C4F20202914200F0E7
:104CE0008880FFE70498016801204022C4F2020294
:104CF00091427ED0FFE70498016801205822C4F257
:104D00000202914275D0FFE70498016801207022E9
:104D1000C4F2020291426CD0FFE7049801680120BE
:104D20008822C4F20202914263D0FFE7049801682E
:104D30000120A022C4F2020291425AD0FFE7049857
:104D400001680120B822C4F20202914251D0FFE76B
:104D500004980168012040F21042C4F2020291421C
:104D600047D0FFE704980168012040F22842C4F2CE
:104D7000020291423DD0FFE704980168012040F211
:104D80004042C4F20202914233D0FFE70498016826
:104D9000012040F25842C4F20202914229D0FFE7BA
:104DA00004980168012040F27042C4F2020291426C
:104DB0001FD0FFE704980168012040F28842C4F246
:104DC0000202914215D0FFE704980168012040F2E9
:104DD000A042C4F2020291420BD0FFE7049800689F
:104DE0004FF64831CBF6FD710844B0FA80F0400927
:104DF000FFE7C00768B1FFE70498806D039004984F
:104E0000C06D00F01F003F2101FA00F00399886097
:104E10000CE00498806D02900498C06D00F01F00B3
:104E2000012101FA00F002994860FFE70498016847
:104E300001201022C4F20202914200F0EB80FFE751
:104E40000498016801202822C4F20202914200F075
:104E5000E180FFE70498016801204022C4F20202C9
:104E6000914200F0D780FFE70498016801205822A2
:104E7000C4F20202914200F0CD80FFE7049801687D
:104E800001207022C4F20202914200F0C380FFE7C9
:104E90000498016801208822C4F20202914200F0C5
:104EA000B980FFE7049801680120A022C4F2020241
:104EB000914200F0AF80FFE7049801680120B8221A
:104EC000C4F20202914200F0A580FFE70498016855
:104ED000012040F21042C4F20202914200F09A8096
:104EE000FFE704980168012040F22842C4F2020260
:104EF000914200F08F80FFE704980168012040F2A2
:104F00004042C4F20202914200F08480FFE704981C
:104F10000168012040F25842C4F20202914279D065
:104F2000FFE704980168012040F27042C4F20202D7
:104F300091426FD0FFE704980168012040F2884257
:104F4000C4F20202914265D0FFE704980168012093
:104F500040F2A042C4F2020291425BD0FFE7049803
:104F60000168012040F2B842C4F20202914251D0DD
:104F7000FFE704980168012045F20842C5F60202E5
:104F8000914247D0FFE704980168012045F21C4296
:104F9000C5F6020291423DD0FFE704980168012066
:104FA00045F23042C5F60202914233D0FFE7049841
:104FB0000168012045F24442C5F60202914229D01F
:104FC000FFE704980168012045F25842C5F6020245
:104FD00091421FD0FFE704980168012045F26C421E
:104FE000C5F60202914215D0FFE70498016801203E
:104FF00045F28042C5F6020291420BD0FFE70498C9
:1050000000684AF66C31CAF2FD710844B0FA80F0CB
:105010004009FFE7C007A0B1FFE70498416E806E2A
:1050200048600498C06E58B1FFE70498C06E0168EC
:1050300021F4807101600498016F406F4860FFE7C0
:10504000FFE70498012180F83510FFE7049800215C
:1050500080F83410FFE7FFE700208DF81700FFE726
:1050600006B080BD0000000080B584B002900298B8
:1050700020B9FFE701208DF80F001AE3029890F89D
:105080003500022807D0FFE7029880214165012002
:105090008DF80F000DE30298016801201022C4F280
:1050A0000202914200F09280FFE70298016801201D
:1050B0002822C4F20202914200F08880FFE70298A1
:1050C000016801204022C4F2020291427ED0FFE733
:1050D0000298016801205822C4F20202914275D060
:1050E000FFE70298016801207022C4F20202914297
:1050F0006CD0FFE70298016801208822C4F2020206
:10510000914263D0FFE7029801680120A022C4F217
:10511000020291425AD0FFE7029801680120B822AA
:10512000C4F20202914251D0FFE7029801680120C7
:1051300040F21042C4F20202914247D0FFE70298C7
:105140000168012040F22842C4F2020291423DD09F
:10515000FFE702980168012040F24042C4F20202D7
:10516000914233D0FFE702980168012040F2584293
:10517000C4F20202914229D0FFE70298016801209F
:1051800040F27042C4F2020291421FD0FFE702983F
:105190000168012040F28842C4F20202914215D017
:1051A000FFE702980168012040F2A042C4F2020227
:1051B00091420BD0FFE7029800684FF64831CBF6DA
:1051C000FD710844B0FA80F04009FFE7C0070028ED
:1051D00000F09D80FFE70298042180F835100298C6
:1051E00000681021C4F20201884200F08180FFE7CC
:1051F000029800682821C4F20201884278D0FFE7B3
:10520000029800684021C4F20201884270D0FFE792
:10521000029800685821C4F20201884268D0FFE772
:10522000029800687021C4F20201884260D0FFE752
:10523000029800688821C4F20201884258D0FFE732
:1052400002980068A021C4F20201884250D0FFE712
:1052500002980068B821C4F20201884248D0FFE7F2
:105260000298006840F21041C4F2020188423FD027
:10527000FFE70298006840F22841C4F20201884228
:1052800036D0FFE70298006840F24041C4F20201C4
:1052900088422DD0FFE70298006840F25841C4F2DE
:1052A0000201884224D0FFE70298006840F2704172
:1052B000C4F2020188421BD0FFE70298006840F266
:1052C0008841C4F20201884212D0FFE702980068C8
:1052D00040F2A041C4F20201884209D0FFE70298DF
:1052E000006840F2B841C4F20201884207D1FFE7EA
:1052F00002980068016821F00101016006E002984F
:105300000068016821F001010160FFE7CCE102982B
:105310000068016821F00E01016002980068102108
:10532000C4F20201884200F08180FFE70298006821
:105330002821C4F20201884278D0FFE70298006871
:105340004021C4F20201884270D0FFE70298006851
:105350005821C4F20201884268D0FFE70298006831
:105360007021C4F20201884260D0FFE70298006811
:105370008821C4F20201884258D0FFE702980068F1
:10538000A021C4F20201884250D0FFE702980068D1
:10539000B821C4F20201884248D0FFE702980068B1
:1053A00040F21041C4F2020188423FD0FFE7029868
:1053B000006840F22841C4F20201884236D0FFE77B
:1053C0000298006840F24041C4F2020188422DD0A8
:1053D000FFE70298006840F25841C4F20201884297
:1053E00024D0FFE70298006840F27041C4F2020145
:1053F00088421BD0FFE70298006840F28841C4F25F
:105400000201884212D0FFE70298006840F2A041F2
:10541000C4F20201884209D0FFE70298006840F216
:10542000B841C4F20201884207D1FFE70298006840
:10543000016821F00101016006E00298006801683E
:1054400021F001010160FFE70298016801201022AC
:10545000C4F20202914200F0EB80FFE7029801687B
:1054600001202822C4F20202914200F0E180FFE70D
:105470000298016801204022C4F20202914200F029
:10548000D780FFE70298016801205822C4F2020287
:10549000914200F0CD80FFE7029801680120702260
:1054A000C4F20202914200F0C380FFE70298016853
:1054B00001208822C4F20202914200F0B980FFE785
:1054C000029801680120A022C4F20202914200F079
:1054D000AF80FFE7029801680120B822C4F20202FF
:1054E000914200F0A580FFE702980168012040F298
:1054F0001042C4F20202914200F09A80FFE7029843
:105500000168012040F22842C4F20202914200F0F8
:105510008F80FFE702980168012040F24042C4F208
:105520000202914200F08480FFE7029801680120A6
:1055300040F25842C4F20202914279D0FFE7029849
:105540000168012040F27042C4F2020291426FD021
:10555000FFE702980168012040F28842C4F202028B
:10556000914265D0FFE702980168012040F2A04215
:10557000C4F2020291425BD0FFE702980168012069
:1055800040F2B842C4F20202914251D0FFE70298C1
:105590000168012045F20842C5F60202914247D057
:1055A000FFE702980168012045F21C42C5F602029D
:1055B00091423DD0FFE702980168012045F2304258
:1055C000C5F60202914233D0FFE70298016801203C
:1055D00045F24442C5F60202914229D0FFE7029803
:1055E0000168012045F25842C5F6020291421FD0DF
:1055F000FFE702980168012045F26C42C5F60202FD
:10560000914215D0FFE702980168012045F28042DF
:10561000C5F6020291420BD0FFE7029800684AF6F5
:105620006C31CAF2FD710844B0FA80F04009FFE71E
:10563000C00730B3FFE70298006E016821F4807163
:1056400001600298806D01900298C06D00F01F000B
:10565000012101FA00F0019948600298416E806EC4
:1056600048600298C06E58B1FFE70298C06E0168AA
:1056700021F4807101600298016F406F4860FFE77C
:10568000FFE70298012180F83510FFE7029800211A
:1056900080F83410FFE70298006D20B1FFE7029810
:1056A000016D8847FFE7FFE7FFE700208DF80F0057
:1056B000FFE79DF80F0004B080BD0000000000006F
:1056C00080B588B007900020039040F20000C2F23D
:1056D0000040006848F2B511C1F64E31A0FB01014F
:1056E000880A02900798806D01900798806D00905D
:1056F0000198006806900098006805900798016876
:1057000001201022C4F20202914200F09280FFE7D1
:105710000798016801202822C4F20202914200F099
:105720008880FFE70798016801204022C4F2020246
:1057300091427ED0FFE70798016801205822C4F209
:105740000202914275D0FFE707980168012070229C
:10575000C4F2020291426CD0FFE707980168012071
:105760008822C4F20202914263D0FFE707980168E1
:105770000120A022C4F2020291425AD0FFE707980A
:1057800001680120B822C4F20202914251D0FFE721
:1057900007980168012040F21042C4F202029142CF
:1057A00047D0FFE707980168012040F22842C4F281
:1057B000020291423DD0FFE707980168012040F2C4
:1057C0004042C4F20202914233D0FFE707980168D9
:1057D000012040F25842C4F20202914229D0FFE770
:1057E00007980168012040F27042C4F2020291421F
:1057F0001FD0FFE707980168012040F28842C4F2F9
:105800000202914215D0FFE707980168012040F29B
:10581000A042C4F2020291420BD0FFE70798006851
:105820004FF64831CBF6FD710844B0FA80F04009DC
:10583000FFE7C007002800F00B85FFE706980799EF
:10584000C96D01F01F01C8400007002840F1AE807B
:10585000FFE7079800681021C4F20201884200F0B7
:105860008180FFE7079800682821C4F2020188427E
:1058700078D0FFE7079800684021C4F2020188420F
:1058800070D0FFE7079800685821C4F202018842EF
:1058900068D0FFE7079800687021C4F202018842CF
:1058A00060D0FFE7079800688821C4F202018842AF
:1058B00058D0FFE707980068A021C4F2020188428F
:1058C00050D0FFE707980068B821C4F2020188426F
:1058D00048D0FFE70798006840F21041C4F2020187
:1058E00088423FD0FFE70798006840F22841C4F2A1
:1058F0000201884236D0FFE70798006840F2404135
:10590000C4F2020188422DD0FFE70798006840F2F8
:105910005841C4F20201884224D0FFE7079800688A
:1059200040F27041C4F2020188421BD0FFE70798A1
:10593000006840F28841C4F20201884212D0FFE7B9
:105940000798006840F2A041C4F20201884209D0E1
:10595000FFE70798006840F2B841C4F202018842AC
:1059600006D1FFE707980068006800F0040005E032
:1059700007980068006800F00800FFE7A8B1FFE79B
:1059800007980068016821F0040101600798C06D64
:1059900000F01F00082101FA00F0019988600798C3
:1059A000416D41F001014165FFE7FFE70698079966
:1059B000C96D01F01F01C840C007002800F0A78092
:1059C000FFE7079800681021C4F20201884200F046
:1059D0008180FFE7079800682821C4F2020188420D
:1059E00078D0FFE7079800684021C4F2020188429E
:1059F00070D0FFE7079800685821C4F2020188427E
:105A000068D0FFE7079800687021C4F2020188425D
:105A100060D0FFE7079800688821C4F2020188423D
:105A200058D0FFE707980068A021C4F2020188421D
:105A300050D0FFE707980068B821C4F202018842FD
:105A400048D0FFE70798006840F21041C4F2020115
:105A500088423FD0FFE70798006840F22841C4F22F
:105A60000201884236D0FFE70798006840F24041C3
:105A7000C4F2020188422DD0FFE70798006840F287
:105A80005841C4F20201884224D0FFE70798006819
:105A900040F27041C4F2020188421BD0FFE7079830
:105AA000006840F28841C4F20201884212D0FFE748
:105AB0000798006840F2A041C4F20201884209D070
:105AC000FFE70798006840F2B841C4F2020188423B
:105AD00006D1FFE707980068406900F0800004E005
