:0200000490006A
:10000000781800242904009089910090C9890090F3
:100010008191009019210090D1A90090000000006A
:100020000000000000000000000000003B04009001
:1000300071250090000000007D0500900B050090E8
:100040004304009043040090430400904304009054
:100050004304009043040090430400904304009044
:100060004304009043040090430400902121009039
:100070004304009043040090430400904304009024
:100080004304009043040090430400904304009014
:100090004304009043040090430400904304009004
:1000A00043040090430400904304009043040090F4
:1000B00043040090430400904304009043040090E4
:1000C00043040090430400904304009043040090D4
:1000D00043040090430400904304009043040090C4
:1000E000430400904304009000000000430400908B
:1000F00043040090430400904304009043040090A4
:1001000043040090E1930090430400904304009066
:10011000430400904304009043040090699E0090C3
:100120004304009043040090430400904304009073
:10013000430400907925009011270090430400901B
:1001400000000000000000000000000000000000AF
:100150004304009043040090430400904304009043
:100160004304009043040090430400904304009033
:100170004304009043040090430400904304009023
:100180004304009043040090430400904304009013
:100190004304009043040090430400904304009003
:1001A00043040090430400904304009043040090F3
:1001B00043040090430400904304009043040090E3
:1001C00043040090430400904304009043040090D3
:1001D00043040090430400904304009043040090C3
:1001E00043040090430400904304009043040090B3
:1001F00043040090430400904304009043040090A3
:100200004304009043040090430400904304009092
:100210004304009043040090430400904304009082
:100220004304009043040090430400900000000049
:10023000430400904304009000000000311E009031
:100240004304009043040090430400904304009052
:100250004304009043040090430400904304009042
:100260004304009043040090430400904304009032
:1002700043040090430400904304009000000000F9
:1002800043040090430400904304009000000000E9
:10029000000000004304009000F002F800F0B4F801
:1002A0000AA090E8000C82448344AAF10107DA45D1
:1002B00001D100F0A9F8AFF2090EBAE80F0013F06F
:1002C000010F18BFFB1A43F00103184710DE0000AE
:1002D00040DE00000A4410F8014B14F00F0508BF7F
:1002E00010F8015B240908BF10F8014B6D1E05D002
:1002F00010F8013B6D1E01F8013BF9D1641E03D0DB
:10030000641E01F8015BFBD19142E4D37047000009
:10031000103A24BF78C878C1FAD8520724BF30C831
:1003200030C144BF04680C60704700000023002403
:1003300000250026103A28BF78C1FBD8520728BFF5
:1003400030C148BF0B6070476E2900F03F857029AF
:1003500000F0AB8666290DF0D28565290DF0CF85BA
:1003600067290DF0CC8561290DF0CB8503681B0A48
:1003700028BF41F08001692900F0EC84642900F075
:10038000E984752900F0E6846F2900F03986782920
:1003900000F07786E92900F0D385E42900F0D085C4
:1003A000F52900F0CD85EF2900F03686F82900F018
:1003B00076860368DB0928BF41F08001632900F0DD
:1003C0004385732900F04885E32901F02D83F32943
:1003D00001F03283002070471FB50DF083FD9DE8CA
:1003E000030000F047FC01F0CFFB040000200021D7
:1003F0000DF04CFD401C6060002000210DF05CFD04
:10040000E0601FBD10B510BD01F098FB1146FFF76D
:10041000E3FF0CF0EDFF01F07BFC03B4FFF7F2FF0C
:1004200003BC0AF0D9FA0000094880470948004790
:10043000FEE7FEE7FEE7FEE7FEE7FEE7FEE7FEE794
:10044000FEE7FEE704480549054A064B70470000F1
:10045000A99D009099020090781200247818002439
:10046000781400247814002400000000000000002C
:10047000380300240000002000000090BC0300248A
:10048000001000E0FF5207000000FF4000BF00BF67
:1004900072B65FF824005FF8241001F104010160D6
:1004A0004FF0E0205FF83010C0F8081D5FF834000E
:1004B0005FF83C10096801605FF83C00016841F09A
:1004C000010101604FF0E0205FF8481041614FF0FA
:1004D000070101614FF00001C0F8181D4FF07F4186
:1004E000C0F81C1D5FF86010C0F8201D7047FFF7B2
:1004F000FEBFFFF7FEBFFFF7FEBF01B50AF084FAAB
:100500000AF0E2FABDE80140704701B50AF07CFA52
:1005100000F0D6F80AF0D8FABDE801407047FFF7BE
:10052000FEBFFFF7FEBF000000000000000000005B
:10053000EFF311804FF0F00181F311887047000054
:1005400080F31188704700000000000000000000E8
:100550004FF000003A4A1060EFF3148020F00400DE
:1005600080F3148862B64FF080504FF0E021C1F85C
:10057000040DBFF34F8FBFF36F8FFEE74FF0F00115
:1005800081F3118801B50AF01BFBBDE801404FF073
:10059000000080F311882B482B4A4FF000030168BC
:1005A00091B10360EFF3098C2CE9F00F1EF0100FEE
:1005B00001D12CED108A254C4CF804ED2568C1F8CA
:1005C00008C00DB18D6123604FF0F00181F31188F7
:1005D0001168E9B101604FF0000484F311884F689D
:1005E0001A4C8D6907F101074F60256003B40AF0CA
:1005F000BFFA03BCD1F808C05CF804EB1EF0100F82
:1006000001D1BCEC108ABCE8F00F8CF3098870476C
:100610004FF0F00181F311881168016021B94FF0AA
:10062000000484F31188F3E74FF000674FF0E028EF
:10063000C8F8047D4FF0000484F31188CFE77047B9
:10064000A0020024880200248C020024B4020024AA
:10065000026922F00702A2F144026FF00203136064
:100660004FF0000353609360D36013615361936153
:10067000D361136253629362D362136353634FF087
:10068000FF339363D1634FF08073136482607047CC
:100690004FF080504FF0E021C1F8040DEFF30580DA
:1006A000002807D1EFF311814FF0000080F311888B
:1006B00081F3118870470000000000000000000076
:1006C0002249086800F101000860214B1A683AB11C
:1006D000A2F101021A601AB91E4B4FF00100186016
:1006E0001D490868026822B11C4B4FF001021A60D4
:1006F00008E000F104001A4B1A68904201D1194B2E
:1007000018680860134B1A6812B914490868D0B108
:100710002DE901401149086808B10BF065FC0D4B4B
:100720001A6872B10BF094FB0F48016849B90F4881
:1007300001680F4A13680F484FF08052994200D069
:100740000260BDE80140BFF34F8F7047B002002444
:10075000B4020024B8020024C8020024BC02002411
:10076000CC020024C4020024A00200248802002439
:100770008C02002404ED00E0704770B5064600F0DE
:1007800059FA056806F10B0020F00704B4429CBF3B
:10079000002070BD2B466A68BAB11068A04210D321
:1007A00004F1080188423CBF5068586007D3516883
:1007B000101941601168091B016058601460101D18
:1007C00070BD13465268002AE7D12146284600F042
:1007D0003DFA0028DED170BD70B50446051F00F05B
:1007E00029FA0068002C14BF446870BD002C18BFA3
:1007F000AC423CBF20466468F8D301680A18AA429C
:1008000018BF456003D12A68054611440160286875
:100810004119A1421CBF6C6070BD616869602168AC
:100820000844286070BD53EA020C00F069802DE98D
:10083000F04B4FF00006002B1FBFB3FA83F503FA0D
:1008400005F424FA05F65E4012BF1643B2FA82F5AB
:1008500002FA05F4C5F120051EBF22FA05FC44EAA0
:100860000C04203556EA044C4FEA144418BF641CAB
:100870004FF000084FF00009904271EB030C39D3A0
:10088000002919BFB1FA81F701FA07F6B0FA80F72B
:1008900000FA07F6C7F120071EBF20FA07FC46EA58
:1008A0000C062037B6FBF4FCA7EB0507103F07F05A
:1008B0001F0BCBF120062CFA06F60CFA0BFB44BFFB
:1008C000B3460026202FA4BF5E464FF0000B5BEA24
:1008D000060C08BF4FF0010B19EB0B0948EB06089B
:1008E000ABFB027C06FB02CC0BFB03CCC01B71EB09
:1008F0000C01C1E70B46024641464846BDE8F08B75
:1009000013B5084318BF4FF0FF300146AFF3008026
:10091000BDE81C40704700007CB51D4616460C0023
:10092000009007D04142A14202D32044401E01E082
:100930004FF0FF30064B7B442A4669460190304613
:1009400000F05DFA002C02D0009A002111707CBDED
:10095000EB0400000FB4044910B503AA029800F09C
:100960007FFA10BC5DF814FBE402002470B50C465D
:100970000546012A05D02878800600D5EA690023BB
:1009800002E0012305E05B1C934202D2E05C0028F8
:10099000F9D1A869E618C01AA861286A1844286223
:1009A000284600F09DF904E0D5E9012114F8010B77
:1009B0009047B442F8D3284600F0A8F970BD000073
:1009C0002DE9F05F894604464FF0000ADFF874B164
:1009D000FB44C0F820A02046E1688847002874D076
:1009E000252806D0D4E901219047206A401C2062C6
:1009F000F1E700265F462046E16888472028054643
:100A000007DB312D05D2781910F8200C08B1064308
:100A1000F1E7B00701D526F00406C4F81CA00027B2
:100A2000C4F818A02A2D09D028460DF027FA38B3AB
:100A300004EB8708303DC8F8185019E059F8041B3A
:100A4000204604EB87029161E1688847012F054643
:100A500018D1E069002820DA26F020061DE0D8F839
:100A6000180000EB800005EB40003038C8F8180093
:100A70002046E168884705460DF000FA0028EED1CF
:100A8000012F0AD02E2D08D12046E16888477F1C0F
:100A90000546022F46F02006C4DBA069002803DAD1
:100AA000404246F00106A061F00701D026F0100692
:100AB0006C2D0BD0682D09D04C2D39D06A2D35D036
:100AC000742D35D07A2D33D016E038E0E1682F460A
:100AD00020468847B842054609D16C2F26D04FF4EE
:100AE0008060E168064320468847054604E06C2F95
:100AF0001AD04FF4807006430DB3A5F141001928B8
:100B000002D8203546F400664A462946204626602B
:100B10004E46FFF719FC80B101280BD0F61D26F0D8
:100B2000070000F1080956E74020E4E78020D8E7F5
:100B30000020D6E706F104094DE7284652E7206A6F
:100B4000BDE8F09F32D5000070B5064600F076F89B
:100B50000468054630460A22002100F0B1FA2C60F4
:100B600070BD000010B5044603E00CF099FA401C7B
:100B700009D014F8010B05490028F6D1BDE8104052
:100B80000A200CF08DBA4FF0FF3010BDE4020024B3
:100B900010B5431C02E010F8011B71B18107FAD1B6
:100BA0004FF0013202C88C1A8C4314EAC211F9D0FA
:100BB000C01A0A0603D0C01E10BDC01A10BD0A0418
:100BC00001D0801E10BD0902FCD0401E10BD02F0F5
:100BD000FF0343EA032242EA024200F0ABBA4FF0BD
:100BE000000200B5134694469646203922BFA0E87D
:100BF0000C50A0E80C50B1F12001BFF4F7AF090789
:100C000028BFA0E80C5048BF0CC05DF804EB890079
:100C100028BF40F8042B08BF704748BF20F8022BBC
:100C200011F0804F18BF00F8012B704770477047D4
:100C30007047704700487047E8000024004870473C
:100C4000E0000024704770477047704738B504468D
:100C50000A4600206946AFF30080002808BF38BD6F
:100C600002460099204600F091FA012038BD01208B
:100C700000F05DBFF8B5AFF30080054600200C46DC
:100C8000102000BF0646A819A0420DD93246694679
:100C90000020AFF30080070008BF00F048FF009875
:100CA000A04218BF0546C419FFF7C4FF05600746F8
:100CB000F01D20F007004619284600F00AF8B4425B
:100CC00008BFF8BDA21B31463868BDE8F84000F007
:100CD0005DBA00210160C0E9011070471020704723
:100CE00070B5044685690068C10601D5302600E06C
:100CF0002026C00707D070BDD4E9012130469047B7
:100D0000206A401C20626D1EF6D570BD70B5044689
:100D100085690078C00707D170BDD4E90121202082
:100D20009047206A401C20626D1EF6D570BD096890
:100D30004A0501D540B27047C905FCD500B27047DD
:100D400009684A0501D5C0B27047C905FCD580B213
:100D5000704700002DE9F04106460024106875290F
:100D6000314616A510D0FFF7E2FF002802DA404214
:100D700013A507E031688A0701D512A502E04907EB
:100D800004D511A5012401E0FFF7DAFF00210A22B2
:100D900006F1240709E0B0FBF2FCB0FBF2F302FB22
:100DA0001C00303078541846491C0028F3D12346E3
:100DB0002A463046BDE8F04100F047BA0000000086
:100DC0002D0000002B0000002000000011680268C8
:100DD000006A530501D508700AE0D30501D50880E3
:100DE00006E0130603D5C217C1E9000200E008605F
:100DF0000120704701694A1C02610878704700B5FC
:100E00008FB0CDE901310021059105497944CDE943
:100E1000031011466846FFF7D3FD0FB000BD000078
:100E2000E5FFFFFFD1E900239A4202D2531C0B6079
:100E30001070704710B5436913B1AFF3008001E043
:100E4000FFF794FD012010BD127800F124010A7013
:100E500000224A700122EDE711684FF0FF32E9E706
:100E6000074B70B50D467B44FFF7C9FF0446284683
:100E700000F035FE10B14FF0FF3070BD204670BD60
:100E800037C200002DE9FF5F15468A460446DFF8A9
:100E9000AC80F8440027D8E900103E46CDE90010A8
:100EA00010E03AF816106A4602A800F01CFE411C39
:100EB00007D02178890603D5E269391891420DD807
:100EC0000744761C2078800602D5E069B84205DD2B
:100ED000AE42E6DB3AF816000028E2D1A069C01B5A
:100EE000A0612046FFF7FCFED8E90010CDE9001014
:100EF000002017E03AF818106A4602A800F0F3FD47
:100F0000B0F1FF3F81460BD000250DF1080B05E045
:100F1000D4E901211BF8050090476D1C4D45F7D31E
:100F200008F10100B0428046E4DB206A38442062C8
:100F30002046FFF7EBFEBDE8FF9F000082D00000D7
:100F40002DE9F0418046D21D22F007020025D2E9AA
:100F50000002F52915A614D0011E72F1000106DA6F
:100F60000023D0EB030063EB020211A608E0D8F8DF
:100F700000108B0701D50FA602E0490701D50EA688
:100F800001251146002408F1240704E000F018F9B7
:100F900030323A55641C50EA0102F7D12B463246F2
:100FA00021464046BDE8F04100F04FB90000000086
:100FB0002D0000002B0000002000000030B40021B4
:100FC00000F1240408E002F00705D208303542EAB7
:100FD0004372DB086554491C52EA0305F3D10468E7
:100FE000002310A2250708D504F020040C4304D0E8
:100FF000C46901230CA2641EC46130BC00F025B991
:1010000010B5044621461068FFF79AFE02462046B6
:10101000BDE810400023D1E7D21D22F00701D1E93D
:101020000023CBE70000000030000000F0B40D46C4
:101030000188090502D5214C7C4402E01F4C7C4408
:101040000E34002100F1240608E002F00F07120917
:10105000E75D42EA03721B097754491C52EA030711
:10106000F3D102780023120704D5702D06D009B100
:10107000022311342246F0BC00F0E7B801231034FB
:10108000F8E770B504460D4621461068FFF758FE94
:10109000024629462046BDE870400023C6E7D21D1F
:1010A00022F00703D3E90023C0E70368126843F086
:1010B000200303600823C3610023B7E7E4CE0000E8
:1010C0002DE9F04791460F4680460446002614F865
:1010D000015B2DB100F052F80068405DC007F6D109
:1010E0002B2D02D02D2D18D0641E4A46394620469D
:1010F00000F0A6FC27B13968A14201D1C7F80080F1
:101100004FF0020471050BD54042002803DDFFF7C4
:1011100095FD0460A007BDE8F08746F48066E4E72B
:101120000028F8DAFFF78AFD04606FF00040F2E76C
:101130004FF000020429C0F0128010F0030C3FF4BD
:1011400050ADCCF1040CBCF1020F18BF00F8012B1C
:10115000A8BF20F8022BA1EB0C01FFF742BD5FEA0C
:10116000C17C24BF00F8012B00F8012B48BF00F818
:10117000012B704700487047E000002410B500F0D4
:1011800003FD001D10BD00BF05CD000003464068F3
:101190008C46002818BF88423CBF03464068F8D3FD
:1011A00018681844884207D00CF1030020F00700AB
:1011B000001D411A521A0146081D0A60FFF70CBBB8
:1011C00030B5B0F10A0271F100034FEA900E4EEA19
:1011D000817EB0EB0E0061EB91014FEA101E4EEAEA
:1011E000017E10EB0E0041EB11114FEA102E4EEA7A
:1011F000016E10EB0E0041EB11214FEA104E4EEA4A
:10120000014E10EB0E0041EB1141401841F100017D
:101210004FEAD00040EA41704FEAD1014FEA810421
:1012200044EA907410EB800544EB01046D1944EB23
:101230000404521BA3414FF0000348BF0A3200D5FB
:1012400030BD401C41F1000130BD2DE9F0470D4695
:1012500099469246044600F124080168880604D5A0
:10126000E06921F01001216000E00120A84201DDC9
:10127000471B00E00027A1697A1902EB0900081A50
:10128000A0612078C00602D42046FFF729FD002681
:1012900008E0D4E901211AF806009047206A401CB2
:1012A000761C20624E45F4DB2078C0060AD5204625
:1012B000FFF716FD06E0D4E9012130209047206AAF
:1012C000401C2062381EA7F10107F4DC07E0D4E9D6
:1012D000012118F805009047206A401C2062281E52
:1012E000A5F10105F3DC2046FFF710FD207800068C
:1012F00002D50220BDE8F0870120FBE72DE9FF4F72
:101300000C461E464FF0FF378BB0D2E90001DDF8E6
:1013100060800A908A46C1F30A5505B93D4600210E
:1013200008464FF00000BAF1000F00F4400005DA63
:1013300000EB80004FF4400101EA50004FEA905961
:10134000B9F1010F00DDB9460A9850EA4A000ED003
:1013500044F61050A5F2FF3545432F14B8F1000FA5
:101360001ED07542291E1EDDC9F100021CE0B8F135
:10137000010F4FF0000001D0302103E0F24305E0FF
:101380002154401CB042FBDB304600220021215496
:101390000B99C1F80880C1E900200FB0BDE8F08FBB
:1013A000BD1B6D1CDEE74A4600DA694206A800F064
:1013B0003DFC06AB93E8070003AB83E8070050460B
:1013C0000A990CF07BF98DE80700A0F500501F3852
:1013D00000900398002D0ADD42F21F014A4608449E
:1013E000002303A9039068460CF0E4FB09E0A0F594
:1013F00000504A461F38002303A9039068460CF0AA
:10140000EEFB8DE807000004000C03D04FF0FF3026
:10141000410800E01046B8F1000F03D0002200920E
:1014200015461EE0751E05D4FFF7CAFE3032625520
:101430006D1EF9D5B3460122084302D000227F1C5D
:1014400004E02078302801D100227F1E002A09976D
:1014500084D01DE0112D07DAFFF7B2FE303262555D
:101460006D1C50EA0102F5D1084302D00098C8B1C2
:101470000EE00021681E05E0235C625C6354225488
:10148000401E491C8142F7DBAB46A81B401E099059
:10149000002004F80B000B98099AC0F80880C0E9F6
:1014A000002B7AE711264FF0000857E72DE9F04F9F
:1014B00088460446D21D22F0070191B0D1E900010F
:1014C000CDE90A010CF0C2FC02460B98C00F01D016
:1014D0002D2007E02068810701D52B2002E0202184
:1014E00001EAC000032A099001D0072A05DB034660
:1014F0004146204600F04CFB0BE12078800601D5E8
:10150000E06900E00620B8F1650F814606D0B8F129
:10151000660F18D0B8F1670F70D131E00020B9F133
:10152000110F009001DB112301E009F101030AAA68
:1015300001A90CA8FFF7E2FEDDE90C70002609F115
:101540000105834647E001204B4600904FF00047DD
:101550000AAA01A90CA8FFF7D1FEDDE90DB00C998C
:101560005D46002610B909F101000D18B9EB050020
:1015700003D4C0F1FF3609F10105A5EB09002BE00A
:10158000B9F1010F01DA4FF001090020B9F1110F93
:101590000090484601DD112300E003460AAA01A994
:1015A0000CA8FFF7ABFEDDE90C704D460026834624
:1015B000207800070AD4AB4500DA5D4601A8012D6A
:1015C00004DD411911F8011C302907D04F4502DA1A
:1015D00017F1040F04DA012082460FE06D1EEEE7DA
:1015E000002F02DCED1B3E4403E0781CA84200DD26
:1015F0007D1CB81B00F1010A4FF00047207800075E
:1016000003D4AA4501DB4FF0FF3A0021B7F1004FA8
:101610000DF143088DF8431024D002202B23002F16
:1016200001DA7F422D230A21021EA0F1010000DC15
:101630005FB197FBF1FC97FBF1F201FB1C7C1746B5
:101640000CF1300C08F801CDEEE7A8F101000370B1
:101650002188090501D5452100E06521A0F1010897
:1016600000F8011C09980FA9A1EB0807FF1D00B1A4
:101670000120411901EBEA70A1693844081A401EA3
:10168000A0612078C00602D42046FFF729FB099804
:1016900028B1D4E901219047206A401C20622078BB
:1016A000C00622D52046FFF71BFB1EE0002E04DB00
:1016B000B34502DD01A8805D00E03020D4E90121BE
:1016C0009047206A401C2062761CAAF101005FEA64
:1016D000000A0AD100F058FAC0680168405CD4E9F9
:1016E00001219047206A401C2062281EA5F10105B7
:1016F000DCDC07E0D4E9012118F8010B9047206AEF
:10170000401C2062381EA7F10107F3DC2046FFF7DA
:10171000FDFA032011B041E62DE9F04F04460D46D5
:10172000D21D22F0070089B0D0E90097484639461B
:101730000CF08CFB0246F80F01D02D2307E0206847
:10174000810701D52B2302E0202101EAC0038DF897
:1017500020300BB1012000E00020032A824601D096
:10176000072A04DB2946204600F012FA3FE12078E0
:10177000800601D40D2500E0E569C7F30A560D2D5A
:1017800049DA00214FEA175B08464FF00000002FAE
:1017900000F4400007DA00EB80004FF4400100EB5A
:1017A000D07001EA60008115012901DD4FF0FF31A1
:1017B00000224FEA850CBCF1180F06D31346ACF19A
:1017C00018004FF08052C24003E04FF4801323FA18
:1017D0000CF30CF10C0CBCF1200F04D3ACF1200C79
:1017E00009FA0CF001E007FA0CF000294FF000486C
:1017F00001DD18B90FE00ED140450CD319EB0209F9
:101800005F4121B9404502D19F4329EA0209BBEB60
:10181000175F00D0761C2088000502D57B487844ED
:1018200002E07A487844193808AA302302F80A30CE
:10183000037C0AF10101002E0AF1020A53546A46A0
:1018400002DC4FF0300101E04FF031014FF00108B0
:101850008DF8001002D0A6F2FF3603E059EA4701E6
:1018600000D06B4E002D02DC2178090704D54FF023
:1018700002082E218DF80110C44600210BE0C7F3A9
:1018800003433F01C35C491C6D1E02F80830052963
:1018900008F1010801DA002DF1DC00210CE000EB79
:1018A0001973491C1B786D1E082902F808304FEA8D
:1018B000091908F1010801DA002DF0DC21688B0616
:1018C00002D516E0A8F10108E04505DD02EB0803AA
:1018D00013F8013C302BF5D0B8F1000F09DD02EB15
:1018E000080313F8013C2E2B03D1090701D4A8F1FA
:1018F0000108002D05DD3E2102F808106D1E08F1DB
:101900000108407C002E02F8080008F1010804DA02
:101910002D20764202F8080002E02B2002F8080091
:101920000A214FF47A70864208F101080BDB96FB1E
:10193000F0F3303302F8083096FBF0F308F10108B9
:1019400000FB136601E0642E0CDB642096FBF0F3D1
:10195000303302F8083096FBF0F308F1010800FB81
:10196000136601E00A2E06DB96FBF1F0303002F838
:10197000080008F1010896FBF1F001FB106030301F
:1019800002F80800A16908F1010808EB050202EB62
:101990000A00081AA0612078C00602D42046FFF78A
:1019A0009FF9216A08AE01EB0A00206204E0D4E945
:1019B000012116F8010B9047BAF1010AF7D22078FD
:1019C000C00602D52046FFF78BF96E4609E016F8EF
:1019D000010B3E280FD0D4E901219047206A401C1A
:1019E0002062B8F10108F2D22046FFF78FF909B062
:1019F0000320BDE8F08F206A2844206203E0D4E988
:101A00000121302090476D1EEBD3F8E739C7000065
:101A100002FCFFFF10B5436913B1AFF3008001E092
:101A2000FFF730FA012010BD128800F124018284F2
:101A30000022C2840122EDE711684FF0FF32E9E78E
:101A40002DE9F05F824615468B4600270AF1010416
:101A5000B9460078302801D09DB113E014F8010B8D
:101A60000127782803D0582801D045B10AE00DB1EC
:101A7000102D07D1002714F8010B102502E00825CE
:101A800000E00A250026B0460EE005FB080005FB35
:101A900006F101271FFA80F801EB1046B6F5803FEA
:101AA00000D3B94614F8010B294600F0B1F800281C
:101AB000EBDABBF1000F05D00FB1641E00E0544615
:101AC000CBF80040B9F1000F06D0FFF7B7F80221BC
:101AD0000160C81EBDE8F09F48EA0640FAE7007BB7
:101AE00000F0800070472DE9F04116460C4605468F
:101AF000FFF744FB036893F80101012807D0FF2C8E
:101B000012D8185D80B101202C70BDE8F081D3F8A7
:101B100007013246214603F20713C7182846BC4680
:101B2000BDE8F041002360474FF0FF30EDE710B50E
:101B300000F0FCF8BDE8104000F0F3B87546FFF780
:101B400019FBAE4605006946534620F0070085465E
:101B500018B020B5FEF776FCBDE820404FF0000637
:101B60004FF000074FF000084FF0000BAC46ACE818
:101B7000C009ACE8C009ACE8C009ACE8C00921F074
:101B800007018D467047000000487047000100249F
:101B90002DE9F0411F46044603260168072A01F497
:101BA000006004DB08B116A505E016A503E008B146
:101BB00015A500E015A521F010002060A069C01E49
:101BC000A0610FB1401EA0612046FFF789F84FB118
:101BD000D4E9012138469047206A401C2062C01C8D
:101BE000206206E0206AFAE7D4E9012115F8010B2A
:101BF0009047761EF8D22046FFF788F8BDE8F081BE
:101C00004E414E006E616E00494E4600696E6600A0
:101C10003A2800D2303820F02002412A01D3A2F124
:101C20003700884201D34FF0FF3070472DE9F0476D
:101C3000814616468AB0354878440DC88DE80D00B7
:101C400032487844801C03AC0DC884E80D0041F68E
:101C50009B300844372190FBF1F290FBF1F5A5F1A0
:101C6000800501FB12041B3C02D56442012000E008
:101C70000020DFF898A080460027FA44AAF1BE0AA7
:101C80000EE0E0070AD03246684607EB4701012321
:101C90000AEB81010BF0A3FF8DE8070064107F1CA5
:101CA000002CEED1194F7F44AE3F19E0E80715D064
:101CB00007EB04100DF1180A90E80E008AE80E00F8
:101CC000C068F04201D1981908903246012306A954
:101CD00003A80BF084FF03AB83E807006D10641CBE
:101CE000002DE3D14FF0010332466946B8F1000FF1
:101CF00003A802D00BF05EFF01E00BF070FFC9E912
:101D00000001C9F808200AB0BDE8F087B0C30000A0
:101D100010B50446AFF300802046BDE81040FEF742
:101D20007CBB002801D008F057BE704710B50128D1
:101D300005D0002103A000F021F8012010BD09A169
:101D4000F8E7000053494752544D454D3A204F752E
:101D500074206F662068656170206D656D6F7279A3
:101D6000000000003A2048656170206D656D6F725B
:101D70007920636F727275707465640070B5054682
:101D80000C460A2000E06D1C08F02AFE35B12878C8
:101D90000028F8D102E0641C08F022FE14B120787B
:101DA0000028F8D1BDE870400A2008F019BE0000F4
:101DB00030B44FF0013C50F8042BCCFA52F451F8F7
:101DC000043BD51A20D1FCB950F8042BCCFA52F4BC
:101DD00051F8043BD51A17D1B4B950F8042BCCFAFA
:101DE00052F451F8043BD51A0ED16CB950F8042BBB
:101DF000CCFA52F451F8043BD51A05D1002CDAD0B4
:101E000030BC4FF00000704729BAB1FA81F111F0EF
:101E10001801D1F120008440F2D1CA40CB4012F029
:101E2000FF0213F0FF0330BCD01A7047000000001F
:101E300040F6EC10C2F2004000F0FEBE00000000D0
:101E4000B0B50446006842F2001140F48070C4F25C
:101E50000201884218D142F20830C4F20200006840
:101E600010F4403F18D004F0E7FF61680546B1F573
:101E7000803F05D0B1F5403F2CD0B1F5003F2AD1CD
:101E8000080CB5FBF0F526E046F20830C5F6020076
:101E9000006810F4403FE6D14FF40020002103F029
:101EA0009FFE61680546A1F580224FEAB2420A2AE8
:101EB00011D8DFE802F00707070707075153555706
:101EC000590000BF6FF0010000EA5140B5FBF0F58A
:101ED00001E000BFAD0802F0D3FF41F203018842E8
:101EE0000ED8206842F60151C0F231118D4281684E
:101EF0002CBF41F4807121F480718160B0BD00BFBE
:101F00004BF62140C0F2BE00854205D820688168AA
:101F100021F440718160B0BD47F64100C0F27D10F0
:101F2000854207D820680122816862F30921816017
:101F3000B0BD00BF20684FF28101C0F2FA218D428E
:101F4000816805D8022262F309218160B0BD00BF1B
:101F500041F440718160B0BD2D09BCE76D09BAE75D
:101F6000AD09B8E7ED09B6E72D0AB4E700000000B7
:101F70000146806B426D12F0500F426D06D0D206C2
:101F800010D4C06CC26C0846104700BF42F4007108
:101F9000416501680A681207CA6805D4910709D02B
:101FA00000F032BE00F044BE12F4406FF8D1C968B0
:101FB0008904F5D4416D21F480714165416DC904F6
:101FC000EED4416D41F00101416500F01DBE0000FD
:101FD000806B416D41F040014165816D41F004012C
:101FE000816500F025BE0000806B00F01DBE000082
:101FF000B0B5016804468A688868C0074FF00000E1
:1020000031D012F0020218BFB0BD886800F00D0098
:1020100001281FD14FF6C0728868C7F6FF721040C2
:10202000023088600320086002F032FF216889686E
:10203000C90701D10020B0BD054602E08068C00795
:10204000F8D002F025FF401B03282068F6D38168F2
:10205000C907F3D0606D40F010006065A06D40F0DE
:102060000100A0650120B0BDF0B581B00446006854
:102070008168C9074CD14FF6C0778168C7F6FF77F2
:1020800007F17F0211420BD0606D40F010006065D7
:10209000A06D40F00100A065012001B0F0BD00BFBF
:1020A0008168394041F00101816002F0F1FE42F2A5
:1020B000000346F20836C4F20203216803F5807279
:1020C00003F54275C5F60206914208BF2E469942B5
:1020D00008BF2E4699420546306816D0914214D169
:1020E00010F01F0014D110E08868C00704D1886880
:1020F000384040F00100886002F0CAFE401B2168B1
:10210000032802D30868C007BED00868C007EBD018
:10211000002001B0F0BD0000FEE70000000000005C
:1021200040F65020C2F2004001F01AB90000000051
:1021300040F20F42D0F800C0C4F20202944511DC14
:102140006F22C4F20202944522DC3F22C4F2020252
:10215000944539DC1022C4F2020294455AD0282258
:1021600054E000BF40F26F42C4F2020294451BDC0F
:1021700040F23F42C4F2020294452DDC40F210428C
:10218000C4F20202944545D040F228423EE000BF2E
:102190009F22C4F20202944528DC7022C4F202029B
:1021A000944537D0882231E040F29F42C4F20202C7
:1021B000944523DC40F27042C4F20202944529D0D7
:1021C00040F2884222E000BF4022C4F2020294455D
:1021D00020D058221AE000BF40F24042C4F202026E
:1021E000944517D040F2584210E000BFA022C4F23C
:1021F000020294450ED0B82208E000BF40F2B84277
:10220000C4F20202944505D040F2A042C4F2020298
:10221000944517D10CF0F8024AF6AB23103ACAF6EF
:10222000AA23A2FB03310AA35F2AC1F302115B5C5C
:1022300040F2FF312CEA0101C36588BF043181659A
:10224000084670472CF0FF0181650846704700BFC3
:10225000000610160006101670B540F26F44D0F854
:1022600000C0C4F20204D0F858E0A4451ADC9F254F
:10227000C4F20205AC4533DC5725C4F20205AC4577
:102280005ADC1025C4F20205AC4500F098802825E0
:10229000C4F20205AC4500F092804025C4F202056C
:1022A0008AE000BF45F22F45C5F60205AC452DDC9E
:1022B00040F2B745C4F20205AC454BDC40F2704534
:1022C000C4F20205AC457AD040F28845C4F202055A
:1022D000AC4574D040F2A045C4F202056CE000BFEA
:1022E00040F22745C4F20205AC4543DCA025C4F208
:1022F0000205AC4563D0B825C4F20205AC455ED0FA
:1023000040F21045C4F2020556E000BF45F26B45AD
:10231000C5F60205AC453FDC45F23045C5F6020581
:10232000AC454CD045F24445C5F60205AC4546D017
:1023300045F258453EE000BF5825C4F20205AC45C1
:102340003DD07025C4F20205AC4538D08825C4F2D2
:10235000020531E040F2B845C4F20205AC452ED08A
:1023600045F20845C5F60205AC4528D045F21C45A6
:1023700020E000BF40F22845C4F20205AC451ED063
:1023800040F24045C4F20205AC4518D040F2584531
:10239000C4F2020510E000BF45F26C45C5F6020527
:1023A000AC450CD045F29445C5F60205AC4506D0C7
:1023B00045F28045C5F60205AC4540F0D580456E36
:1023C000C66E002E866E6E601CBFD0E91C566E6015
:1023D000A44515DC9F24C4F20204A4452CDC572438
:1023E000C4F20204A44551DC1024C4F20204A44542
:1023F0007AD02824C4F20204A44575D040246FE0AA
:1024000045F22F44C5F60204A44529DC40F2B74446
:10241000C4F20204A44545DC40F27044C4F2020454
:10242000A44561D040F28844C4F20204A4455BD0C4
:1024300040F2A04454E000BF40F22744C4F202043A
:10244000A4453FDCA024C4F20204A4454CD0B82427
:10245000C4F20204A44547D040F2104440E000BF5B
:1024600045F26B44C5F60204A44555DC45F2304400
:10247000C5F60204A44561D045F24444C5F6020401
:10248000A4455BD045F2584454E000BF5824C4F240
:102490000204A44528D07024C4F20204A44523D029
:1024A00088241DE040F2B844C4F20204A4451BD0C5
:1024B00045F20844C5F60204A4453FD045F21C4449
:1024C00038E000BF40F22844C4F20204A4450BD017
:1024D00040F24044C4F20204A44505D040F25844FE
:1024E000C4F20204A4453FD18468C06D00F01F000F
:1024F0003F2505FA00F0CEF80800DCF80000402C7B
:1025000020F48020CCF80000CCF8043023D0CCF8A4
:102510000810CCF80C2070BD45F26C44C5F60204DE
:10252000A4450BD045F28044C5F60204A44505D06D
:1025300045F29444C5F60204A44515D1C46D8068E3
:1025400004F01F040125402805FA04F4CEF80440E5
:10255000CCF8043004D1CCF80820CCF80C1070BDB5
:10256000CCF80810CCF80C2070BD00000000000072
:10257000704700000000000040F6CC20C2F200408E
:1025800002F02AB800000000B0B50B79D1F808C0FD
:102590000A6891F80CE042EA0C0291F80DC042EA98
:1025A000C3628B7B42EACE5291F80FE042EA8C5232
:1025B00091F810C042EA43524B7C42EA0E52BCF101
:1025C000000F08BF42F40022002B08BF42F4003283
:1025D00091F812C0CD7FD1E9053E1A430B7F42EA44
:1025E0000C4291F81DC042EA0E0291F81EE042EA48
:1025F000033242EACC22BEF1000F08BF42F48062EF
:1026000091F820304C6A42EA452200682243002BB0
:1026100091F8283008BF42F48072CD6A04682A43DA
:1026200048F28305C0F2040542EA031225402A431A
:10263000026091F83820CB6B91F83050120691F877
:10264000314042EA436291F8323042EA85424D6BB2
:1026500042EA4442002B42EA050248F20003446881
:10266000CCF2F80308BF42F48032234040F20F144A
:102670001A43426091F840204B6CC56843EA02223D
:1026800025EA04031A43C26091F854200B6D91F8B7
:102690004C504FF60D7443EA4202002D08BF42F041
:1026A00080028B6C056F42EA034205EA04031A4379
:1026B000026791F8552091F85630D0F8905043EACF
:1026C000420225F003031A43C0F89020D0F8002DF1
:1026D0008B6D22F072021A43C0F8002D91F8602031
:1026E000CB6D002A91F8612008BF43F0400391F8B8
:1026F000621043EA0212D0F8303D42EAC10123F0F1
:102700007B021143C0F8301DB0BD00000000000086
:1027100040F6CC20C2F2004001F05EBF0000000095
:10272000EFF3108072B64EF24800C9F20000FEF7D7
:1027300019FA00BFFEE7000070B582B000230193D4
:10274000044690F85000012802D1022002B070BD6A
:10275000012084F85000204615460E46FFF748FC3D
:10276000616D18B141F010014CE000BF41F202125E
:102770004FF6C0739143C3F6FE7302316165216861
:1027800006F4803605F080458A682E4413404FF2E7
:10279000FF72C2F2C352334403F100438B608B6873
:1027A000B3F1FF3F2ADC019B01330193019B93426C
:1027B0001DD88B68B3F1FF3F20DC019B01330193EF
:1027C000019B934213D88B68B3F1FF3F16DC019B4A
:1027D00001330193019B934209D88B68B3F1FF3F0A
:1027E0000CDC019B01330193019B9342D7D9606DAF
:1027F00040F0100020F00201012003E0616D012291
:1028000062F301016165002184F8501002B070BDCF
:10281000704700000000000070470000000000004A
:10282000704700000000000070470000000000003A
:102830007047000000000000F0B581B00022009257
:1028400090F85020012A03D10221084601B0F0BDC2
:102850000768012380F85030BC68640700F170817C
:102860000C68250394FAA4F2B2FA82F208BFA20E11
:10287000C4F384644D6802F01F02C5F3012603FA15
:1028800002F2FB691A43FA6107EB860205F01F03A7
:102890001F26156B9E4025EA060604FA03F3334310
:1028A0001363BA68BB6802F0040203F00803D2188D
:1028B00078D10A6807258E68C2F34063C2F30452D8
:1028C00007EB830395405C6906FA02F224EA0505EA
:1028D0002A435A6141F20002C5F60042126802F032
:1028E0007042B2F1805F33D14A69FB680E2606EA76
:1028F000530302FA03F30C69042C39D007F1600288
:102900000E6806F0F84652F82450334305F00045AF
:102910002B4342F824300B694E7E52F82350012E8F
:1029200025F0004508BF05F1004542F823500A7E16
:102930000B693E69013A03F01F03B2FA82F226F4F2
:10294000F0465209D2029A4032433A612AE000BF6F
:10295000FA684B69FE68D2064FEA560402D404F0C6
:102960000E0201E004F0080293400C69042CC5D16A
:102970003A6E0B6802F0F8429B069A4244D07A6E97
:1029800002F0F8429A4248D0BA6E02F0F8429A42F7
:102990004CD0FA6E02F0F8429A4203D1FA6E22F05D
:1029A0000042FA66BA68D2072CD14FF6FF7CCE6897
:1029B000C0F20F0C0B6806F0180203EA0C042CFAA4
:1029C00002F240F2000CD7F8C050C4F2FF7CA543DD
:1029D0001A40664542EA0502C7F8C02056D17CB3CA
:1029E00093FAA3F2B2FA82F2013202F01E03092B2B
:1029F00002F01F032DD8012203EB43069A4042EA5E
:102A0000065332E00021A0E03A6E22F000423A661E
:102A10007A6E02F0F8429A42B6D17A6E22F0004203
:102A20007A66BA6E02F0F8429A42B2D1BA6E22F0D9
:102A30000042BA66FA6E02F0F8429A42AED0B1E7AE
:102A4000012202EB936202F01E030A2B02F01F0325
:102A5000D1D3012203EB43069A400023CFF6206333
:102A600003EB06531A4342F00073C3F34062072599
:102A7000C3F304538E6807EB82029D40546906FA43
:102A800003F324EA05052B4353610B68B3F1FF3FC1
:102A900002DD002159E000BF42F2000146F2083C8D
:102AA000C4F20201C5F6020C01F5807201F542760E
:102AB0009742624608BF32468F4242F2001508BF75
:102AC000324647F48076C4F20205AE4214682FD134
:102AD0008A68D1F808111143C90731D1002104F0E7
:102AE000E07ECCF684318B4208BF14F4000133D071
:102AF0000021CCF252718B4208BF14F0807131D0AA
:102B00000021CCF6B8718B424FF000011DD114F4B6
:102B1000800204BFACF54272974216D1DCF8001077
:102B200021F0E07141EA0E0141F480015EE000BF56
:102B30004FF60051CFF6FF715CF80110C907CDD0F8
:102B4000416D41F0200141650121002280F85020B3
:102B5000084601B0F0BD00BFACF542718F4207D00E
:102B60000021F2E7ACF542718F4237D00021ECE74B
:102B7000DCF8001042F6635221F0E071C0F23E52E0
:102B800041EA0E0141F40001CCF8001040F2C80106
:102B9000C2F2004109688909A1FB021291090222CF
:102BA00002EB41010091009921B300990139009194
:102BB000009909B30099013900910099F1B1009988
:102BC000013900910099D9B100990139009100991A
:102BD00000294FF00001E8D1B7E700BFDCF8001092
:102BE00021F0E07141EA0E0141F08071CCF8001053
:102BF0000021AAE70021A8E70021A6E70021A4E719
:102C00000021A2E70000000040F6EC11C2F20041F2
:102C1000884218BF704740F2E010C2F200403030E6
:102C200009F0F6BC00000000704700000000000042
:102C300070470000000000002DE9F04F81B046F21F
:102C4000083942F20002C5F60209C4F20202044643
:102C5000006802F5807A02F5427B4946504508BF7C
:102C60005946904208BF594606684568B2070F6842
:102C70000FD515F002010CD0606DC00603D4606D55
:102C800040F4006060652046FFF7C2FD2068022125
:102C90000160710707F01F0802D515F0040104D187
:102CA00031074DD515F008014AD0214651F8542F6F
:102CB000D20603D40A6842F400720A60C26812F4B1
:102CC000406F37D142F200030246C4F2020350457E
:102CD00008BF1A46B8F1090F134608BF0346B8F1FA
:102CE000050F08BF0346B8F1000F08BF0346824234
:102CF00008BF1346DA6892041CD40268120719D57B
:102D0000826852070CD4426822F00C0242600868C4
:102D100020F4807008600868C00407D50AE000BF8E
:102D2000606D04F1580140F010006065086840F0E3
:102D3000010008602046FFF767FF20680C21016052
:102D4000B10602D515F0200104D171062FD515F07A
:102D500040012CD0214651F8542FD20603D40A68E2
:102D600042F400520A6042F200020346C4F2020238
:102D7000504508BF1346B8F1070F1A4608BF024670
:102D8000B8F1060F08BF0246B8F1000F08BF0246AF
:102D9000834208BF1A46C36C13F4C07FC368D2686D
:102DA00076D02046FFF738FD2068602101603106AB
:102DB0000CD515F0800109D0606D40F4803060655D
:102DC000204600F0D1F9206880210160F1050DD581
:102DD00015F480710AD0606D40F4003060652046C3
:102DE000FFF722FD20684FF480710160B1050DD519
:102DF00015F400710AD0606D40F4802060652046B3
:102E0000FFF716FD20684FF400710160F10624D52C
:102E100015F0100121D0216B89B1B8F1000F59D004
:102E200042F20001504508BFD946C4F2020188426F
:102E300008BFD946D9F8001011F4404F0BD0606D8F
:102E400040F480606065A06D40F00200A0652046FF
:102E5000FFF7EEFE206810210160710514D515F40E
:102E6000806111D0616D41F480416165A16D41F0D7
:102E70000801A1654FF480610160204601B0BDE802
:102E8000F04FFFF7CDBC00BF01B0BDE8F08F00BF31
:102E9000970106D503F4406302F40057DB197FF471
:102EA00080AF03685B067FF57CAF12F400127FF4FD
:102EB00078AF8268120711D4426822F06002426043
:102EC000086820F4805008600868C0053FF569AFC5
:102ED0000AE000BFC1688907B1D1BCE7606D04F1A9
:102EE000580140F010006065086840F0010008607B
:102EF00057E700000000000070B582B004460028CB
:102F00004FF00000019009D0606D58B120688168D1
:102F1000890012D48168C90019D54AE001263046DB
:102F200002B070BD204600F023F90020A06584F8AF
:102F30005000206881688900ECD54FF6C072816826
:102F4000C5F6FF72114081608168C90031D44FF627
:102F5000C0718268C5F6FF7101F18051114042F6DF
:102F6000635201F18051816040F2C801C0F23E52CB
:102F7000C2F2004109688909A1FB0212012101EB9B
:102F8000921101E0019901390191019989B10199E9
:102F900001390191019961B10199013901910199B9
:102FA00000291FBF019901390191019918BF00291A
:102FB000E8D18168C90009D4616D012641F0100192
:102FC0006165A16D41F00101A16500E00026816805
:102FD000626D02F0100201F004018918616D40F089
:102FE000918021F48171023161658168C90728D11E
:102FF00042F2001240F48071C4F20202914242F2A5
:103000000001C4F2020140F0A5808A68D1F80831BD
:103010001A43D20715D101F5807201F5427346F2C9
:10302000080C9042C5F6020C1A4618BF0CF5407207
:10303000884208BF1A466068116821F47C11084371
:10304000106001F01DFF41F2030100228842A068D8
:10305000A0F1100188BF0122B1FA81F1237F490953
:103060001140226B617D154616BF4D034A031C209B
:10307000012B45EA034141EA020141EA000106D180
:10308000206A0022CFF6FE7202EB40400143606AE4
:1030900020B100F47870A26A1043014320684CF21A
:1030A0000303CFF6F073C2681A401143C160816810
:1030B000826801F0040102F00802891836D1217DEE
:1030C00044F20305E26AC36842EA813123EA050259
:1030D0001143C16094F83810012901691AD14FF6E3
:1030E0001E020125CFF60042CFF6FF751140D4E94C
:1030F0000F231943636C05EB02421143A26C194381
:10310000114309E041F0100001266065304602B02D
:1031100070BD00BF21F0010101610169626B21F006
:103120007041114301612046FEF78AFE2068E16884
:103130000129026B22F00F0102D1A269013A114369
:1031400001630121606D61F301006065304602B0EA
:1031500070BD00BF46F20802C5F602021268D2072F
:103160003FF459AF6DE70000704700000000000019
:1031700070B5B2B0044602A844F2E0452830982168
:10318000C5F60205FDF72BFD206805F5D9518842EB
:1031900002D032B070BD00BF00264FF40020029074
:1031A00005200490C02005900C2006900220CDE957
:1031B000070080200396CDE9090602A80B9602F0CD
:1031C0003BFF08B1FFF7ACFA28684FF0006140F010
:1031D00080702860286800F080700190019828684D
:1031E00040F004002860286800F004000190019875
:1031F0004FF0006004F0ECFF40F650251020C2F2C2
:103200000045C4F2020028607320C5E901064FF4AE
:10321000806028614FF4805068614FF48040A8615D
:103220004FF48070EE60C5E9070628466E6200F034
:10323000AFFC08B1FFF774FA7F2000210022E5649B
:10324000AC6302F085FA7F2002F06EFA32B070BDF6
:103250002DE9F04142F2001746F20835C4F20207A8
:10326000036807F50276C5F602050446A7F58070E7
:10327000BB4208BF3546834208BF354628689B6875
:103280005B0704D40E4694F85010012902D10220A5
:10329000BDE8F08100F01F050120092D84F85000E1
:1032A00056D8A84040F22121084251D020469046ED
:1032B000FEF7DAFE20B1002184F85010BDE8F0815D
:1032C0002168606D40F60172B94220EA020000F503
:1032D0008070606500D11DB9606D20F4801060655C
:1032E000606D41F67173C0044FF0000044BFA06DE3
:1032F00020F0060041F6E977C9F20003A065C9F2A3
:103300000007E06C0022C0E90F3741F6D173E76A8D
:10331000C9F20003C3641C230B6084F850204346A9
:103320004A6842F010024A60CA6822F003023A4337
:10333000CA604031324600F05FFF21684FF6C0732B
:10334000C7F6FF738A681A4004328A60BDE8F081CC
:10335000002084F850000120BDE8F081000000004A
:103360002DE9F04782B00021019140F2C8010446E6
:10337000C2F2004148F2B512C1F64E32A56D09689D
:1033800040F26F490068C4F20209A1FB02184845E7
:103390002E68296816DC9F21C4F2020188422DDCC8
:1033A0005721C4F20201884252DC1021C4F202010A
:1033B00088427CD02821C4F20201884277D0402183
:1033C00070E000BF45F22F42C5F60202904229DCB0
:1033D00040F2B742C4F20202904245DC40F2704132
:1033E000C4F20201884262D040F28841C4F2020174
:1033F00088425CD040F2A04154E000BF40F2274137
:10340000C4F2020188423FDCA021C4F202018842DA
:103410004DD0B821C4F20201884248D040F2104198
:1034200040E000BF45F26B42C5F60202904275DCF7
:1034300045F23042C5F60202904200F0828045F229
:103440004442C5F6020290427BD045F2584273E0F6
:103450005821C4F20201884229D07021C4F202012D
:10346000884224D088211DE040F2B842C4F2020212
:1034700090421CD045F20842C5F60202904260D04C
:1034800045F21C4258E000BF40F22841C4F202015C
:1034900088420CD040F24041C4F20201884206D07A
:1034A00040F25841C4F20201884240F05A83E16D73
:1034B000082201F01F0140F20F4A8A40C4F2020ABA
:1034C000324200F0E68050454FF0040312DC6F27D3
:1034D000C4F20207B8426FDC3F27C4F20207B842C9
:1034E00000F3A4801027C4F20207B84200F0C580A0
:1034F0002827BDE048456BDC40F23F47C4F2020795
:10350000B84200F39B8040F21047C4F20207B84271
:1035100000F0B38040F22847AAE000BF45F26C42B9
:10352000C5F6020290420CD045F28042C5F6020276
:10353000904206D045F29442C5F60202904240F015
:1035400010830268E36D03F01F0304279F400F42BE
:1035500018BF12F0040621D102279F400F4218BF66
:1035600012F002064CD1D940090740F1FA8212F05C
:10357000080100F0F682016821F00E0101600120CF
:1035800000FA03F16960606584F835000020E16CA1
:1035900084F83400002940F0DC82E2E211046F601C
:1035A00026D4910603D4016821F004010160216C46
:1035B000002940F0CE82D4E29F27C4F20207B8422D
:1035C00046DC7027C4F20207B84256D088274FE085
:1035D00040F29F47C4F20207B84241DC40F2704714
:1035E000C4F20207B84248D040F2884740E000BF2A
:1035F000D00300F1B382A16C002940F0AA82B0E2AE
:1036000011046F6000F1B082910609D4016821F0C5
:103610000A010160012084F83500002084F834009C
:10362000E16B002940F095829BE200BF4027C4F285
:103630000207B84221D058271AE000BF40F24047A5
:10364000C4F20207B84218D040F2584710E000BF59
:10365000A027C4F20207B8420FD0B82708E000BF85
:1036600040F2A047C4F20207B84206D040F2B84781
:10367000C4F20207B84218BF082307681F4208D0E7
:10368000036823F004030360AA60626D42F0010244
:10369000626501228A4032426FD0504510DC6F23B0
:1036A000C4F2020398421DDC3F23C4F20203984295
:1036B00034DC1023C4F20203984256D028234FE092
:1036C00048451BDC40F23F43C4F2020398422DDC24
:1036D00040F21043C4F20203984246D040F228431D
:1036E0003EE000BF9F23C4F20203984228DC70230F
:1036F000C4F20203984238D0882331E040F29F435D
:10370000C4F20203984223DC40F27043C4F2020385
:1037100098422AD040F2884322E000BF4023C4F2FE
:103720000203984221D058231AE000BF40F24043E0
:10373000C4F20203984218D040F2584310E000BF90
:10374000A023C4F2020398420FD0B82308E000BFC0
:1037500040F2A043C4F20203984206D040F2B843BC
:10376000C4F20203984240F0058243691B0604D567
:10377000AA60626D42F00202626504228A4032420F
:103780006FD0504510DC6F23C4F2020398421DDC59
:103790003F23C4F20203984234DC1023C4F2020334
:1037A000984256D028234FE048451BDC40F23F4367
:1037B000C4F2020398422DDC40F21043C4F202032B
:1037C000984246D040F228433EE000BF9F23C4F217
:1037D0000203984228DC7023C4F20203984238D0D6
:1037E000882331E040F29F43C4F20203984223DC75
:1037F00040F27043C4F2020398422AD040F2884358
:1038000022E000BF4023C4F20203984221D0582393
:103810001AE000BF40F24043C4F20203984218D0BD
:1038200040F2584310E000BFA023C4F202039842C4
:103830000FD0B82308E000BF40F2A043C4F2020357
:10384000984206D040F2B843C4F20203984240F0D6
:10385000998103689B0704D5AA60626D42F0040257
:103860006265102202FA01F1314200F08180504578
:103870004FF0080210DC6F23C4F2020398421DDCF3
:103880003F23C4F20203984234DC1023C4F2020343
:10389000984256D028234FE048451BDC40F23F4376
:1038A000C4F2020398422DDC40F21043C4F202033A
:1038B000984246D040F228433EE000BF9F23C4F226
:1038C0000203984228DC7023C4F20203984238D0E5
:1038D000882331E040F29F43C4F20203984223DC84
:1038E00040F27043C4F2020398422AD040F2884367
:1038F00022E000BF4023C4F20203984221D05823A3
:103900001AE000BF40F24043C4F20203984218D0CC
:1039100040F2584310E000BFA023C4F202039842D3
:103920000FD0B82308E000BF40F2A043C4F2020366
:10393000984206D040F2B843C4F20203984218BF3E
:1039400004220368134213D0A96001684903016887
:1039500008D4C90508D4016821F008010160216C70
:1039600021B905E008034FD4216C09B120468847EE
:10397000E06D00F01F01202000FA01F2324200F059
:10398000AB8020681023504510DC6F27C4F202077B
:10399000B8421DDC3F27C4F20207B84238DC1027CA
:1039A000C4F20207B8425AD0282753E048451BDC2E
:1039B00040F23F47C4F20207B84231DC40F2104700
:1039C000C4F20207B8424AD040F2284742E000BFA2
:1039D0009F27C4F20207B8422CDC7027C4F202070A
:1039E000B8423CD0882735E040F29F47C4F2020736
:1039F000B84227DC40F27047C4F20207B8422ED02A
:103A000040F2884726E000BFA16C0029AED1AFE7A5
:103A10004027C4F20207B84221D058271AE000BF5D
:103A200040F24047C4F20207B84218D040F258476B
:103A300010E000BFA027C4F20207B8420FD0B82799
:103A400008E000BF40F2A047C4F20207B84206D027
:103A500040F2B847C4F20207B84218BF0223076811
:103A60001F4239D0AA6094F83520042A02681BD17D
:103A700022F016020260426922F080024261226C4A
:103A80000AB9A26C1AB1026822F0080202603F2053
:103A90008840A860012084F83500216D00200029AD
:103AA00084F8340055D15CE0510301680CD4C90599
:103AB0000ED4016821F010010160012084F8350066
:103AC000002084F8340003E0080301D4616C00E0B6
:103AD000E16B09B120468847606D002841D0606DD8
:103AE000C00734D0042084F8350020684FEA9821BC
:103AF000026822F001020260019A013201928A42B8
:103B00001AD80268D20717D0019A013201928A426C
:103B100012D80268D2070FD0019A013201928A426C
:103B20000AD80268D20707D0019A013201928A426C
:103B300002D80268D207DFD10068C0074FF0030047
:103B400008BF012084F83500002084F83400E16CBF
:103B500039B1204602B0BDE8F0470847216C002982
:103B6000F7D102B0BDE8F087D0030DD4616C002915
:103B7000EFD1F6E7026804228A4032427FF401AEB8
:103B80006FE600BF02686CE6E16B0029E1D1E8E76F
:103B90002DE9F041044601F07BF9FCB140F26F4899
:103BA00005462068C4F2020840451BDC9F21C4F290
:103BB0000201884232DC5721C4F20201884259DCFA
:103BC0001021C4F20201884200F083802821C4F24F
:103BD0000201884200F07D80402175E00120BDE8AF
:103BE000F08100BF45F22F41C5F60201884229DC71
:103BF00040F2B741C4F20201884247DC40F2704112
:103C0000C4F20201884264D040F28841C4F2020149
:103C100088425ED040F2A04156E000BF40F227410A
:103C2000C4F20201884241DCA021C4F202018842B0
:103C30004FD0B821C4F2020188424AD040F210416C
:103C400042E000BF45F26B41C5F60201884200F335
:103C5000C18045F23041C5F60201884200F0CD80B6
:103C600045F24441C5F60201884200F0C68045F2A3
:103C70005841BDE05821C4F20201884229D0702188
:103C8000C4F20201884224D088211DE040F2B841EC
:103C9000C4F2020188421CD045F20841C5F6020177
:103CA000884200F0AA8045F21C41A1E040F2284180
:103CB000C4F2020188420CD040F24041C4F2020139
:103CC000884206D040F25841C4F20201884240F0D6
:103CD0002981022184F83510002184F8341001680C
:103CE00021F00101016000BF20680168C9070DD003
:103CF00001F0CEF8401B0628F6D320206065032093
:103D000084F835000120BDE8F08100BF48F23F0291
:103D100004F108060168CFF6106211406CCE114321
:103D2000A2691943E3692943256A0E43616A334353
:103D3000042943EA050343EA020303D1D4E90B65EE
:103D40002E43334341F20006C5F600463668B6F10D
:103D5000005F1DD36668A6F12905292D18D8DFE874
:103D600005F0151515151515171717171717171728
:103D700017171717171717171515151517171717DB
:103D800015151717171717171515151543F4801361
:103D900003600429436923F0070341EA030140F06B
:103DA000DD80D4E90A53002B41EA050100F0D680FA
:103DB000B2F5005F00F0B880002A40F0C180022D0B
:103DC00000F0C180012D00F0B580002D00F0BB8017
:103DD000C4E000BF45F26C41C5F6020188420CD038
:103DE00045F28041C5F60201884206D045F2944171
:103DF000C5F60201884240F0958004F1080E0221C8
:103E000084F83510002184F834100168A3699EE815
:103E10000450A2F18007E669B7FA87F765697F0960
:103E2000402A4FEA873743EA06026FF3101142EA4D
:103E3000050208BF102741EADC0142EA0E02236AAC
:103E4000394341EAD20141EA131140F80819C0B2DE
:103E5000CD2148433C2101EA9020E0652046FEF751
:103E600067F9E16D012201F01F0102FA01F14160E1
:103E70002068404500F381809F21C4F202018842FE
:103E800014DC5721C4F20201884227DC1021C4F25D
:103E90000201884200F0C7802821C4F20201884252
:103EA00000F0C1804021C4F20201B9E040F2274194
:103EB000C4F20201884221DCA021C4F2020188423E
:103EC00000F0B180B821C4F20201884200F0AB805A
:103ED00040F21041C4F20201A2E000BF5821C4F236
:103EE0000201884200F09F807021C4F202018842E2
:103EF00000F099808821C4F2020191E040F228414B
:103F0000C4F20201884200F08E8040F24041C4F2C7
:103F10000201884200F0878040F25841C4F2020159
:103F20007EE000BF4020E9E6032D17D8DFE805F06A
:103F30000E0B0E02A3F1C072B2FA82F2520904E033
:103F4000032D03D30AD1C3F300623AB14020606568
:103F5000012084F83500BDE8F08100BF41612046B2
:103F6000FEF7E6F8E16D3F2201F01F0102FA01F1D0
:103F70008160206840457FF77FAF45F22F41C5F64D
:103F80000201884216DC40F2B741C4F202018842C5
:103F900026DC40F27041C4F20201884243D040F274
:103FA0008841C4F2020188423DD040F2A041C4F2EF
:103FB000020135E045F26B41C5F6020188421FDC83
:103FC00045F23041C5F6020188422CD045F2444109
:103FD000C5F60201884226D045F258411EE000BFD6
:103FE00040F2B841C4F2020188421CD045F20841B7
:103FF000C5F60201884216D045F21C410EE000BF12
:1040000045F26C41C5F6020188420CD045F294415C
:10401000C5F60201884206D045F28041C5F602018C
:10402000884240F0E18045F2574C45F6FC01C5F668
:10403000020CC5F6020160450EDC45F22F42C5F6C2
:104040000202904218DC45F20842C5F60202904294
:1040500028D045F21C4221E045F27F42C5F602021B
:10406000904213DC45F25842C5F60202904219D044
:1040700045F26C4212E000BF45F23042C5F6020242
:1040800090420FD045F2444208E000BF45F294420E
:10409000C5F60202904205D045F28042C5F6020202
:1040A000904247D100F0FC024CF6CD43083ACCF6E2
:1040B000CC43A2FB0323A1F1FC05A1F17C061B0963
:1040C00005EB830503F01F02A3682566802B4FF0E4
:1040D000010303FA02F26666A26605D10020606061
:1040E000286072601EE000BF6768FBB2013F072FC7
:1040F0002B60726016D85E1E082E19D2604501F141
:10410000440237DC45F22F47C5F60207B84241DCCE
:1041100045F20847C5F60207B84259D045F21C4798
:104120004AE000BF00206067C4E91B005CE000BFFC
:10413000E06E54E000F0F8024AF6AB23103ACAF6FB
:10414000AA23A2FB032740F20F43C4F2020308256F
:104150003A09984203F1AA06134688BF05EB1713E4
:1041600040F60005B042C4F2020505F1800628BF02
:104170001346A5E745F27F47C5F60207B84213DCB0
:1041800045F25847C5F60207B84221D045F26C47C0
:1041900012E000BF45F23047C5F60207B84217D01B
:1041A00045F2444708E000BF45F28047C5F60207E4
:1041B000B8420DD045F29447C5F60207B84207D081
:1041C00040F60000C4F2020000F1FC0100F5A0720C
:1041D00001EB83000121E066B140226761670021A5
:1041E0000160D4E91C01416000206065012184F870
:1041F0003510BDE8F0810000B0B500283CD0054680
:1042000090F83400012801D10220B0BD012085F8CA
:10421000340095F83500012828D1022085F83500B2
:10422000002068652868046824F0010404602846BA
:10423000FEF712F840F20F422868C4F2020240F280
:104240006F419042C4F2020118DC6F23C4F20203F2
:10425000984225DC3F23C4F2020398423CDC102341
:10426000C4F2020398425ED0282357E04FF4006066
:104270006865002085F834000120B0BD88421BDC51
:1042800040F23F43C4F2020398422DDC40F2104357
:10429000C4F20203984246D040F228433EE000BFF9
:1042A0009F23C4F20203984228DC7023C4F2020365
:1042B000984238D0882331E040F29F43C4F2020391
:1042C000984223DC40F27043C4F2020398422AD0A1
:1042D00040F2884322E000BF4023C4F20203984228
:1042E00021D058231AE000BF40F24043C4F2020339
:1042F000984218D040F2584310E000BFA023C4F207
:10430000020398420FD0B82308E000BF40F2B84340
:10431000C4F20203984206D040F2A043C4F2020362
:10432000984240F02F8103680B2464F34403036038
:104330002B6C1BB10823046823430360884219DCFB
:104340009F23C4F20203984232DC5723C4F20203D3
:10435000984259DC1023C4F20203984200F0968080
:104360002823C4F20203984200F090804023C4F254
:10437000020389E045F22F43C5F6020398422DDC83
:1043800040F2B743C4F2020398424BDC40F2704360
:10439000C4F20203984279D040F28843C4F2020387
:1043A000984273D040F2A043C4F202036CE000BF15
:1043B00040F22743C4F20203984243DCA023C4F234
:1043C0000203984262D0B823C4F2020398425DD03F
:1043D00040F21043C4F2020356E000BF45F26B43C3
:1043E000C5F6020398423FDC45F23043C5F60203AE
:1043F00098424BD045F24443C5F60203984245D05B
:1044000045F258433EE000BF5823C4F202039842ED
:104410003CD07023C4F20203984237D08823C4F200
:10442000020331E040F2B843C4F2020398422DD0B7
:1044300045F20843C5F60203984227D045F21C43D3
:1044400020E000BF40F22843C4F2020398421DD08E
:1044500040F24043C4F20203984217D040F258435E
:10446000C4F2020310E000BF45F26C43C5F602033C
:1044700098420BD045F29443C5F60203984205D00A
:1044800045F28043C5F60203984274D12B6E1C6836
:10449000E40303D51C6844F480741C60EB6E1BB10C
:1044A0001D6845F480751D60904211DC6F21C4F2D7
:1044B000020188421EDC3F21C4F20201884235DC41
:1044C0001021C4F20201884255D0282150E000BFDB
:1044D00088421BDC40F23F41C4F2020188422DDCDD
:1044E00040F21041C4F20201884244D040F2284117
:1044F0003EE000BF9F21C4F20201884228DC702107
:10450000C4F20201884236D0882131E040F29F4156
:10451000C4F20201884223DC40F27041C4F202017D
:10452000884228D040F2884122E000BF4021C4F2F6
:10453000020188421FD058211AE000BF40F24041DA
:10454000C4F20201884216D040F2584110E000BF88
:10455000A021C4F2020188420DD0B82108E000BFBA
:1045600040F2B841C4F20201884204D040F2A041B6
:10457000C4F202018842016841F00101016000209B
:10458000B0BD00BF0368052464F3430303602B6CD4
:10459000002B3FF4D3AE0423CDE600000000000062
:1045A000B0B5044600F074FC40F2C0010546C2F20A
:1045B0000041621C097818BF0C4400BF00F068FC81
:1045C000401BA042FAD3B0BD7047000000000000BD
:1045D0007047000000000000B0B50446006841F2DA
:1045E00034154119CA6A520644BF0A685FEA42623A
:1045F0005AD44119CA6AD2071CBF0A685FEAC2725C
:104600005AD141F234110144CA6A520444BF0A68C3
:104610005FEA424258D4D0F8B41011F4C04F13D01E
:10462000D4F8881041F01001C4F88810D0F8B80010
:10463000C4F89000E020C4F884002046FFF7C8FFCB
:104640000020C4F890002068D0F8B010C9060CD53E
:10465000D0F8C00000F06000C4F89400204600F0DC
:104660008FFA0020C4F894002068D0F8B0108906B2
:104670000BD5D0F8C00000F00F00C4F89800204619
:10468000FFF7A2FF0020C4F89800A820C5F600009C
:104690000168490258BFB0BD4FF480010160204657
:1046A000BDE8B04000F078BA48F24000C862204649
:1046B00000F06AFA20689CE748F20100C8622046D0
:1046C00000F066FA20689CE7D4F8880040F0080003
:1046D000C4F88800C86AC004C86A07D400F4CD4092
:1046E000C4F88C004FF4CD40C8620BE041F20212D6
:1046F0001040C4F88C00086820F440400860E020B6
:10470000C4F884002046FFF763FF2068D0F8B41097
:1047100011F4C04F7FF484AF96E700000000000062
:104720002DE9F0419AB0D8B30446D0F8840028B9F6
:104730002320C4F88400204600F07EF944F2F440BF
:10474000C5F60200016841F002010160006800F056
:10475000020001900198207A002818BF0120C005AE
:1047600003F042FD40F204404FF48056C5F60000CD
:1047700000682068815941F00101815100F088FBF7
:10478000054600BF20688159C9070FD000F080FBA3
:10479000401BB0F5FA7FF5D90125E020042640E161
:1047A000012528461AB0BDE8F08100BFD0F800020C
:1047B00020F4706502F040FB4DF200314EF2BF1262
:1047C000CFF6CE61C0F2E4020144914202D845F432
:1047D000007529E04FF2401147F63F02CFF6E9514C
:1047E000C0F27D120144914202D845F440751BE0AD
:1047F00047F6001145F60022CFF66C41C0F2622266
:104800000144914210D341F60071CFF60A210844C9
:104810004FF27F01C0F2FA21884203D845F4807537
:1048200002E000BF45F480652068C0F8005202F045
:1048300003FB4DF683614FF0FF32C4F21B310025BC
:10484000A0FB0101206801264FF0020802EB914114
:10485000C0F8DC1040F20110ADF812004FF4005027
:1048600007904FF4C3600E90202018904FF04050F6
:1048700001904FF48040069001A920460A958DF8DA
:1048800023508DF808608DF836608DF82C508DF827
:1048900064608DF83C501095ADF865508DF810505F
:1048A0000395ADF81560ADF82050159513950C954E
:1048B0008DF844508DF85A508DF822608DF82460A0
:1048C0008DF81150CDF85C80ADF85850ADF83450EB
:1048D0008DF8146012958DF85060FDF755FE206834
:1048E0004FF4805200F5805147F602078358BB43CE
:1048F00083504A684DF201039A4341F201031A437F
:104900004A604CF20003D1F80021CFF6FE731A4042
:104910004EF6EF7302F50672C1F80021D1F80421BA
:10492000CFF6C0731A404FF6FF7302F50012C1F8BC
:104930000421D1F80821C7F6C0731A4002F500120D
:10494000C1F80821D1F8002168F39442C1F8002190
:104950006269930702D0E020012562E0D1F80831B6
:1049600047F6FE77BB43002643EA4202C1F808211E
:10497000E3681A461D605D609D60DD60A36142F8DA
:10498000185FDD611D625D62E2611A4642F8305FC8
:104990005D639D63DD6322621A4642F8485FDD6411
:1049A0001D655D65C4E909250322C1F82C21C1F804
:1049B0001431C1F8203123691F461D605D609D6080
:1049C000DD60C3E90455A36447F8185FDD611D622B
:1049D0005D62C3E90A55E7641F4647F8305F5D63CF
:1049E0009D63DD63C3E9105527651F4647F8485F9F
:1049F000DD641D655D65C3E91655C4E91755C4E955
:104A00001A55C4E91575C1F83021C1F81C31C1F837
:104A1000287161688A88C0F800230968C0F8041307
:104A20001020C4F88860C4F8840028461AB0BDE895
:104A3000F0810000000000002DE9F04385B048F24D
:104A400000010068C4F20201884203D005B0BDE84D
:104A5000F08300BF44F2E0400024C5F60200C5F632
:104A600002046D464FF0020850F8081C4FF0000990
:104A700041F4004140F8081C50F8081C032601F4DA
:104A800000410091009950F8081C41F4803140F831
:104A9000081C50F8081C0B2701F480310091009984
:104AA00050F8081C41F4003140F8081C50F8081C6C
:104AB00001F4003100910099016841F0400101606A
:104AC000016801F0400100910099016841F0040182
:104AD0000160016801F0040100910099016841F052
:104AE00001010160016801F0010100910099016874
:104AF00041F0020101600068294600F002000090C8
:104B000000984FF44050009004F5C050CDF8048058
:104B1000CDF808900396049700F0CAF83220294691
:104B20008DE8010304F50060CDE9036700F0C0F8EB
:104B3000862029468DE801032046CDE9036700F071
:104B4000B7F84FF4006029468DE8010304F5806052
:104B5000CDE9036700F0ACF83D200021002200F011
:104B6000F7FD3D2000F0E0FD3E200021002200F096
:104B7000EFFD3E2000F0D8FD05B0BDE8F083000059
:104B800070470000000000007047000000000000B7
:104B900070470000000000007047000000000000A7
:104BA0002DE9F04F81B000297CD000F1264242F27D
:104BB000004302F1FF72C5F602030A2698424FEA4B
:104BC000B22740F2040B08BF0926092FC5F6000BD7
:104BD00038BF4FEAB22600220027009600264FF089
:104BE0000F0C23E06FF00304032304EA5604056866
:104BF000934004441D43056007F01C050CFA05FEB4
:104C0000256A25EA0E052562C5689D43C56045688D
:104C100025EA0A054560856825EA030383600136B5
:104C2000043731FA06F302F102023BD0012303FA02
:104C300006FA1AEA0108F2D040F2084326F003050A
:104C4000C5F6000307F00C0E0CFA0EF9ED58009BA8
:104C500005EA090503FA0EF39D42C3D1DBF87C3067
:104C60004FF0B04423EA0803CBF87C30DBF8803007
:104C700023EA0803CBF88030DBF8003023EA08038E
:104C8000CBF800302568B30825EA0805256040F216
:104C90000844C5F6000454F8235025EA090544F8F1
:104CA00023509FE701B0BDE8F08F00000000000036
:104CB0002DE9F04F82B00D68002D00F0CB8000F19F
:104CC000264242F2004302F1FF72C5F602030A26B1
:104CD00098424FEAB22444F2F44E08BF0926092C48
:104CE00040F2040C38BF4FEAB226C5F6020EC5F6F4
:104CF000000C009600220027002609E001360D680E
:104D000035FA06F307F1040702F1020200F0A2806F
:104D1000012303FA06F415EA0408EFD0D1F804A041
:104D200003230AF0030B9340ABF101056FEA03097B
:104D3000012D0FD88368CD6803EA090395402B4302
:104D40008360CAF300154368A34305FA06F42343BE
:104D5000436005E0BBF1030F02D14FF0030B21E0EC
:104D6000C3688C6803EA09039440BBF1020F43EA6D
:104D70000403C36016D16FF0030307F01C0503EAB8
:104D800056030F24034404FA05FBD3F820A00C6952
:104D90002AEA0B0AAC4044EA0A041C62D1F804A0D7
:104DA0000AF0030B03680BFA02F403EA09031AF48E
:104DB000403F43EA04030360A0D0DEF8003040F235
:104DC000084A43F00203CEF80030DEF80030C5F6A2
:104DD000000A03F00203019326F00303019C07F08D
:104DE0000C040F2553F80A90A54029EA0509009DF7
:104DF00005FA04F444EA090443F80A404FF0B04AC3
:104E0000DAF800904C6849EA0805E30258BF29EA3D
:104E10000805A302CAF80050DCF8009049EA08052A
:104E200058BF29EA0805A303CCF80050DCF88090AD
:104E300049EA080558BF29EA0805E403CCF8805080
:104E4000DCF87C3043EA080558BF23EA0805CCF8B3
:104E50007C5053E702B0BDE8F08F00000000000076
:104E60000069084018BF01207047000000000000E2
:104E7000002A08BF0904816170470000000000009B
:104E800041F20000C5F600400068000C70470000C9
:104E900041F27020C2F2004000687047000000003C
:104EA00090F84120202A03D190F84020012A01D116
:104EB00002207047242280F841200268136823F002
:104EC00001031360136823F48053136013681943BC
:104ED0001160116841F001011160202180F841103A
:104EE000002180F8401008467047000000000000D4
:104EF00090F84120202A03D190F84020012A01D1C6
:104F000002207047242280F841200268136823F0B1
:104F100001031360136823F4706343EA01211160F5
:104F2000116841F001011160202180F84110002139
:104F300080F8401008467047B0B110B504462420F0
:104F400084F841002068016821F0010101602046D9
:104F500000F08AFA0020606484F84100206384F83D
:104F6000420084F8400010BD01207047000000009E
:104F700010B310B5044690F8410028B9002084F819
:104F80004000204600F094FA242084F8410094E880
:104F90000910E2680168012A21F00101016023F093
:104FA00070610161816821F40041816006D14CF497
:104FB000004181600AE000BF01207047022A4CF4E2
:104FC0000441816002D14FF400614160416804F105
:104FD000100C41F0007141F400414160C16821F4BE
:104FE0000041C1609CE80E10114341EA0321C160F9
:104FF000216A41EA0C010160016841F00101016090
:1050000000206064202184F84110206384F842006D
:1050100010BD0000000000002DE9F04F81B00446F3
:1050200090F8410020280DD1DDF82880B8F1000F5C
:105030000CD0DDF82CA0BAF1000F07D094F8400096
:1050400001280BD1022001B0BDE8F08F4FF40070B1
:105050006064012001B0BDE8F08F00BF1D46174617
:105060008946012084F84000FFF712FF21680646B8
:105070008A69120447D4222084F84100402084F831
:105080004200E8B24FF0000B6FF39F29C4F844B020
:10509000C4F8248049EA0040A4F82AA049F6000A8E
:1050A000C4F834B0CFF6004A4A68DDF8308002EA2E
:1050B0000A021044324600F500504860204641463E
:1050C00003F0EEFDA8B9012D206808D0390A8162ED
:1050D00020464146324603F0E3FD50B92068F9B25C
:1050E00081624021002220464346009603F020FDC5
:1050F00010B384F840B0012001B0BDE8F08F00BFCC
:1051000088690004B7D5FFF7C3FE801B21681A2801
:10511000F6D388690004F3D5606C40F02000606429
:10512000202084F84100002084F8420084F84000E8
:10513000012001B0BDE8F08F608D40F2000BC0F29D
:10514000FF1BB0F5807F09D320680BF5105350F892
:10515000041F01EA0A02FF210BE000BF618D2068F5
:10516000CAB250F8043F03EA0A0343EA02420BF5CD
:1051700092331A43FF270AF5806542EA090202606A
:10518000218510E0618D20682185C9B250F8042F77
:105190002A4042EA01414FF00072114341EA0901FD
:1051A0000160608D80B304210022204643460096B2
:1051B00003F0BEFC00287FF44CAF2068616A406AAF
:1051C0000870218D606A01306062481E2085618D03
:1051D00001396185618D0029E3D00004E1D180218E
:1051E000002220464346009603F0A2FC00287FF4EC
:1051F00030AF608DB0F5807FC4D3206827855A46D4
:1052000050F8041F2940C8E720464146324603F0C3
:1052100007FD00287FF41DAF206820214EF6000313
:10522000C161CFF6006342681A40426084F84110C1
:10523000002084F8420084F8400001B0BDE8F08FFF
:105240002DE9F04F81B0044690F8410020280DD19F
:10525000DDF82880B8F1000F0CD0DDF82CA0BAF1F1
:10526000000F07D094F8400001280BD1022001B0B4
:10527000BDE8F08F4FF400706064012001B0BDE81C
:10528000F08F00BF1D4617468946012084F8400074
:10529000FFF7FEFD216806468A69120449D42120E1
:1052A00084F84100402084F84200E8B24FF0000B3F
:1052B0006FF39F29C4F844B0C4F8248049EA004041
:1052C000A4F82AA049F6004ACFF6004AC4F834B040
:1052D0004A68AAF580631A40DDF8308010443246EF
:1052E00040F0807040F4005048602046414603F092
:1052F000D7FCA8B9012D206808D0390A8162204660
:105300004146324603F0CCFC50B92068F9B28162C4
:105310008021002220464346009603F009FC08B392
:1053200084F840B0012001B0BDE8F08F8869000426
:10533000B5D5FFF7ADFD801B21681A28F6D3886923
:105340000004F3D5606C40F020006064202084F8F5
:105350004100002084F8420084F84000012001B0A0
:10536000BDE8F08F608D0025C0F2FF15B0F5807F9D
:1053700008D320682B4650F8041F01EA0A02FF21D7
:105380000BE000BF618D2068CAB250F8043F03EA09
:105390000A0343EA02424FF000731A43FF2742EA2E
:1053A00009020260218511E0618D20682185C9B262
:1053B00050F8042F02EA0A0242EA01414FF000725B
:1053C000114341EA09010160608D78B320464146EE
:1053D000324603F065FC00287FF44FAF606A216815
:1053E00010F8012B8A626062608D01386085208D23
:1053F00001382085618D0029E6D00004E4D18021A8
:10540000002220464346009603F092FB00287FF4DA
:1054100034AF608DB0F5807FC6D3206827852A46DB
:1054200050F8041F01EA0A01CAE700BF20464146BE
:10543000324603F0F5FB00287FF41FAF20682021DF
:105440004EF60003C161CFF6006342681A40426025
:1054500084F84110002084F8420084F8400001B034
:10546000BDE8F08F0000000010B545F20041006873
:10547000C4F20001884218BF10BD44F2E84040F277
:105480000044C5F60200C5F60204016821F40011CB
:1054900001604FF400712046FFF782FB4FF48071EA
:1054A0002046BDE81040FFF77BBB00000000000075
:1054B000B0B5B8B002A9044601F10800B821FBF765
:1054C0008EFB45F200412068C4F20001884201D001
:1054D00038B0B0BD0820029002A80024039400F068
:1054E000ABFD08B1FDF71CF944F2E04533A9C5F660
:1054F0000205286840F002002860286800F00200D9
:10550000339033984FF4407033901220CDE9340437
:105510000420379040F200403694C5F60200FFF7B1
:10552000C7FBA86840F40010A860A86800F4001049
:105530000190019838B0B0BD40F2C00041F2702136
:10554000C2F20040C2F2004100780A6810440860CC
:10555000704700000000000080B5032000F028F92B
:1055600001F0F2FC44F218414EF21003C5F60201BC
:10557000C9F200030A68096801F00F01C2F30322AF
:10558000595C9A5C01F01F0102F01F02D04040F20A
:10559000CC02C2F2004220FA01F1116040F2C801CF
:1055A000C2F2004108600F2000F00AF800281CBF7A
:1055B000012080BD00F0A8F8002080BD00000000A0
:1055C000B0B58AB00F2842D80446372000222146C1
:1055D000002500F0BDF8372000F0A6F840F2C40026
:1055E000C2F20040046044F2E840C5F602000168DF
:1055F00041F020010160006801A900F02000029044
:10560000029802A801F0ECFB079C002C18BF0124B3
:1056100001F03AFC4DF68361A040C4F21B3141F227
:105620000042A0FB010140F69840C2F200404FF05A
:10563000FF33C4F20002026003EB9141C0E901159F
:1056400040F2E731C0E9031502F04EFE10B101202F
:105650000AB0B0BD40F69840C2F2004002F0E8FE49
:105660000AB0B0BD00000000B0B502784EF69C5CF8
:10567000CEF2000C43784CF8043CFAB14368CCF805
:105680000030037BC17A90F80AE0457B447A42EA15
:105690000372837B42EA0161C27B41EACE41007A18
:1056A00041EA854141EA434141EA024141EA04219C
:1056B00041EA4000CCF80400B0BD00BF0020CCF8A7
:1056C0000000CCF80400B0BD4EF62450CEF200002D
:1056D000BFF35F8F016821F4803101600021016711
:1056E00070470000000000004EF6245140F0010019
:1056F000CEF200010867086840F480300860BFF30C
:105700004F8FBFF36F8F704781B044F2F440C5F6FE
:105710000200016841F002010160006800F002002F
:105720000090009801B07047002848BF704781B2D0
:1057300000F01F000122490902FA00F04EF20012A7
:10574000CEF2000242F82100704700000000000085
:1057500070B54EF60C5C4FF0FF36CEF2000C00F147
:10576000604505F56445DCF80030C3F3022E8EF089
:105770000703042B28BF0423BEF1030406FA03F336
:1057800021EA030100F00F0338BF0024043B002886
:10579000634406FA04F048BF03F10C05A14022EA75
:1057A000000008430001287070BD000000000000E8
:1057B0004EF60C514FF6FF03CEF200010A681A4074
:1057C00060F30A2242F0806040F0FD70086070478C
:1057D000B0B544F60C05C5F60205296849072968E5
:1057E00006D401F00701081A18BF0120B0BD00BFA0
:1057F00021F0070108432860FFF74AFB044600BF79
:1058000055F8080C800407D4FFF742FB001BB0F5E5
:105810007A7FF5D90120B0BD0020B0BD00000000A6
:1058200080B501F009FB44F220414EF21002C5F6AA
:105830000201C9F200020968C1F30211515C01F0D2
:105840001F01C84080BD000080B544F2304EC5F64F
:10585000020E5EF8083C5EF8081CC1F3051C5EF8F9
:10586000041CBCF1000FDEF8042019D001F0010186
:1058700003F003034942022B01EAD2016FF35F31C7
:1058800000EE101AB8EE400A10D0012B12D01BB94E
:105890005EF8301C890611D49FED361A1CE000BF5B
:1058A00000218160C0E9001180BD00BF9FED301A6A
:1058B00012E000BF9FED2D1A0EE000BF5EF8301C15
:1058C00049F20002C0F2D032C1F3C10122FA01F163
:1058D00001EE101AB8EE411ADEF800109FED263ADC
:1058E0006FF35F2102EE101ADEF80010C1F34621BB
:1058F000B8EE422A00EE032A00EE10CAB7EE003AD4
:10590000B8EE400A81EE000A32EE031A02EE101AD7
:10591000B8EE422A20EE010A32EE031A80EE011A96
:10592000BCEEC11A80ED001ADEF80010C1F306418A
:1059300001EE101AB8EE411A31EE031A80EE011A88
:10594000BCEEC11A80ED011ADEF80010C1F3066149
:1059500001EE101AB8EE411A31EE031A80EE010A78
:10596000BCEEC00A10EE101A816080BD0024744A9B
:1059700020BCBE4B0024744C000000390000000025
:1059800080B544F2384EC5F6020E5EF8103C5EF863
:10599000101C5EF80C2CC1F3053CDEF80410BCF1C1
:1059A000000F15D0C908D20601EAE2716FF35F312A
:1059B00000EE101A03F003010229B8EE400A0DD0E0
:1059C00081B95EF8381C890610D49FED361A1BE0A9
:1059D00000218160C0E9001180BD00BF9FED301A39
:1059E00012E000BF9FED2D1A0EE000BF5EF8381CDC
:1059F00049F20002C0F2D032C1F3C10122FA01F132
:105A000001EE101AB8EE411ADEF800109FED263AAA
:105A10006FF35F2102EE101ADEF80010C1F3462189
:105A2000B8EE422A00EE032A00EE10CAB7EE003AA2
:105A3000B8EE400A81EE000A32EE031A02EE101AA6
:105A4000B8EE422A20EE010A32EE031A80EE011A65
:105A5000BCEEC11A80ED001ADEF80010C1F3064159
:105A600001EE101AB8EE411A31EE031A80EE011A57
:105A7000BCEEC11A80ED011ADEF80010C1F3066118
:105A800001EE101AB8EE411A31EE031A80EE010A47
:105A9000BCEEC00A10EE101A816080BD0024744A6A
:105AA00020BCBE4B0024744C0000003900000000F4
:105AB00080B544F2404EC5F6020E5EF8183C5EF822
:105AC000181C5EF8142CC1F3055CDEF80410BCF160
:105AD000000F15D0C908D20501EAE2716FF35F31FA
